:0200000407FCF7
:100000006070FC07FD4EFC07114FFC072B4FFC07EF
:10001000454FFC07454FFC07454FFC07454FFC0784
:10002000000000000000000000000000454FFC0739
:100030000000000000000000454FFC071B13FC07F8
:100040000510FC07B53FFC07A526F0071D13FC07AC
:100050004912FC07454FFC07C90FFC07454FFC0739
:10006000D50FFC07454FFC07AD10FC07B710FC0788
:10007000C110FC07CB10FC07D510FC07454FFC074F
:10008000B113FC07454FFC07454FFC07454FFC07E4
:10009000454FFC07454FFC07454FFC07454FFC0704
:0800A00000008E070E000000B5
:0200000407FCF7
:100110000348854600F040FF00480047B928FC0727
:100120006070FC07F8B507460120002302460090E6
:100130001946032049F766F9044602218030017010
:10014000FF4DFE482A6843881146FF31F7310B8680
:1001500080884886FB48066A0123DB069E431E43CF
:100160000662FF320020FF32383250829082D08205
:100170001D200882F4484884F448C882F448088363
:1001800000204882384649F77DFC01462868FF3048
:10019000F730C28B920992010A43C283ED4841684D
:1001A00000208847002C02D0204648F714FD204646
:1001B000F8BDFFB58BB0064616980027022821D05F
:1001C0000D9801881498814278D371880846403888
:1001D0003F2802D8159855F711FD0C98361D008858
:1001E000149A80190E995EF787FF0C98018814986D
:1001F00008180C9908800D9801881498081A0D9910
:1002000008805CE100200E9D079069782C78090237
:1002100021433180E978AC780902214371808C4612
:10022000403904242D1D024603468E46402900D342
:100230002878614604291FD0052914D0062918D032
:1002400070463F283DD8159855F7D8FC0006000E9B
:1002500004D0C148008D0006C00F30D00223012019
:10026000BE4A002712E0697800290FD0BC4A172344
:100270000CE0BC4A0F2309E0522802D0D22802D059
:1002800002E0142000E01520B74A1F23002A1AD0EC
:10029000984218D2800010580490002813D00020F3
:1002A0000890059070884038402803D328780524AA
:1002B00030716D1C701D00900498B5E0FEE0302791
:1002C000F0E03327EEE07088042872D10627E9E0D9
:1002D000522862D00CDC4B283FD004DC41286AD085
:1002E000422858D111E04C2820D0502853D140E06A
:1002F000632830D004DC572818D061284BD19BE00C
:100300006C2864D0772846D109E0009829780170DC
:100310000098641C401CA4B26D1C009081E00498FD
:10032000401C04900178089881427AD10098A41C5E
:10033000401C41084900881C009068782A78000217
:10034000104308800599AD1CA4B2002969D008901B
:100350000020059065E00120FBE710222946009867
:100360005EF7CAFE009810341030A4B21035009029
:1003700057E0204640301499039088420BD8402221
:10038000294600985EF7B8FE009840300090039828
:10039000403584B245E0342743E0082229460098DE
:1003A0005EF7AAFE009808340830A4B20835009021
:1003B00037E068E0FFE70622294600985EF79CFEDA
:1003C0000098A41D801DA4B2AD1D009029E01498D2
:1003D000001B80B203903088001B001D81B20120F9
:1003E00007900498401C04900098401C400840006E
:1003F00000900498007857281CD04228CBD1009850
:100400000170090A417000982946801C0090039AE7
:100410005EF772FE03980399201884B20098401882
:1004200000900498401C0490007800281ED0002FF3
:1004300017D01BE04908E2E71498001B81B200982E
:100440000391401C40084000009001200A4607909C
:10045000294600985EF750FE0399601884B2009810
:10046000DDE70D990988A14200D331E70D98008896
:10047000A04208D304990978002904D107990029DA
:1004800003D1A04201D034270CE00D99001B088055
:100490000C9801880098801B001F08180C99002FE9
:1004A00008800CD07088042809D0062807D040386E
:1004B000402804D30E984079707100E03427384604
:1004C0000FB0F0BDFFB581B01F4616460C46104672
:1004D0005CF7D6FC00257F2802D02189062909D0A7
:1004E0003B4632462146019855F71BFF05462846F4
:1004F00005B0F0BDC00601D50225F8E72078002838
:10050000F5D1300AA11D42F7A4F8F0E7F1B598B093
:10051000189842F79CFA0446189805210079134A66
:100520004006C00F099068460184618B08460A386E
:10053000904276D2E08A062873D319E030BCFC07DB
:100540004CB9FC07C00000401080000029410000A9
:100550007671000058BFFC0748BEFC073803F2075D
:100560004003F2079C03F207D803F207770C000060
:100570001922D201904254D8228BFF23F5339A429C
:100580004FD8521C9300D2184243521C0A235210D7
:1005900059438A4245DC217F00290CD1617F002923
:1005A00009D1A17F002906D1E17F002903D12021B3
:1005B000095DC90635D0274620377978C906C90EA6
:1005C000491F0C292DD2A18A81422AD8E17C002919
:1005D00027D0421E082A01D9082000E0401E81428F
:1005E0001FD8684646F7F4FA00281AD1FE4D0622B5
:1005F000286221460AA85EF77FFDA8792E46803E34
:1006000000287DD06079800901280BD00AA80999BB
:100610004CF7ADFD010003D03820405C002870D0BD
:100620009BE008E1F06A807A012808D0042806D00F
:100630000AA84CF709FE286200284ED054E0686AE8
:1006400006220AA932305EF77BFD002806D00AA8F0
:100650004CF7FAFD2862002802D012E0686AF9E738
:1006600000210AA84CF706FE2862F16A897A01295E
:1006700005D18B071A6849068A430A431A60002885
:1006800011D0F16A286A0622253010315EF758FD34
:10069000002808D1286AF16A2030C07AC97B8842D4
:1006A00001D1286A1EE0D148D1490088C96880B2CA
:1006B00006225043081842F7CFF9014614A8062233
:1006C00002305EF719FD13AA00213C2042F791FC8D
:1006D0000121B06D47F7B8FEA9E011A90AA84CF7AF
:1006E000C9FD2862002838D00146253106220FA80E
:1006F0005EF702FD286A08AA2030C17A0FA801E03F
:1007000041E024E04CF716FC002812D0286A203083
:10071000C07A002809D16846B649008C4BF77DFBAA
:1007200008AA0121B3484CF705FC68460AA9008CC9
:100730000AE008AA012111A84CF7FCFB00280CD004
:10074000296A6846008C32314BF77DFB05E00A18B8
:10075000527D002A08D010286DDBF06A407A02280A
:1007600006D0032804D00EE0401C1028EFDBF4E78D
:100770006846008C052806D308AA0AA809994CF7F0
:10078000D9FB002857D00022694620464CF77BFC55
:10079000002850D1F06A407A02280BD0032809D0F3
:1007A0000023684602880AA809994CF78DFC0028A6
:1007B00002D02FE00123F4E7E18A68460181218B12
:1007C0004181618B81817878062241096846817573
:1007D0007878C106C90E6846417521460E305EF72D
:1007E0008BFC189800794006C10F68460175038894
:1007F000214602A8B26D47F7CDF90146B06502A8BF
:1008000042F745FC0020B065214668461C3100884F
:1008100046F731FA49F7B0FA734C2034207A0028B1
:1008200005D0002109205CF76EFC00202072002119
:1008300008465CF710FB19B0F0BDF8B56E4C0646E3
:1008400085000F4660594C21095C24290ED140696E
:100850001022791D2E305EF74FFC61592520403162
:10086000087300221146304654F71BFB60594C2197
:10087000095C0C291FD140691022791D2E305EF7CA
:100880003BFC60595F214069095C09072DD4014692
:100890002E3110221E305EF753FC00280CD0605918
:1008A000092140300173304655F718F801460022FF
:1008B000304653F775FEF8BD0421684601706A465C
:1008C0000521304654F716F8684601786020014348
:1008D00068460170304655F701F8014668460278CF
:1008E0000123304653F771FFF8BD304654F7F6FF49
:1008F000012809D0605907214030017300221146B8
:10090000304654F7CEFAF8BD615900204969C0312C
:10091000887160590421426930461E3253F7EAFF5C
:10092000605941694031897F002907D01A21403040
:1009300001730021304654F73EFBF8BD1B214030C7
:100940000173304654F78CFBF8BDF8B52A4C0546C8
:100950008600A0594C22125C192A11D140224D3038
:10096000491D5EF7C9FBA059402224494D305EF76E
:10097000E7FB002805D02149284620395BF74BFDCD
:10098000F8BD0B21684601706A460521284653F7D9
:10099000B1FF68460178602001436846017028462F
:1009A00054F79CFF0146684602780123284653F716
:1009B0000CFFF8BDFFB581B003980C46060A002570
:1009C0005CF75EFA002827D0132825D0142823D0FE
:1009D0000B48B700C0592030407BC00637D503987C
:1009E0005CF74EFA15280DE030BCFC0768B9FC072F
:1009F00060BBFC0750F5F1073CBEFC07FCBDFC07E3
:100A000078BBFC070CD0A07942F714F8304647F7C2
:100A1000AFF8032806D015E0A07942F70BF81FE0E5
:100A200002251DE03248C0592030407B400704D5E4
:100A30003D21304642F7FCFC04E03D2200213046D7
:100A400042F705FD3D21304646F7DAF808E020463A
:100A5000103828490181468120464EF7C3FD012503
:100A6000284645E524485222006864308188C37EC8
:100A70005143224A12688918FF225F32525AFF31CD
:100A8000120AD21A01310B8CD2B2DB0B09D00B8CBB
:100A90005B045B0C0B84002A03D18088184A012177
:100AA00011547047FFB51746140A81B0104A0298D6
:100AB000A100515840780026114D002907D0295D2A
:100AC000002905D0002803D1204643F715FF2E55F5
:100AD0003A46049B0299019844F79FFE08E50A48AC
:100AE000084901600949416070477047704700003C
:100AF00078BBFC070608000084BBFC074CB9FC0768
:100B0000C98BFC070459F007C0000840490C00BF1E
:100B10007FB5E4486B460188428889186A4611808F
:100B200001214C0022181546403DED8F065B52888E
:100B3000AD19AA18491CC9B21A530729F1D38189E2
:100B4000C089081881B2D981D888002821D0188995
:100B5000002820D0988800281FD0588900281ED04F
:100B6000988900281DD0588800281CD000291CD046
:100B7000188800280BD00720062254001C5B8C42EA
:100B800001D22146D0B2521E52B2002AF5DA04B088
:100B900070BD0320FBE70420F9E70220F7E70520FA
:100BA000F5E70620F3E70120F1E70720EFE7F0B5CE
:100BB00095B0EFF310801090012080F31088BA48B0
:100BC000816B4A07520F69460A800A92816B0122A3
:100BD000C908C9008163B5498B8869464B800224E6
:100BE000B24B00219980C16A09078B0F69468B803F
:100BF0000F93C16A0C2399430831C162052109078B
:100C000009880906CB0F6946CB800521090709939E
:100C100009888023194305231B071980A449898A61
:100C20004906CB0F69460B81A1490893898A402365
:100C300019439F4B9982016A09074B0F69464B8103
:100C40000C93036A0E218B4303629B4D99486860A5
:100C5000FF204030A8602888A0432880974841683A
:100C60000B071B0F69468B810B934168090909012A
:100C700008314160416849064B0F6946CB810D93AD
:100C8000416870239943603141608748403801686A
:100C90008904CB0F69460B820293036841140B430E
:100CA00003600168CB07DB0F69464B820E93016836
:100CB0001143016041688903CA0D69468A82039223
:100CC0004168CA05D20D6946CA82049281688903C7
:100CD000CA0D69460A8301928168CA05D20D694628
:100CE0004A8305924168764A11400322D20389184B
:100CF00041604168490A4902FF31413141608168E0
:100D00006F4A11400322D203891881608168490A21
:100D10004902FF3141318160642000F02DF9A8893A
:100D200069468007C00F8883A8892043A8810024D2
:100D3000604F288800260121084328800A2000F0FF
:100D40001BF9FF205F4941303A680A4200D0761C07
:100D5000401E3F1D0004000CF6D1A88A8004FCD17F
:100D60005149886B671CC208D2007807400F0243C4
:100D70008A630A2000F000F960004A49FCB20E5272
:100D8000082CD5D348480A99826BD208D2000A436E
:100D900082636946454A498891800F998A00C16AF1
:100DA0000C2399431143C1620999CA01052109071E
:100DB000098880239943114305221207118008995D
:100DC0008A013B49898A402399431143384A9182D9
:100DD0000C994A00016A0E23994311430162374876
:100DE0000B994268120912010A4342600D99426848
:100DF000090170239A430A434260029841032A483A
:100E00004038006801225203904308432649403984
:100E100008600E9809684908490001432248403893
:100E20000160039842022048403840682449084045
:100E300010431D4A403A506004985268520A5202C8
:100E400002431948403842600198174A4002403A2C
:100E500092680A400243144840388260124905985B
:100E600040398968490A490201430F484038816086
:100E70001098002800D0012080F3108815B0F0BD34
:100E800010B5114C2078002808D0FFF790FEFFF72E
:100E90003FFE0E4908700020207010BD02F076FE63
:100EA0000120F9E7F867FC078010004000120040BD
:100EB00020300050F862FC07003500504020004010
:100EC000FF01FCFFC0C0C0C02B8DFC07298DFC07B3
:100ED00010B5FF22154901320A60BFF34F8FBFF3EF
:100EE0006F8F13490A6013490B6840241B0A1B02C9
:100EF00023430B601049898A0021C30700D03521A4
:100F0000830702D57D231B021943430702D57523AE
:100F10001B041943000702D53D2000060143064883
:100F20002038016301488038026010BD80E100E094
:100F300080E200E008E400E0A010004010B50620C8
:100F400000F01AF810BD10B5092000F015F810BD1A
:100F500010B5812000F010F810BD10B5044800F065
:100F60000BF810BD10B5034800F006F810BD0000E6
:100F7000010200000108000000280CD000BF00BFE3
:100F800000BF00BF00BF00BF00BF00BF00BF00BF69
:100F900000BF401EF0D170471CB5094800900948B9
:100FA000019005460126009C05E0E36807CC334329
:100FB0000C3C98471034AC42F7D3FFF7ADF8000073
:100FC000C462FC07F462FC070148012101807047FC
:100FD0000E1500500A48011F0988CA0706D002886A
:100FE00007239A43F04B5B7A13430380490706D5E6
:100FF000018807229143EC4A127B0A430280704722
:10100000B8100040B0B50520000701883022114318
:101010000180038803210B430380204B1C88640755
:10102000FCD403889343038003888B430380DE4C06
:10103000E38B4380238C9D1E194B5D8007251D800B
:1010400005881543058005880D4305801D886D07BB
:10105000FCD403889343038002888A430280428938
:10106000920702D042898A434281018980220A4341
:101070000281018A042291430182818A8907FCD579
:1010800041F74FF9E06B07490860074801684907D5
:1010900000D500BE01684907FCD5B0BD083300503B
:1010A00000160050080200401000004080B50A20E1
:1010B00000F064F880BD80B50B2000F05FF880BDC3
:1010C00080B50C2000F05AF880BD80B50D2000F0EE
:1010D00055F880BD80B50E2000F050F880BD0000AE
:1010E000FEB5019302920091064601270021384681
:1010F00032465EF745F81F4A53680B4015680540B5
:101100001D4300D100BE53680B4015680540019C8B
:10111000002C06D01D4300D100BEB7400B4D2F80E0
:1011200005E01D4300D100BEB740084D6F805368F5
:101130000B4011680140194300D100BE029800998C
:101140000143700028188180FEBDC0460230005067
:1011500010B50446074908684968224662F76FF9E6
:10116000C00700D100BE0120A04003490A88024305
:101170000A8010BD988DFC071E300050F0B5034664
:101180000A3B01210A469A4093B20B4D5C19661C3A
:101190005E400A4B1C8800272E4203D07F1C760835
:1011A000B6B2F9E79443BAB20D46954025431D8087
:1011B000814052480160F0BDFEFF01000E14005056
:1011C000F8B5044601273E0205200507688DC005D5
:1011D00006D51B2003F0B0F84A4801883943018046
:1011E0008036288840013040698A474A0A400243D5
:1011F0006A8221681348016061684160A16881606A
:10120000E168C1602169016161694161A169816130
:10121000E169C16104623E490A6842624A688262C9
:101220008A68C2624A690263CA6842630969816363
:10123000334808210180A88AC00600D4FEE700BE1A
:10124000F8BDC0460090FC07024800882B481021DA
:10125000016070472C130050F8B5044605200507BF
:10126000288A0421014329822889402101432981B8
:101270002248012707602248082101803E02688D2C
:10128000C00506D51B2003F057F81E4801883943D6
:1012900001808036288840013040698A1A4A0A4015
:1012A00002436A8221681948016061684160A1684F
:1012B0008160E168C1602169016161694161A16981
:1012C0008161E169C161046211490A6842624A6848
:1012D00082628A68C2624A690263CA6842630969B3
:1012E0008163A88AC00600D4FEE700BE688A094967
:1012F00008404018001D6882F8BDC04680E200E04A
:1013000000330050800000507FFE00005090FC072A
:1013100028ED00E0FC7F00007047704770B5214C5D
:10132000D64D224EA1880F200840022809D004285B
:1013300004D00C2820D00128F4D132E003F050F979
:10134000F0E72A8BA88B90421DD2696B9042E9D2BC
:10135000A288C0231340C02B03D13288920703D444
:10136000E0E7228A9206DDD5421CAA83085C221F90
:1013700010802A8BA88BE9E703F032F9208801213D
:1013800088432080CEE7208802218843208020885F
:10139000802188432080A96B0029C3D0288B8847EF
:1013A000C0E770BD04110050208DFC077C11005077
:1013B00005210807028830239A430280028803230C
:1013C0009A430280828812050DD5184A13880B4073
:1013D000052B08D1108804210143118010880121B8
:1013E0008843108070478188C90606D510498A88CD
:1013F000D20702D00A88120610D48088C0060CD505
:101400000B488188890708D50188C90505D50221BF
:1014100081800188074A0A40028070470120888045
:1014200008888022904308807047C0460002005020
:1014300000010050FFFE00005748018802220A43C5
:10144000028001888907FCD40121C181008A70478C
:10145000FEB5514C002121800327FD012946903122
:1014600061804026A6805C224C498A5AA281A289CA
:10147000324330239A43A281494A1660BFF34F8F0B
:10148000BFF36F8F002800D181E001970295228879
:10149000B2430578AB0113432380E788702297435A
:1014A000437819013943E180002D05D1E1880725F2
:1014B000A9431B090B43E380C1784B1E9941890066
:1014C00023880425AB430B43238001790902A388B9
:1014D000DBB25918A180E1881140324F40292DD14B
:1014E00062202E49085A002800D1314831494880ED
:1014F000012000032188014321801920FFF73CFDD2
:10150000029A104680302188014321802088304390
:10151000208060882843608060882749014061807E
:101520000F20400261880143618040376088384065
:101530001043608060880199884327E021881A4A17
:101540000A4022808178102900D300BE6288174BA0
:1015500013404902194361806188019A914342799D
:101560000A43628081790029029A01D10A4600E08B
:1015700080322188394011432180C079082800D366
:1015800000BE403761883940800108436080208870
:10159000012101432180FEBD00150050CC8BFC07CA
:1015A00080E100E0FFFD0000FFEF0000FFE1000030
:1015B000407600000868FC07FF1F0000064801880D
:1015C000064A114001235B02C9180180418811407D
:1015D000C91841807047C0460815005000FCFFFF45
:1015E00070B5364809210424182322465BF702FA15
:1015F00005461B202870FD26304662F74DF8002175
:10160000A982E96029616C606E80687028465BF78A
:101610000CFA70BD1FB51446002202920192069A80
:1016200000921A46234661F763FE04B010BD000025
:1016300010B51248817B124ACCB20C236343D45CB0
:10164000FF2C06D0D318491C81735B68002BF3D0A4
:101650000DE0C17B0B4ACCB21C236343D45CFF2C4E
:1016600008D0D318491CC173DB68002BF3D098470E
:10167000002010BD0021C181012010BD208DFC077C
:101680003054FC070452FC0770B50C4809210424AF
:101690000A2322465BF7AEF905461B202870142664
:1016A000304661F7F9FFFF21743129816C606E804B
:1016B000687028465BF7B9F970BDC0461B0D000085
:1016C0001FB5144601220292044A0192069A009222
:1016D0001A46234661F70CFE04B010BDC050FC074B
:1016E00070B5124D2C68002C19D111480921042223
:1016F0002C235BF77FF904462860172020840D48CF
:1017000020800026668020460A3011215DF70DFDFD
:101710002685E6846684E683A6832020E07620463C
:101720005BF783F90020286070BDC0466C8CFC0715
:10173000040D0000030A000070B5184D2868002849
:1017400023D117480921042252235BF753F9044699
:101750002860002686721348E080A0800D2020803B
:101760001622E272FF200830208120460C300EA1A4
:101770005DF7C2FC2B20265420462B302C34182138
:101780000F4B224661F7C6FE28685BF74EF9002032
:101790002860042002215BF75EFB70BD688CFC07AB
:1017A0000D0D00004C04000003030A181107EE8F12
:1017B0007A37CC565DAAED40A0F0C294E0D6000086
:1017C0001062FC07F8B500920D468100104A565889
:1017D0005418002E0AD101020A310E4804271E2394
:1017E0003A465BF707F9064607702060B71C1021E0
:1017F00038465DF79AFC38462946009A5DF77CFC2E
:101800000120707030465BF710F900202060F8BDB1
:10181000A08CFC07140E0000B0B5024679483830A1
:10182000002423460A2B0BD00568002D02D0001D92
:101830005B1CF7E701605C1CE0B2114600F084F924
:10184000E0B2B0BDF8B50446401E09281BD8A00080
:101850006C494718786B002817D06D4DA84214D0FA
:10186000343766482018401C042631465BF74BFC91
:101870003D6008236148314632465BF7BBF804708F
:101880005BF7D3F8F8BD00BEF8BD00BEF8BDC0469A
:101890001FB514460E220292044A0192069A009243
:1018A0001A46234661F724FD04B010BDC850FC075A
:1018B00010B5014601200A4A914210D3121D9142EF
:1018C0000DD8029CF231C8B28100064A5058002857
:1018D00003D0511800220A6080470020207010BDFC
:1018E0000E040000888CFC071FB5144607220292E4
:1018F000044A0192069A00921A46234661F7F8FCC0
:1019000004B010BD5451FC07B0B50C46AA4988423A
:1019100034D0394A90421DD0384988423FD120788E
:10192000401E09285BD88000DF4909188A6B384BB4
:101930009A4256D03448824258D12F480421082375
:101940000A465BF757F821780170616841605BF7E0
:101950006CF84BE02078411ECAB2092A3DD88900B4
:10196000D14A5218936B284DAB423FD13832274BA6
:1019700059581160616800F0E7F837E06268002AA2
:1019800001D100BE62681E48824201D300BE626877
:1019900020781949401804215BF76BFB26E0531CA3
:1019A0000121984225D30A32904222D8C1B2091FA0
:1019B0008A00BD498B18996B002917D0124CA1429F
:1019C00014D0134CA14211D03833C01E0F4C002547
:1019D000A5501D60C0B2884708E000BE06E000BE0A
:1019E00004E03831094A002313500B6004980021A9
:1019F00001700846B0BDC0460304000002040000A8
:101A0000FDFF3F00988DFC07CF45FC07F88DFC07D4
:101A1000CD45FC07C8488178491C817001780029B0
:101A200000D0704766490023CB7017490A780B70C5
:101A3000012A01D0012100E00221022A00D1032164
:101A400001707047BC488178002904D0491E81701C
:101A5000090600D070474178002904D00022427066
:101A60000322114003E001780029F3D0491E00222F
:101A70000270481EC0B20128ECD851480122C27041
:101A8000014801707047C046B4BAFC07B0B50C46B7
:101A90000025202D04D040F732FF60556D1CF8E77B
:101AA0000020B0BD10B504460548064970225DF718
:101AB00023FB0548001B054908801430488010BDF1
:101AC00070A0FC078C51FC07B8A0FFFF78A0FC07B2
:101AD00010B507480188074A1368114C234059186C
:101AE00011604088516821400818506010BDC04600
:101AF000183000408CA0FC0710B507480188074A41
:101B00001368074C234059181160408851682140E0
:101B10000818506010BDC0463830004098A0FC073F
:101B20000000FFFF07481E214180018803220A436D
:101B30000280018804220A4302807F480121C1708B
:101B40007047C0460016005070B50C46054619494E
:101B50000888000618480ED5184A126812040AD4DC
:101B6000174A1288D20706D14019801C0421224648
:101B70005BF77FFA70BDEFF31083012282F31088C8
:101B80000988090603D40F490E8816430E80002BDE
:101B900002D082F3108802E0002181F31088042132
:101BA00008230A465AF726FF446005705AF73DFF9E
:101BB00070BDC04608000050010400003000004025
:101BC00054BAFC07083300507047000070B5144643
:101BD0000D4610465BF754F901282ED128780102F2
:101BE0000831AA791648002A0CD089B20623224669
:101BF0005AF700FF0646A87860F718FC3080A879ED
:101C0000307113E0AA8889B2921D93B222465AF726
:101C1000F1FE0646A87860F709FC0021317130809A
:101C2000AA887280701DE91D5DF766FA30465AF782
:101C3000FCFE002120465BF70EF9002070BDC04677
:101C4000140C0000FD2801D00020704700487047A8
:101C50000452FC077047704710B5044640793F288E
:101C60000FD840F74CFE2070010EE170010CA170FE
:101C7000000A607040F743FE2071000AC021014352
:101C8000617110BD80B5FFF757FD80BD4E49C98E0B
:101C90000180704780B54C490A7D0270401C1531A7
:101CA0005DF72AFA80BDC046988DFC077D21C18072
:101CB00000218180102141800821018070470000AF
:101CC00070B504467A206043EB4A16184D78357794
:101CD0003046143008210A4661F742FB102D04D823
:101CE000B01C1022294661F73BFB40F708FE7082CA
:101CF0003078012101433170204600F0C3FD317F6F
:101D00000177718A4182F18AB28A738B358B0583A0
:101D100043838282C182B11C801C10225DF7ECF9E2
:101D2000204600F0AFFD5AF780FEA00002490818D7
:101D30000021416570BDC046208DFC0770B5810053
:101D40000D4A54585518002C10D101020A310B4885
:101D500004221E235AF74EFE044601260670286010
:101D6000801C074907225DF7C7F9667020465AF7BD
:101D70005CFE0020286070BD9C8CFC07140E0000E7
:101D8000BC62FC0780B561F79BFB002801D0FFF720
:101D9000D3FC80BD10B50C46017801290BD0002979
:101DA0000ED14288F64B1A751533011DD2B2184672
:101DB0005DF7A2F902E04088F149C886002000E002
:101DC0004820207010BDC046988DFC07E0B54A78C9
:101DD000032A14D87A44127952009744010A03075F
:101DE00008A104E006490091694605E0891C10221B
:101DF00003E00349019101A90422FFF7E3FC8CBD34
:101E000040E20100000102030405060708090A0B6D
:101E10000C0D0E0F0020888048800120087070474C
:101E200080B55FF7A9F880BDF8B56946C870020AA9
:101E30008A70020C4A70000E087008465FF784F83A
:101E40008FBD000080B5494800210160FFF780F890
:101E5000444800781F214901414A13688B43C0065A
:101E6000800DC018106080BD80B53F480221017010
:101E7000FFF764F880BDC046F8B51F460C460878E9
:101E800008281CD80725002100911AA6784400795B
:101E90004000874419040C0406060F0912001A4E6C
:101EA00012E00D25174E0FE0062514A60CE00A25BA
:101EB00016A609E008251AA606E017A604E000BE4B
:101EC0000026012000903546AB1C184839465AF7C9
:101ED00091FD0746207838707D700098002804D165
:101EE000B81C31462A465DF707F938465AF79DFD7A
:101EF0000020F8BD52656E6573617300FFEEDDCCA6
:101F0000BBAA00008A60FC078260FC07312E302EDD
:101F1000302E302D4C45000001D20080050001001C
:101F2000123456FFFE9ABCDE0000000003140000CD
:101F300080B50B4801688905C90E0A4A11701F2136
:101F4000490102688A43026007480121017007487D
:101F5000016803220A430260FEF7FAFF80BDC04613
:101F60004C120040F462FC0706100040AC10004028
:101F700070B50C78A51E052D25D81C0A7D442D7939
:101F80006D00AF4402312023414F7A2060433A4A2A
:101F90001518887878216854C0070DD00C2060434C
:101FA000AF490E1831460D312846713006225DF7D3
:101FB000A3F8307B772168540C206043A8490818A7
:101FC0000021C17440E002F059FB3DE07A256543F1
:101FD000294C60193A30891C17225DF78DF8605D35
:101FE0000421014361552FE07A20604322490818FB
:101FF0007821002242540C20604399490818C27489
:10200000204661F7BDFA1FE07A2565431A4E701924
:102010006130891C102422465DF76EF8705D204304
:10202000705511E07A206043134A15188B1C488ABA
:1020300000280BD028461E301C2219465DF75CF89C
:102040002878022101432970002070BDA81C1C22A1
:1020500019465DF751F8287801210143297007A03E
:102060005EF74CFE112008A4461EEDD0295C2046E8
:102070005EF744FE3046F7E7A48CFC07200D0A20EB
:102080004C544B3A20307800253032780000000064
:1020900080B50A78072A23D8180A920001A39A5813
:1020A0009746C046C520FC07E120FC07E120FC075D
:1020B000E120FC07E520FC07EF20FC07EF20FC07F0
:1020C000EB20FC077A2141433D4A002353540C2165
:1020D0004143634A51180122CA74FFF72FFE06E0FC
:1020E00000BE04E0FFF772FE01E0FFF7E9FD00200B
:1020F00080BDC04610B50C78012C03D0092C09D046
:102100004C7802E04C78432C02D0002C00D000BE6A
:1021100002F0B4FA002010BDF8B51C4610460D467A
:102120005AF7AEFE022828D1240A00D000BE0C20A7
:1021300060434B490F18BC72FF2C1AD00837012698
:10214000FE70042003215AF786FE28883880687ABA
:102150003871781D0A35062229465CF7CDFF7A20B2
:102160006043174908187821415C2046324661F7E0
:10217000BBF9204602F068FD00E000BE0020F8BD7B
:10218000988DFC0710B51C4610465AF779FE0328B7
:1021900009D1200A0C21414331484018FF214181D7
:1021A00002F080FD00E000BE002010BD180A7A2277
:1021B00042430348801809787822815400207047F0
:1021C000A48CFC0700207047F0B589B01D4614466A
:1021D000087802282CD001281FD000283AD101AE5F
:1021E000202130465CF7A1FF1D490F7D1531304697
:1021F0003A465CF781FF3B460A3318482946224697
:102200005AF7F8FB0446478000202070201D314615
:102210003A465CF771FF20461AE01148C68E0F4817
:102220000A23294622465AF7E5FB468001210EE0A3
:102230000A480A23294622465AF7DCFB7D21018100
:102240000021C1801021818008214180022101707C
:102250005AF7EBFB002009B0F0BDC0460B0E0000A2
:10226000988DFC0780B560F7E7FF80BD80B560F70B
:10227000C3FF80BD80B560F7FAFF80BD80B560F711
:102280000EFF80BD80B560F77DFF80BD00207047E8
:1022900080B560F7F7FE80BD70B50C78172C0FD8AD
:1022A0000125A5400D4E354201D0002070BD012C06
:1022B00009D0032C04D14878002809D000BEF4E7E7
:1022C00002F0DCF9F1E74878002804D000BEECE722
:1022D000FFF758FDE9E7FFF703FAE6E700F08E00A5
:1022E00010B510465AF7CCFD002801D000BE09E019
:1022F000054809210422012423465AF77BFB047078
:102300005AF793FB002010BD020D000080B560F766
:102310005AFF80BD002070470020704780B560F7ED
:1023200098FF80BDF0B589B0039316460C46FD209A
:102330005EF75EFF0290002800D100BE08A90027CA
:102340000F70208860F780F805466088002800D06C
:1023500000BE002D78D1FD20FFF774FC002800D1CD
:1023600000BE0399090A009108A90A781421514373
:10237000436859180B79022B24D109680988394B15
:1023800099421FD100200590049020885FF7F7FF45
:10239000002800D100BE07A9002204AB4EF7E4FDDF
:1023A0000120400207990140480A21465FF7D2FF09
:1023B000C5B2002D29D1E28808A80178009860F7FD
:1023C000A4F922E001968669002E3D4606D0A58834
:1023D0006188A31D10462A46B04705460597049715
:1023E000208804A94EF73BFB002D019E0DD108204B
:1023F0000499085E002807D46288A1882088A31D5C
:102400004EF797FB054600E00025002D1CD10298F1
:10241000009F39465EF70AFF0146A088801D83B2FF
:10242000114832465AF7E6FA0546801DA288A11DDA
:102430005CF762FE08A800786880A088A8802F70EA
:1024400028465AF7F2FA0025084804230399324631
:102450005AF7D0FA8570218801805AF7E6FA0020F1
:1024600009B0F0BD022900000AFD0000160C0000B2
:10247000F8B5204CFEF7E0FF82490A88120707D41E
:102480008A1E12884023134006D02246563205E0A9
:10249000224660325E3406E022465A32002B01D0DA
:1024A000543400E058340026A35F945F0722920161
:1024B0000D881540954204D00988C905490F0622A8
:1024C000561A00960C4F7843DD1929465CF79AFDA1
:1024D00006467C43204629465CF7AAFD311AB942DC
:1024E000084600D33846054A914200D90020009999
:1024F000C840F8BDCC8BFC07FFFF0000FEFF0100C9
:10250000F0B587B005AA0723D371012797715171E0
:1025100000211171D1700621917050701770104612
:10252000FEF796FF774C60880821884360802088FA
:10253000404901402180A08840263043BF21884384
:10254000A0806088042528436080FFF737F8608802
:10255000000700D500BE208804906088039000200A
:10256000FEF776FF6088284360806088324901402A
:102570007A028818608020883049014021803D021D
:1025800060882843C0210143618020883043208037
:1025900020892B49084080182081608908400092DA
:1025A0008018608120888021014321802088A843F1
:1025B0002080FEF741FF21882943218003214E021C
:1025C000800940003946371AB8B2850A880201905E
:1025D0003F2080020290FEF72FFF002D00D000BEAA
:1025E00019492289029B1A403A4322814009154A1F
:1025F0001040301A019A904200D300BE62891A40FE
:1026000002436281208808402080FEF715FF81097F
:102610000F4A904202D80098401A01E00B4808186F
:10262000082800D300BE049820800398608007B07B
:10263000F0BDC046FFEF0000FFE10000FFFD00001D
:1026400000FCFFFFFE070000FFFE000000FEFFFF92
:102650003F800000072189010A4A13880B408B4202
:1026600001D1102103E01188C905490F0A311288F0
:1026700003231340E122920053439A185043C84069
:1026800080B2704702150050F8B5022400212046A0
:10269000FFF736FF1B4D2888012738432880FFF7B6
:1026A000E7FEFFF7D7FF184EF0842888B84328804C
:1026B000FD2040F788F801461448042508232A46DF
:1026C0005AF798F9848044804770F18CC1805AF79A
:1026D000ACF928465AF7D4FB032804D164200C49EE
:1026E000FFF79AF870740B4C0B4D2046A847F18CFD
:1026F0000AA0A847F08CC1B2020A10A0A847204641
:10270000A847F8BD00150050208DFC0706FD00000D
:102710008926FC07A45AFC07FD0CF2075B414443E1
:102720005D2053656E736F7220566F6C74616765C0
:102730003A202575206D56200A0D00005B41444368
:102740005D204C53423A203078253032582C204DB1
:1027500053423A20307825303258200A0D000000CC
:1027600070B5EFF31085012484F310880520060767
:10277000708DC00507D501F0D5FD114908701148CD
:1027800000882040487030888021014331800E4805
:10279000016807229143016041684907FCD53188EF
:1027A000090600D400BE0949016109494161002DB3
:1027B00002D084F3108870BD002080F3108870BDB3
:1027C0000868FC07800000500000F4070F0099091A
:1027D000090404A470B5174EB06800F02DF8344910
:1027E0000A6C00230B641518084C284621465CF738
:1027F00009FC706106494143481901D0201A80B292
:102800003061306808210143316070BD7102000001
:102810008FFDFFFF80B506480021016001F04CFDEF
:102820000120C00703490A6882430A6080BDC04690
:10283000A8B9FC073000004080B50246C00B09D0A3
:102840001B48006D00210B465CF706FC8905800AD9
:10285000401880BD1648006D4243900A80BDC046B6
:1028600080B5FFF7E9FF80BD80B51149896C414310
:102870000248081802495CF7C5FB80BD20A107008B
:1028800040420F0010B501468000094A1418606DDF
:10289000002800D010BD543409020A310548042232
:1028A0001E235AF7A7F8FF2108310180206010BDD0
:1028B000208DFC07140E000000B59DB0A549C8206E
:1028C0001490088000204880A34908224A80A34C25
:1028D0001A901A98002812DC0020199019991A9859
:1028E0000B290ADC302141436018199989004018EE
:1028F000002181621998401CEFE7401CE8E717921D
:10290000E16B0020C343012200291592174600D035
:102910001F467A01F64D2E6816436A6816922E609D
:102920001197FF0E00291E461A4600D10E4671016E
:10293000C919169B19436960E16A0029159F3B4636
:1029400000D013461393DB0F00291692164600D1D0
:102950000E467100C9186A680A4329686A60139AAA
:1029600052000A432A60616C00293A46169E00D044
:1029700032461292530E002900D10E46F101C918B9
:102980006A680A4329686A60129AD2010A432A6077
:10299000236C002B3946169E00D031468F0E002B3B
:1029A00000D11E46B201D2196B6813432A686B60CE
:1029B0008B0113432B60A76C002F159B169A00D038
:1029C00013461E0E002F00D13A46120292196E686D
:1029D00016432A686E601E0216432E60139AE26246
:1029E000119AE263216412996164A364E16C002985
:1029F000159F00D0169F7A022E6816436B682E60D2
:102A0000FE0D0029169A00D10A4651028919194370
:102A10006960E764686028601A901A98002837DCBB
:102A20000020199019980B282FDC19981A990B2857
:102A30002BD830201A9941436118199A92008918AD
:102A4000896A491C00D100BE1A9941436118199A3C
:102A500092008918896A002914D01A9948432018CD
:102A6000199989004018806AC117199A5CF788FB88
:102A70001A9A12015CF784FB6A680A4329686A6043
:102A8000014329601998401CCBE71A98401CC3E702
:102A9000A44F388818AC20802088C046C0462088C3
:102AA00004211591C943084202D00020388003E078
:102AB000B88901218843B881179BB88B9A49014096
:102AC00007200990C0020818B883984C2088184342
:102AD0002080E08D06229043E0850126B003B98B6B
:102AE0000143B98320889249014021806088039284
:102AF0001043984360800520129000071690418D86
:102B00008C4AFF32E08D10407D22D2000F231193BA
:102B10001B03C9050192049322D4032149020843EF
:102B2000E085E08D1843E085B88B17998843B8831A
:102B3000B88B04218843B88360887F490140618055
:102B4000E08D3043E0853346169E708D4007FCD5FE
:102B500020E0C0460031005000330050F88DFC07E3
:102B600010181830E085E08D74490140F003081812
:102B7000E085B88B17990843B883B88B15998843BB
:102B8000B883E08DB043E085B88B40218843B8839B
:102B90003346169E18020D90B88B03210F910843FF
:102BA000B88320882021084340220E92D24310404F
:102BB0002080388C1091084310403884F08A80219E
:102BC000089108431040F082308EFF210591884320
:102BD0003086308F159C2043182107918843308719
:102BE000308FA02101430B9211403187544804805B
:102BF000B08854490140B1801393180452490860C9
:102C0000FFF7AEFD514B1868099908401AA90870E2
:102C10000878022820D0708D0D99084213D001F059
:102C200081FB0A2802D80B2001F086FB3F48C08DAB
:102C3000C007464B07D13D49C88D139A1043C8853C
:102C4000708D4007FCD5186802210143129881431A
:102C5000196058684007FCD53D480068C1B20C2097
:102C6000AA29014600D015993288824388183080FD
:102C7000C046C04637480068374909886823374C42
:102C8000002206920A93E252354B1A466432918032
:102C900058661398C046C046324F381F0068324904
:102CA000884200D04FE111980407042000210291CE
:102CB000119403463918081F3A46EC32904200D36B
:102CC00045E1159300681990199B234009200407DA
:102CD000199AA3425CD1199B1F0AFEB2D2B2531EAD
:102CE000162B00D9F6E003A45B00E35A5B009F4477
:102CF000988DFC0709010901F1000901F1003D006F
:102D0000B400F100F100F100F100F100F100F10078
:102D1000F100F100C9009600DE008F00F100EB0029
:102D2000AA00C04604030050FFC300005200005038
:102D3000FFBF000000F0FFFFFFF90000FF0F0000E1
:102D400000020050FFF7000080E200E00000F407FE
:102D5000D07FF807D47FF807D87FF807CC8BFC0723
:102D6000208DFC07D47EF807A5A5A5A5BE4C32464C
:102D70000A9EA05DC00020180C9292005CF7BCF97E
:102D8000A05DC019A055C0B2052879D300BE77E078
:102D9000900F10D01998B54988420CD8159B184649
:102DA000083031462831199A8A42119C26D1D959C6
:102DB000AF4A11807DE71998119C204009990907B5
:102DC000884205D10020C046C0461598001D70E716
:102DD000199820401399C9078842159A0CD0199860
:102DE000204012994907884206D0199820400F992F
:102DF0004907884200D096E0101D5AE7B11C199A85
:102E00008A4200D086E0D9596622974B995250E702
:102E10009848159908586221934A505272E0954A91
:102E2000159B995848439A58120C801A00B2C00852
:102E30005A238D4CE052501A81088F4A11400818CD
:102E4000401C582131E08B48159908586421864A66
:102E50005052000456D100BE54E0692482483246E4
:102E60000646005DC000301810300C9292005CF7EE
:102E700043F9305DC0193055C0B20D2800D300BEF3
:102E80000C9E3FE07B4A159B995848439A58120C78
:102E9000801A00B2C0085623734CE052501A8108C1
:102EA000754A11400818401C542160522AE0029CC7
:102EB000A0001AAA1018B2005CF71EF93419029487
:102EC000032C1FD300BE1DE06A48159908586649B7
:102ED000086517E01E2A15D10C967008624E02068E
:102EE000CED00B684A680831002427460837382FAF
:102EF00006D0341924699C423C46F7D1F319DA60B4
:102F0000401EECE7B00015990818001D169E594F99
:102F1000119CCEE631462431199A8A4209D1D959F9
:102F2000534A5180C5E61998401C10D000BE104687
:102F3000BFE631462031199A8A4200D0B9E6D95904
:102F40004B4A9180B5E66620245A139A38E05C20FB
:102F50001A99454C215209201B9948430A0C801AA2
:102F600000B2C0086023E052501A8108424A114062
:102F70000818401C5E2160520A9AA05CC10701D06B
:102F800000BEA05C4008A0546920215CCA07139AC7
:102F900001D000BE215C490821546420215A002937
:102FA00001D1019921526620245A002C08D13349BD
:102FB0000968C9B2AA29089C00D06E242A490C527B
:102FC0002F48C483B08C9043B0840D201746FDF782
:102FD000D3FF169840893843169E02210C918843EE
:102FE000708170894006FCD574800198FDF7C4FF9C
:102FF00070890F998843708170890006FCD57F2005
:103000001F4908711D4880691E498860EFF31084CC
:10301000139A82F3108830880899084330801A4B3D
:1030200018680999884318600D9958684007FCD5BD
:1030300016481861164858613088089B98433080BC
:10304000708D08420BD00F4F387801F075F9139A44
:1030500010497878002802D1C88D9043C885002C8B
:103060001AD082F310881AE0CC8BFC074C42005037
:10307000A000FC07D47EF807FF3F0000D07FF807D0
:10308000208DFC070868FC070000F4070F00990971
:10309000090404A452000050002080F31088069B0D
:1030A000EA480068EA49884200D0C7E0E948EA49AE
:1030B0005CF73BF809980102E8485CF736F8FDF741
:1030C00015FDE748E7490160E748E84930221192D9
:1030D0005CF712F8E6480024C471847144710471ED
:1030E000C470847044703F2106910170E148E2A1F0
:1030F0000E9F3A465CF700F8EF480470EF48F0493D
:103100000160F048F0490160F049F1480860F14879
:103110000A210170F04815940470F04832210A9198
:103120000170EF4812990160EE48139E0660EE4868
:103130000160EE4803990160ED4809990160ED488E
:10314000179C04600D98801DEB490860EB490860EE
:10315000EB48C049016000F0D3FB2246169C208951
:10316000119988432081208908990843208120896A
:1031700010432081208CB0432084608907998843C4
:103180006081208938432081208A0421884320825D
:10319000A08A8007FCD50499FF31E08C08400B2100
:1031A00009020143E184E08C3043E08460891043EC
:1031B0001021099188436081608CB043608420892C
:1031C0000E9988432081CF483730B40721680140E9
:1031D000216006984002CC4A1168814370030818A8
:1031E0001060CA48401C116801431160974800688C
:1031F00097498842159E11943DD0C1480068C24944
:103200008860C34A90681071010ED171010C9171F0
:10321000000A50710D98C030BE4E3246002818D0BA
:10322000401E835D11780C460F9F3C40B84F3C19FF
:1032300024795C404C401470521CEFE7B648B54905
:10324000129A5202934200D930E71A585A501B1D65
:10325000F6E7AF4F1C37AF491C2238465DF7E0FE5A
:103260000028159E119C00D000BE38465DF76CFE0C
:10327000764877490160A24800683EF7EBFFA74F08
:103280003E71FE7020680D9908432060FEF74AFCED
:10329000139800F043FCA2490878002803D008984E
:1032A00048700C4604E00020F8700C469D490870F8
:1032B000AE60EE602E61079A2A75284615309A494D
:1032C0005BF71AFFEE8604279849384659F791FDB7
:1032D0000598A8720F973846314659F7BCFDE67439
:1032E0006684A665E66526666662A662267460F751
:1032F000FFF92078002804D0812060708C4F139C47
:1033000005E0139C8548C47086480470884FFFF719
:1033100081FA0520FDF7DCFD14983880854A179B5B
:103320005380854885490818854940188008401E03
:103330000790069880020290E0031290814C784931
:10334000119D16980089000600D431E1286B129E69
:10335000304200D02CE171480088C00700D027E13E
:103360000F465AF74AF80025284600F0D7FBB87AEE
:10337000042800D014E1139800F0D0FB199519A887
:1033800004214AF7DBFB002800D109E113986E49BC
:10339000086008680028FCD11198C069604BD96AA0
:1033A000884201D2DD622946411ACA09D97A182A0F
:1033B00042D9C90743D15A4EF062644F388804900D
:1033C00078880390B8880690F88805901B95604827
:1033D0001A901AA8FEF73CF801980446173039896C
:1033E0000140B18279890140F182FEF7E7F838881F
:1033F0000C990843388038888007FCD41398F881EA
:10340000388A43494988464FBA8A504B1B89029DE6
:103410002B4013434D4A1381FA8A4C4F7B892B4032
:1034200013437B81401A4443002800DD94E0494A5D
:10343000A118C017084091E0C80700D1B0E0384992
:10344000086B401C086300F017FDA9E09CB8FC075E
:103450006587341200A0FC07AC14000000B9FC071B
:1034600060BAFC070854FC0700BAFC077CFCF107B3
:10347000DAB9FC07B0BCFC072000800000C00000E7
:10348000000084000000282200000000000004006A
:1034900000F7FFFF7F00000030F0FF0F000000008A
:1034A0000004000000000000000000000000000018
:1034B0000000000000000000FDB9FC0750B9FC0747
:1034C000603FF20754B9FC07B055FC0758B9FC0738
:1034D0008054FC07B0B9FC07B1B9FC07D9B9FC07A7
:1034E0005CB9FC0760B9FC0764B9FC0768B9FC0764
:1034F0006CB9FC0770B9FC0748B9FC0744B9FC0774
:103500004CB9FC07C8FEFFFF00020040FFFF1F0090
:103510000868FC07508EFC0700B0FC0754BAFC0793
:10352000208DFC07B4BAFC071062FC07A050FC0712
:103530000031005000330050E86100001001FC072A
:10354000030004F8F14CFC07FC000040001500509B
:10355000010400002BFDFFFFD1482018D1495BF783
:1035600067FD85091935C34908797F280FD0281AC6
:1035700041B2C9114840401A40B2052808DBBD4F8E
:10358000386B401C386300F077FC3946C14F0D7131
:10359000039878800698B8800598F8800498388059
:1035A0005DF7BEFBAF4FB04A179BB249BE4C119DB1
:1035B0001380C87C002808D132202146FEF72CF960
:1035C000AC49179BA84A1398C874538072B6AF4889
:1035D00000790228159802D0A8480068806A1A90DD
:1035E0001089C00700D039E158F7D3FFA149179BD4
:1035F0009D4A002800D131E1A448C078012800D0BC
:10360000B1E0169FB88AC00700D095E09F480088B7
:103610000028944F00D0A6E0A448806A002803D078
:1036200096480068806A1A9000F046FE97488178B4
:103630001AA859F7A6FD00288B4A179B8D4900D17F
:1036400091E02869400600D58DE0904881781AA85D
:103650004AF774FA8749179B834A002800D182E011
:103660000298FF308C4A118801400D980143118067
:103670001A98002806D0296A814A8918DA2901D8BF
:10368000401E1A90F248008C7B4AD16808181061DD
:10369000E86B874B18400843E863E86B85490840AE
:1036A000516989020143E963E86B77490840116970
:1036B00049050818E8631A9A7F488242169F00D38A
:1036C00000BEE349086F496F00235BF7C5FC09039F
:1036D000000D411868484069821C8A4200D0481E8B
:1036E0006A4909794A1E914146F73EF97348C06A12
:1036F00080471299286B0842FCD05B4A0D99614BB8
:1037000018680842FCD018680899884318605089E6
:10371000452804D846215181081ACD4908643EF74E
:10372000D4FD584A9068CA49C86310680006FCD5A1
:1037300038890899884338812C4655480178388A59
:103740000F9D28433882554A106828431060474A25
:103750001089139B98431081788A012905D1099912
:10376000884378822FE030BF78E0099C204378823C
:10377000788A28437882FEF7F3FF139B788A2043E8
:1037800078823B4807990162EFF3108083F3108839
:103790003988089A91433980002802D083F3108831
:1037A00002E0002080F310880D99788D08422F4A9E
:1037B000119C09D00B2000F0BFFD139B2B4A9349AD
:1037C000C88D1843C8850D9900203883788D08422C
:1037D00007D18E4908880E9F3843109FB843169F23
:1037E0000880108C0E990843109988431084B88C77
:1037F0009843B8840D20FDF7BFFB788913990843DF
:103800000C998843788178894006FCD50A9878809D
:10381000B88AC0061449179A00D50A80274630BFD7
:103820001698808AC00600D54A8078490888109A80
:1038300010430B9B184008800C49088C104318401B
:10384000088400F05DF8179B074A144C20680F9914
:1038500088432060C5493D46134C024F62B6149818
:1038600038806EE5003100500033005004030050F2
:103870000000F407208DFC070868FC0758B9FC0716
:10388000C8FEFFFF00020040FFFF1F0054BAFC0704
:10389000B4BAFC07001500503830005010ED00E0BD
:1038A000D5020000AA050000F14CFC0774BEFC071D
:1038B00000FCFFFFFF03E0FF40420F0058BFFC0782
:1038C00010B569210D48415C143000228A4206D2AD
:1038D0000368041F246823600830521CF6E710BDFB
:1038E00010B568210548415C00228A4204D218C8FC
:1038F0001C600030521CF8E710BDC046CC8BFC07A2
:10390000FEB5414DE88CC00510D4032000F014FD35
:103910003E48C18D01220A43C285E98C4907FCD586
:10392000018820220A4340218A430280384839A175
:1039300018225BF7E1FB3DA03F491CC81CC1FDF705
:10394000CEF83E483E490160EFF31080012484F335
:103950001088298840220A432A80002802D084F354
:10396000108802E0002080F310883648018836492C
:103970008A8980231A438A81344A0B2515800822BC
:1039800002920A8000268E808A899A438A810322C5
:103990008A8184830684868474488663047217024D
:1039A0001D222C4D204639462346A84705200422D7
:1039B00039463346A8476D48037C63400720019091
:1039C00039463246A84706200F2231463346A847DB
:1039D00017220094029C204639463346A847092501
:1039E00018222846394633461A4EB0471A4E0198D7
:1039F000B0472046B0472846B04718480188009A8B
:103A000011430180FEBDC04604000050520000502A
:103A100020000840F99DF00700000000E3A1F10735
:103A2000000000004FA4F107000000000D05FC0796
:103A30003B08FC074B09FC07C000FC0700000840DE
:103A4000070010007C11005000110050C011005000
:103A5000208DFC07E110FC075111FC070C030050FE
:103A60000549884200D000BE04480188044A11403C
:103A70008918091D018070471111111112000050A1
:103A8000FC7F0000F8B504460026234F302E0FD0EF
:103A9000BD19E88AFD2801D1064969605DF72EFC51
:103AA000002803D082682846214690471836EDE763
:103AB000F8BDC046A453FC07B0B50025164C00283D
:103AC00026D1012D26D8FF20E082002020606060F2
:103AD000A060E060206110202843C0B2A08221468F
:103AE00059F787F918346D1CEBE7E08A5DF706FC9F
:103AF000002802D04168204688470020E0816060AD
:103B0000A060FF20E082207D59F7CDF918346D1CAC
:103B1000012DEAD9B0BDC046388CFC07B0B5D04DF8
:103B2000E978012921D11249002803D008884007EB
:103B3000FCD402E00888400717D40023EB70C88843
:103B40008988000444181F204006492122465FF757
:103B500087FC2867696764214143080CA86405480D
:103B60006043800B401C40082865B0BD208DFC07D9
:103B7000001600501111010010B5F24C0820207001
:103B80001120FDF7F9F90320607010BDFEB5624801
:103B900003250570614C20461438016814220A433D
:103BA0006B218A430260A06A5D4988610020C0439E
:103BB000A06220683F21884320602068594908405E
:103BC00020606068584908400121019189020291F2
:103BD000401860606068402101433020814361608B
:103BE000A069524908400B2149064018A061A0690C
:103BF0004F49084069024018A061A069182101439B
:103C000027208143A161432020714A4880474A48C8
:103C100080474A48804740480570009548480668F4
:103C20004848804748488047206848490840F1058F
:103C3000401820603B4E403620683040490C401808
:103C40002060412727716068374908400299401871
:103C500060603848804738488047384880472E4859
:103C600005703748056837488047374880472068DF
:103C700036490840E9054018206020683040490C6A
:103C80004018206027716068274908400299401851
:103C900060602848804728488047284880471E4859
:103CA00000990170264800682168284A1140C20521
:103CB0008918216021683140254D0540A801081868
:103CC00020606068019988436060154EB069A06209
:103CD00020681C2101432320814321602068114971
:103CE00008402060A0691149084007218906401852
:103CF000A061A0690E4908400F21C9014018A061C8
:103D0000A0691E21014321208143A1610D48804704
:103D10000D488047F586FEBD051000401830004074
:103D20000868FC07FF7FFFFFFFF9FFFFFFFFFFC0F1
:103D30003FF0FFFF691EFC07311FFC075B0FFC070C
:103D400088300040451EFC07470FFC07FFFF7F003F
:103D5000FF01000070470000F0B58BB03022002159
:103D600081541F221204344B1D68954301246204C0
:103D7000AA181A60324B334D4561334D334E344FE0
:103D8000344AC261066243622C4A8262C562324A88
:103D900007604260E004C74A136883431360282920
:103DA00003D001A84154491CF9E72C480068403071
:103DB00001A928225BF7A0F9C24D6C73FFF7DCFE66
:103DC000FFF78EFDFFF77CFD00F07EF900F03EFC72
:103DD00000F06AF8FFF7DAFEEC722248008807214B
:103DE00001402973FDF74CF8FDF772FEFDF784FEE4
:103DF0001D490B881D4804681D4A1440E3180360E0
:103E00001C4B1C88856915402C1984615B88C4692A
:103E10001440E318C3614B8A046A1440E318036238
:103E2000898A436A134059184162A448022181706B
:103E3000002101800BB0F0BD74000040A53EFC07DE
:103E4000A13EFC078D3FFC07713FFC071913FC07DF
:103E5000493FFC074B3FFC07553DFC074CB9FC07AD
:103E6000208DFC07B81000401030004088A0FC07EF
:103E70000000FFFF6430004080B5FFF77DFEFFF7D4
:103E80001FFD00F021F900F0E1FBFCF7F9FFFDF761
:103E90001FFE8A48022181700021018080BDC0463A
:103EA00000207047704700000E4908880E4A024003
:103EB00001204302D2180A8041057E4A13688B43D1
:103EC0001360810700224A671F2212044B6F93433D
:103ED0004004181848670868E02202431020824313
:103EE0000A60704738300050FFFC000080B51F208A
:103EF000000401218A07536F834348041818506750
:103F000010680721884310600D48018808220A4381
:103F10000280FFF731FEFFF7E3FCFFF7D1FC00F072
:103F2000D3F800F093FBFFF7BFFFFDF7E5FD634813
:103F300002218170002101800520FCF7C9FF80BDAE
:103F40000800005004100040704780B5E62800D3F8
:103F5000E620282800D82820F9214A0042437D2065
:103F6000C10010465BF74EF87F38C0B280BD00003C
:103F70000548016807220A430260012080044D4978
:103F80000A6882430A60704730000040022902D06C
:103F9000012900D000BE002802D0FF2804D000BEB6
:103FA000022901D10C207047D948407B002800D05D
:103FB00009207047F8B53F480168C90703D0016878
:103FC00002220A43026001240168490203D5A105C7
:103FD00002680A43026027026502374900950846D5
:103FE00008380668002E63D0300606D580200860A9
:103FF00049F74DFCFDF796FD2F49B00704D5022087
:10400000086045F742FB2C49300714D508200860AA
:10401000FCF728FD3D4627460024204645F7EEFAEA
:1040200025490420F14A90720220244A907014809D
:104030003C462F46009D3E4204D00F60012045F7CC
:10404000DDFA1D492E4203D00D6049F789FC1A495B
:10405000700604D54020086045F7CBFA1649F006F3
:1040600004D51020086043F787FE134970070FD569
:104070000420086012490888A043088059F724FAF0
:104080003EF7DEFAFDF74EFD0B490020EF4A907235
:10409000F00707D00C6059F733FA49F7F8FB0649E7
:1040A000EA488472B0069AD52020086000BE96E7E0
:1040B000F8BDC04600020040180000400410004057
:1040C00008330050208DFC07FCB57F2000025A4ABF
:1040D000516981430B20000208185061106880B2BA
:1040E0005649401810609069554C0440012358030C
:1040F000009020189061032001900002146B04438B
:104100001463908F10240443948790881843908000
:104110004C484D4A02604D4A104610384C4CA58B15
:10412000054015204301E8185030A0836069494DCF
:104130000540494828186061A069484D054009209C
:1041400040022818A0612068454D054045482818C0
:1041500020606068444D0540444828186060A068AD
:10416000434D054043482818A060E068424D054093
:1041700042482818E060F448407B002802D1C12062
:10418000400100E03E483F4D2860052080023E4F40
:104190003880401DB880388C55260643AA208643B7
:1041A0003E84FF266C363046C9303885374908468C
:1041B0000E30B88536483886B986C01D38873548F0
:1041C0002085A06B3449014034480818A063344C62
:1041D0002680208F10401F462037C0192087314885
:1041E000018811408919D531018081881140C91891
:1041F000818001891140C91901812136A6802A4890
:1042000001881140C91860310180818A19220A434E
:1042100006218A438282A88F244901400098081809
:10422000A88723480168019A114304229143016041
:1042300020486866FCBDC0462030004000008888E9
:10424000FF00FEFF8000004059055C071FFCFFFFD8
:10425000042000400000E0FF09581A00FEE1FFFFC3
:10426000E0E000000809294900000303696A686C5E
:10427000031FFFFF70600000E0E0E0E00B0A0A08A7
:10428000201800090010004028130040260A0000F2
:1042900051080000070F00002F64E0FE101A06010D
:1042A000001200404412004088120040FF9F0000AE
:1042B0008010004050015001F8B5642013490E5A97
:1042C000DD4FBC6C304660431249401812495AF722
:1042D00099FE054638843C3666430E4830180E4930
:1042E0005AF790FE001D0D49C8602818C01D48618E
:1042F000974A1278022A01D111304861FEF79CFAE0
:104300000749401880B259F709F9F8BDCC8BFC0772
:10431000208DFC0720A1070040420F000868FC0721
:10432000E20400000D480188890918220A4000882B
:104330008004400F8018704708490A88084B1340D2
:10434000F822024092011A430A800A88054B134062
:104350004007800C181808807047C0465400005071
:10436000FFF90000FFC70000F8B50C461F4B197895
:10437000002902D08021597004E01D490022CA7032
:104380001C490A70012C01D0042100E002211A4AC4
:1043900015888E5A5A8C632A03D818A05CF7AEFC95
:1043A000F8BD072151436F1C784305224243104654
:1043B0005AF73EFE7908091AB942084600DB38462A
:1043C000002900D50020094B8119A94200D9C91B39
:1043D000012C01D0102200E00E22074DA9521F66C9
:1043E000012C01D19865F8BDD865F8BD208DFC077A
:1043F00054BAFC07B4BAFC07083400505B4552526B
:104400004F525D20566261742064697669736F72E1
:10441000206E656172207A65726F20283C313030E1
:104420006D5629200A0D000010B52820824C205E10
:104430000121FFF799FF2A20205E0221FFF794FF58
:1044400032200349FDF7E8F9A07410BD208DFC0768
:104450002944FC07B0B5124CA07C002803D0FDF71E
:10446000F1F90020A0740F490A88012082430A80D4
:104470000D490A8808239A430A802178002902D02E
:104480008120607003E00949C87009490870094C2F
:10449000094D2046A84709A0A8472046A847B0BD17
:1044A000208DFC07223400500400005054BAFC0751
:1044B000B4BAFC07A45AFC07FD0CF2075B50574D39
:1044C0002044495341424C455D2050574D206F7563
:1044D00074707574206F66662E200A0D000000004F
:1044E000FEB5194A1378002B02D08023537004E0E4
:1044F000164A0023D370164A1370012901D00424F0
:1045000000E0022402916421642800D3084601904F
:10451000104D2A88561C70435AF774FD07466053A5
:104520000D480E4CA0470298451C0D482946019A9B
:10453000A0470CA029463246A04715A029463A4676
:10454000A0470548A047FEBD208DFC0754BAFC07D4
:10455000B4BAFC0708340050A45AFC07FD0CF2075B
:10456000865EFC075B50574D204F4646534554200E
:10457000434825755D205265616420706572696FDE
:104580006420636F756E743A20256C75200A0D00E7
:104590005B50574D20434F4E54524F4C20434825BB
:1045A000755D2043616C63756C61746564206F6632
:1045B0006673657420636F756E74733A20256C752D
:1045C00020636F756E7473200A0D0000704770478A
:1045D000024801884906FCD57047C04614110050B6
:1045E00017480188012291430180704710B5124B92
:1045F00000249C8358639A6319831049082008603B
:10460000BFF34F8FBFF36F8F0D490A880224144305
:104610000C800A88802414430C80197A4A1E914128
:10462000C907FF221206074B1C68944361181960E2
:104630000549086010BDC046208DFC0780E100E000
:104640000411005000E400E000E100E018B5084863
:10465000016800910099074A009B1A40FF24240436
:104660000C40D9B20919044BC9181143016018BD97
:104670008000004000FF00FF0A000A00F0B58BB088
:104680000C460F49884200D17EE00E49884247D04F
:104690000D49884200D081E16088C11E092900D9F6
:1046A000C1E049007944898849008F440F007701AF
:1046B00077016A0177017701DD00770177014E010B
:1046C0000D0C000004FD00000AFD0000F2485CF73C
:1046D00015FBF24F387C012800D159E108AE0025C6
:1046E0003580A288A11D30465AF706FD3488EC4873
:1046F00021465CF703FB002C00D17FE1012C00D0A8
:1047000049E1042058F7BCFB032800D043E1E54809
:104710005CF7F4FA6420E449FDF77EF8054675E19C
:1047200060880F2839D0022867D1FC485CF7E6FA88
:10473000FB4D287C012800D12AE1FD203EF743F8FB
:104740000146F84804220A2358F754F921780C222C
:104750004A43F5498918897A0170618841800221AC
:10476000818000218171E98CC171090A017258F7B9
:104770005CF9CE48EE4CA047E98CCD48A047E88CC8
:10478000C1B2020ACB4836E0E348022519462B465F
:1047900058F730F9A188018042E0E0485CF7AEFAB2
:1047A000DF4D287C012800D1F2E0FD203EF70BF818
:1047B0000146DC4804220A2358F71CF921780C2210
:1047C0004A43D9498918897A017061884180022158
:1047D000818000218171698CC171090A017258F7C9
:1047E00024F9D248D24CA047698CD2A0A047688C4B
:1047F000C1B2020ADCA0A047CDE0CA48082519468C
:104800002B4658F7F7F821780C224A43C6498918F5
:10481000897A0170618841800021818080218171C5
:1048200058F703F9BAE0102800D0B7E0BB485CF7AE
:1048300065FABB4E307C012800D1A9E00AAD00200A
:104840002880A288A11D28465AF756FC2988B184E1
:10485000D3485CF753FAB08C012800D1DBE0002884
:1048600000D098E0D04894E0AC485CF747FAAC48F8
:10487000007C012800D18BE0A1880A2900D0ADE09E
:10488000E07B0690A07B0490607B0390207B0790E8
:10489000E07A0190A67A2589E488D548A44FB847E4
:1048A000E1BA20BA020C0592D248B847E9BA28BA50
:1048B000040CD1482246B847D048029631463246C9
:1048C000B847019800020799401801B2079082B2D8
:1048D000CB48B847039800020499451829B2AAB2F8
:1048E000C848B847C848069E31463246B8478B4844
:1048F000B847012702983946FFF7F2FD02213046FA
:104900000691FFF7EDFD0598001B04B27D20C6005F
:10491000B44200DB3446BD48844200DC04462046F5
:104920003946FFF721FD0798401B05B2B54200DB71
:104930003546B648854200DC054628460699FFF70D
:1049400013FD77484585048528E074485CF7D6F95F
:10495000734E307C01281BD009AD00272F70A28830
:10496000A11D28465AF7C8FB90485CF7C7F92C7878
:104970008F48214622465CF7C1F9022C31D39A4870
:1049800007E066485CF7BAF9654F387C012807D123
:1049900082485CF7B3F961485CF7B0F90BB0F0BD41
:1049A000A188042925D120890790E579A479984820
:1049B0005F4EB047974821462246B0479648294661
:1049C0002A46B047079841BA944807910A46B0472B
:1049D000032C01D8022D20D39948DAE783480A2214
:1049E00009E0012C14D1307800281CD08020707090
:1049F0001DE07E4804225CF781F9CCE791485CF722
:104A00007DF9787C0028C6D0FCF71CFF7D74C2E7D6
:104A1000FFF720FDBFE76348BBE7387800281ED0CA
:104A20008020787020E06348C7706348077063484F
:104A3000018808220A43028032206149FCF7ECFE1B
:104A4000B0746048018801220A430280334C384D1B
:104A50002046A8475CA0A8472046A8479BE75548A2
:104A60000021C170544801700799544803880322FB
:104A7000934323430380534F388808229043EA0628
:104A8000120E02433A803888042290433880012D68
:104A900012D07D20060210E0A45AFC07208DFC07EE
:104AA000B55EFC07BF5BFC078926FC07A95CFC0719
:104AB000E05DFC07B95FFC07594E5A4A914200D3AA
:104AC0001146E640022900D8022107913046069699
:104AD0005AF798FA014630460E465AF793FA401EA6
:104AE0001A3F38800D48124FB8474F48214622469A
:104AF000B8474E4829462A46B8474D4807990A46BE
:104B0000B8474C480699B8474B483146B847034820
:104B1000B8474A48B8473EE70E0C0000A45AFC07C5
:104B2000208DFC0705FD0000988DFC07A05DFC07AB
:104B3000FD0CF2075B424C45202D20424154544568
:104B4000525920564F4C544147455D204261747480
:104B500065727920566F6C746167653A20257520FF
:104B60006D56200A0D0000005B424C45202D20426E
:104B700041545445525920564F4C544147455D20AD
:104B80004C53423A203078253032582C204D534235
:104B90003A203078253032580A0D0000105EFC07AC
:104BA000DF5EFC07515DFC071E5DFC073C5CFC07FB
:104BB0004958FC0754BAFC07B4BAFC07040000507B
:104BC0002944FC07223400505B50574D20454E418C
:104BD000424C455D2050574D206F757470757420A0
:104BE0006F6E2E200A0D0000845DFC070E5AFC0734
:104BF000845CFC072A59FC07CC58FC079D57FC072E
:104C00005959FC07FB58FC07C957FC0718FCFFFF64
:104C1000605CFC07A258FC07F557FC07BC59FC0771
:104C20000024F400FF3F00007858FC071F58FC07E1
:104C30008859FC07925FFC076C5FFC07EF5CFC0780
:104C4000EB5BFC07935BFC07B0B50C2141430848C4
:104C50004018807AFF2801D1FCF76EFD054C064D07
:104C60002046A84705A0A8472046A847B0BDC04693
:104C7000988DFC07A45AFC07FD0CF2075B424C45DB
:104C80005D2050686F6E6520636F6E6E656374653E
:104C90006420746F20444131343533312E200A0DA5
:104CA00000000000B0B5FCF747FD044C044D204661
:104CB000A84704A0A8472046A847B0BDA45AFC07AF
:104CC000FD0CF2075B424C455D2050686F6E65201D
:104CD000646973636F6E6E65637465642066726F7A
:104CE0006D20444131343533312E200A0D0000004F
:104CF000F8B5052002242146FDF702FC414D288825
:104D0000012738432880FDF7B3FBFDF7A3FC3E4E97
:104D100070842888B8432880708C317C3B4D0029F2
:104D20000BD03235A8421FD90020307438485BF7C9
:104D3000E5FF718C38482A4611E0A84214D2377436
:104D4000707C002803D0FCF77DFD00207074FFF715
:104D500081FB2F485BF7D2FF718C2E482B4A5BF703
:104D6000CDFF2E485BF7CAFFB08C012826D1042066
:104D700058F786F8032821D1718C29A0304DA84717
:104D8000307C002801D131A100E02EA131A0A8473C
:104D9000708CC1B2020A3CA0A847FD203DF713FD6C
:104DA000014642480422082357F724FE84800F213D
:104DB00041804770718CC18057F737FE32203C49E3
:104DC000FCF72AFDFFF7AEFA80003A4909583A4845
:104DD0001B4CA04739480078411E4A424A410228EC
:104DE00000D10246900036A109583848A047B16D5D
:104DF0003748A047F16D3748A047316E3648A04785
:104E0000F8BDC04600150050208DFC073A07000091
:104E1000485AFC07005BFC074A5BFC074057FC074D
:104E20005B5556505D204261747465727920566FEF
:104E30006C746167653A202575206D56200A0D0057
:104E4000FD0CF207747275650000000066616C73FA
:104E5000650000005B5556505D2053797374656D95
:104E600020756E646572766F6C7461676520736817
:104E70007574646F776E207374617475733A20254E
:104E800073200A0D000000005B5556505D204C5306
:104E9000423A203078253032582C204D53423A2067
:104EA000307825303258200A0D00000006FD000041
:104EB000F14CFC07D04FFC07615EFC07B4BAFC075D
:104EC0004260FC075F60FC079860FC07E659FC073E
:104ED0000A5FFC072B5FFC074C5FFC0702E008C879
:104EE000121F08C1002AFAD170477047002001E064
:104EF00001C1121F002AFBD170470000034880F354
:104F0000098800F025F8FBF703F9C0466070FC073C
:104F100004207146084203D0EFF309800A4908478C
:104F2000EFF308800849084770470420714608429B
:104F300003D0EFF3098005490847EFF308800349E0
:104F400008477047FEE700005912FC07C111FC0733
:104F50001A498888072290438880052000078A899B
:104F6000D2070DD0098800290AD115490A8802857F
:104F70004A88828489880184418A124A0A4042828E
:104F8000114906220A800121CA03104B1A60BFF39F
:104F90004F8FBFF36F8F02221A60BFF34F8FBFF3A3
:104FA0006F8F1960BFF34F8FBFF36F8F418904225A
:104FB000914341810021018062B670470403005093
:104FC000A000FC077FFE00000034005080E100E0FC
:104FD0003361FC07F360FC077361FC07BB60FC07EF
:104FE0004361FC070361FC078361FC07CB60FC079E
:104FF0005B61FC071B61FC079B61FC07E360FC072E
:105000006361FC072361FC07A361FC07EB60FC07FD
:105010004B61FC070B61FC078B61FC07D360FC074D
:105020005361FC071361FC079361FC07DB60FC071D
:105030006B61FC072B61FC07AB61FC07B360FC07ED
:105040003B61FC07FB60FC077B61FC07C360FC075E
:10505000B86D36FFEA30B9A7BE4148EE9644FFFE70
:10506000F05D4D6FB66A9B983342B3F2F60F2FC8CE
:10507000422D1B1C460226B4D04A1ED525F9C32D4D
:10508000FBBE45C72FEF80AEA54A0C5EC05FB1CC1A
:10509000358C6830BB00EC89464B67F2C4A7F4FE40
:1050A00000000000B050FC07708CFC0704000100F9
:1050B000B850FC0701000000FFFF0000A932F20712
:1050C00002140000791EFC07010D0000E122FC071C
:1050D000000D00009922FC07000E0000F520FC07DF
:1050E000010E00001921FC07030E00008521FC07BA
:1050F0000A0E0000C921FC070C0E00008522FC07E7
:105100001C0D00000D23FC07100D00009122FC0770
:105110000F0E00006D22FC072C0E00006522FC071C
:10512000120C00001D23FC07080E00007522FC076E
:105130001B0E00007D22FC079118FC070919FC07D3
:10514000B118FC07E918FC07C116FC071516FC0787
:10515000F8000000130E00009120FC07150E00005F
:10516000711FFC07170E0000C521FC07190E000077
:10517000AD21FC07150D00008D22FC07210D00005C
:105180001923FC07220D00001523FC0708000490DA
:105190000000000000000000030005D08B0035F087
:1051A00010005CF0000010B0000018B000001AB051
:1051B000030051F0000038B000003AB0000064B0C5
:1051C000000066B0000022B0000024B0010005D04D
:1051D000000000000A00008008030490000004F0B2
:1051E000030006D0000000000A00008008030490BD
:1051F000000004F0030006D000000000032800288F
:1052000002290129FD0000003C52FC0712000000A9
:10521000E115FC0700000000000000000000000095
:10522000FF0000000000000000000000000000007F
:10523000000000000000000000000000FE51FC071C
:10524000100000000100000010001000F753FC07E0
:10525000FC51FC07020000000100000000000000FB
:10526000000000009050FC07100000000102000048
:1052700002800000000000000052FC070200000055
:105280000900020002000000000000000252FC07BA
:1052900002000000010000002A002A00EB5FFC076A
:1052A000FC51FC07020000000100000000000000AB
:1052B000000000006050FC07100000000800020021
:1052C00004000000000000000252FC070200000081
:1052D000010000001B001B00CB61FC07FC51FC0718
:1052E00002000000010000000000000000000000BB
:1052F0008050FC0710000000080002000A000000B7
:10530000000000000252FC07020000000100000043
:1053100026002600E761FC07FC51FC0702000000A4
:105320000100000000000000000000007050FC07B9
:105330001000000008000200010000000000000052
:105340000252FC07020000000100000017001700D5
:10535000B361FC07FC51FC070200000001000000E3
:1053600000000000000000005050FC07100000008A
:105370000102000002800000000000000052FC0753
:10538000020000000900020002000000000000000E
:105390000252FC0702000000010000002B002B005D
:1053A0001660FC07AC53FC0709000000130C00005A
:1053B0004B29F207150C00002523FC07170C0000F1
:1053C000572BF207000C00002328F20706FD00000F
:1053D0005728F20703FD00003728F20708FD0000F8
:1053E000B328F2070EFD00000F29F20705FD0000AB
:1053F000CD1BFC07001201EE8F7A37CC565DAAED6B
:1054000040A0F0C294E0D60001000001B509FC07FD
:1054100001000002A50AFC070000000000000000D7
:10542000F4011700F4352348F40108C4140A0000FD
:10543000140000008916FC0700000000FF000000B7
:10544000000000000000000014000000ED14F2074E
:10545000FD0000002126F207FF0000000000000010
:10546000E116FC073116FC072C62FC077D46FC07A1
:105470003851FC07A08DFC07A48CFC07718CFC073D
:10548000050000006070FC07000400005C92FC074F
:10549000AC020000508EFC07000400001495FC07CD
:1054A000700500002003000000A60E0004000000AC
:1054B000D2000000320000003C00000001000000AB
:1054C00001000000020000000200000004000000D3
:1054D00003000000060000000000000002000000C1
:1054E00002000000000000000000000003000000B7
:1054F0000300000005000000050000000600000099
:105500000A0000000A000000C8000000B80B0000FC
:1055100002000000B80B0000B80B000010000000F3
:10552000D4010000CC010000700200006A000000FD
:105530000400000001000000200000000A0000003C
:1055400001000000E20400008A020000DC05000007
:10555000AF0000002C57FC076C55FC07A055FC075A
:105560003457FC076054FC077C55FC07A8B8FC07BF
:10557000A0B8FC07B8B8FC07F8B8FC075E68FC07E1
:10558000C08BFC07C18BFC07C48BFC07C88BFC07D6
:10559000ED45FC07D145FC07451AFC07151AFC0729
:1055A000F453FC07F653FC073C52FC07451CFC0770
:1055B000593DFC07ED3EFC0793DEF007F1DEF007F6
:1055C000F9DEF00749DFF00761DFF00777DFF0076A
:1055D00099DFF00719E3F007BDE5F007FDE3F007F9
:1055E0001DE4F0073DE4F0077BE4F0078BE4F007EF
:1055F000F5F9F007B1F7F007CFF7F007EBF7F00791
:1056000005F8F00719F8F00797F8F007AFF8F0077A
:10561000DFCDF10767D0F107DBB9F007CD0DF20759
:10562000B10EF207AD0EF207A90EF2078D21F007B9
:10563000613AFC07D527FC071528FC076928FC07F9
:105640006128FC07B57EF007837DF0072501FC0784
:10565000599EF107634CF107B93AFC07D110F207E4
:10566000853AFC07B111F2074112F2077912F207ED
:1056700000000000551CFC07571CFC07B9C6F007CA
:10568000D592F107B301FC075F9DF1075F9CF1071D
:10569000C504FC07EB72F107B922F1076B04F107AF
:1056A000C91BFC072BA4F007F1D2F0075FBDF00780
:1056B000D5BDF00785BEF007DB2DF007752EF0078E
:1056C0001581F007DF7FF0070937F00700000000C1
:1056D000211EFC07291EFC078D1AFC07F3C3F107E6
:1056E00075C4F10703C5F107A51AFC070000000007
:1056F00000000000000000000000000000000000AA
:105700000000000000000000000000000000000099
:105710000000000000000000000000000000000089
:105720000000000000000000000000002054FC0702
:10573000848DFC074854FC07388CFC0702000000ED
:105740002B2B2B2B2B2B2B2B2B2B2B2B2B2B2B2BA9
:105750002B2B2B2B2B2B2B2B2B2B2B2B2B2B2B2B99
:105760002B2B2B2B2B2B2B2B2B2B2B2B2B2B2B2B89
:105770002B2B2B2B2B2B2B2B2B2B2B2B2B2B2B2B79
:105780002B2B2B2B2B2B2B2B2B2B2B2B2B2B2B2B69
:105790002B2B2B2B2B2B2B2B200A0D0A005B424C87
:1057A00045202D2050574D2056424941535D206FD2
:1057B00066667365745F31203D202575202830783A
:1057C0002530325829200A0D005B424C45202D20FF
:1057D00050574D2056424941535D206F66667365B0
:1057E000745F32203D2025752028307825303258CE
:1057F00029200A0D005B424C45202D2050574D209A
:10580000465245515D20636C6B5F737263203D208F
:105810002575202830782530325829200A0D005B64
:1058200050574D20465245515D20636C6B5F73723B
:10583000632076616C7565203D20257520283078C1
:105840002530325829200A0D005B424C45202D207E
:1058500050574D2053544154455D20737461746515
:105860002076616C7565203D2025752028307825CF
:1058700030325829200A0D005B50574D20465245C2
:10588000515D20636C6B5F6469762076616C756531
:10589000203D202575202830782530325829200ACF
:1058A0000D005B424C45202D2050574D204652455F
:1058B000515D20636C6B5F646976203D2025752007
:1058C0002830782530325829200A0D005B424C459B
:1058D000202D2050574D2056424941535D207A6576
:1058E000726F5F63616C5F31203D20256C642028FE
:1058F00030782530345829200A0D005B424C452071
:105900002D2050574D2056424941535D207A6572F3
:105910006F5F63616C5F32203D20256C642028300E
:10592000782530345829200A0D005B424C45202D43
:105930002050574D2056424941535D20766269619F
:10594000735F315F6D76203D20256C6420283078B0
:105950002530345829200A0D005B424C45202D206B
:1059600050574D2056424941535D2076626961731C
:105970005F325F6D76203D20256C642028307825CD
:1059800030345829200A0D005B50574D20465245AF
:10599000515D2070776D5F6469762028636C616D5E
:1059A0007065642076616C756529203D2025752021
:1059B0002830782530345829200A0D005B424C45A8
:1059C000202D2050574D20465245515D2070776D57
:1059D0005F646976203D2025752028307825303495
:1059E0005829200A0D005B534C4545505D204375F6
:1059F0007272656E74204D6F64653A20257320289D
:105A000056616C75653A20257529200A0D005B5793
:105A100041524E494E475D20496E76616C69642063
:105A20007061636B65742062797465206C656E6764
:105A300074683A20257520286578706563746564FC
:105A400020257529200A0D002B2B2B2B2B2B2B2BE4
:105A50002B2B2B2B2B2B2B2B2B2B2B2B2B2B2B2B96
:105A60002B2B2B2B2B2B2B2B2B2B2B2B2B2B2B2B86
:105A70002B2B2B2B2B2B2B2B2B2B2B2B2B2B2B2B76
:105A80002B2B2B2B2B2B2B2B2B2B2B2B2B2B2B2B66
:105A90002B2B2B2B2B2B2B2B2B2B2B2B2B2B2B2B56
:105AA000200A0D002D2D2D2D2D2D2D2D2D2D2D2DA3
:105AB0002D2D2D2D2D2D2D2D2D2D2D2D2D2D2D2D16
:105AC0002D2D2D2D2D2D2D2D2D2D2D2D2D2D2D2D06
:105AD0002D2D2D2D2D2D2D2D2D2D2D2D2D2D2D2DF6
:105AE0002D2D2D2D2D2D2D2D2D2D2D2D2D2D2D2DE6
:105AF0002D2D2D2D2D2D2D2D2D2D2D2D200A0D0053
:105B00005B5556505D2053485554444F574E2054D2
:105B10005249474745524544212042617474657299
:105B20007920766F6C7461676520282575206D5625
:105B300029203C205468726573686F6C64202825A6
