:0200000407FCF7
:10000000F86DFC07054FFC07194FFC07334FFC0741
:100010004D4FFC074D4FFC074D4FFC074D4FFC0764
:100020000000000000000000000000004D4FFC0731
:1000300000000000000000004D4FFC07F312FC0719
:100040000510FC076D3FFC07A526F007F512FC071D
:100050002112FC074D4FFC07C90FFC074D4FFC0751
:10006000D50FFC074D4FFC07AD10FC07B710FC0780
:10007000C110FC07CB10FC07D510FC074D4FFC0747
:100080008913FC074D4FFC074D4FFC074D4FFC07F4
:100090004D4FFC074D4FFC074D4FFC074D4FFC07E4
:0800A00000008E070E000000B5
:0200000407FCF7
:100110000348854600F040FF004800479128FC074F
:10012000F86DFC07F8B50746012000230246009051
:100130001946032049F766F9044602218030017010
:10014000FF4DFE482A6843881146FF31F7310B8680
:1001500080884886FB48066A0123DB069E431E43CF
:100160000662FF320020FF32383250829082D08205
:100170001D200882F4484884F448C882F448088363
:1001800000204882384649F77DFC01462868FF3048
:10019000F730C28B920992010A43C283ED4841684D
:1001A00000208847002C02D0204648F714FD204646
:1001B000F8BDFFB58BB0064616980027022821D05F
:1001C0000D9801881498814278D371880846403888
:1001D0003F2802D8159855F711FD0C98361D008858
:1001E000149A80190E995EF787FF0C98018814986D
:1001F00008180C9908800D9801881498081A0D9910
:1002000008805CE100200E9D079069782C78090237
:1002100021433180E978AC780902214371808C4612
:10022000403904242D1D024603468E46402900D342
:100230002878614604291FD0052914D0062918D032
:1002400070463F283DD8159855F7D8FC0006000E9B
:1002500004D0C148008D0006C00F30D00223012019
:10026000BE4A002712E0697800290FD0BC4A172344
:100270000CE0BC4A0F2309E0522802D0D22802D059
:1002800002E0142000E01520B74A1F23002A1AD0EC
:10029000984218D2800010580490002813D00020F3
:1002A0000890059070884038402803D328780524AA
:1002B00030716D1C701D00900498B5E0FEE0302791
:1002C000F0E03327EEE07088042872D10627E9E0D9
:1002D000522862D00CDC4B283FD004DC41286AD085
:1002E000422858D111E04C2820D0502853D140E06A
:1002F000632830D004DC572818D061284BD19BE00C
:100300006C2864D0772846D109E0009829780170DC
:100310000098641C401CA4B26D1C009081E00498FD
:10032000401C04900178089881427AD10098A41C5E
:10033000401C41084900881C009068782A78000217
:10034000104308800599AD1CA4B2002969D008901B
:100350000020059065E00120FBE710222946009867
:100360005EF7CAFE009810341030A4B21035009029
:1003700057E0204640301499039088420BD8402221
:10038000294600985EF7B8FE009840300090039828
:10039000403584B245E0342743E0082229460098DE
:1003A0005EF7AAFE009808340830A4B20835009021
:1003B00037E068E0FFE70622294600985EF79CFEDA
:1003C0000098A41D801DA4B2AD1D009029E01498D2
:1003D000001B80B203903088001B001D81B20120F9
:1003E00007900498401C04900098401C400840006E
:1003F00000900498007857281CD04228CBD1009850
:100400000170090A417000982946801C0090039AE7
:100410005EF772FE03980399201884B20098401882
:1004200000900498401C0490007800281ED0002FF3
:1004300017D01BE04908E2E71498001B81B200982E
:100440000391401C40084000009001200A4607909C
:10045000294600985EF750FE0399601884B2009810
:10046000DDE70D990988A14200D331E70D98008896
:10047000A04208D304990978002904D107990029DA
:1004800003D1A04201D034270CE00D99001B088055
:100490000C9801880098801B001F08180C99002FE9
:1004A00008800CD07088042809D0062807D040386E
:1004B000402804D30E984079707100E03427384604
:1004C0000FB0F0BDFFB581B01F4616460C46104672
:1004D0005CF7D6FC00257F2802D02189062909D0A7
:1004E0003B4632462146019855F71BFF05462846F4
:1004F00005B0F0BDC00601D50225F8E72078002838
:10050000F5D1300AA11D42F7A4F8F0E7F1B598B093
:10051000189842F79CFA0446189805210079134A66
:100520004006C00F099068460184618B08460A386E
:10053000904276D2E08A062873D319E030BCFC07DB
:100540004CB9FC07C00000401080000029410000A9
:100550007671000058BFFC0748BEFC073803F2075D
:100560004003F2079C03F207D803F207770C000060
:100570001922D201904254D8228BFF23F5339A429C
:100580004FD8521C9300D2184243521C0A235210D7
:1005900059438A4245DC217F00290CD1617F002923
:1005A00009D1A17F002906D1E17F002903D12021B3
:1005B000095DC90635D0274620377978C906C90EA6
:1005C000491F0C292DD2A18A81422AD8E17C002919
:1005D00027D0421E082A01D9082000E0401E81428F
:1005E0001FD8684646F7F4FA00281AD1FE4D0622B5
:1005F000286221460AA85EF77FFDA8792E46803E34
:1006000000287DD06079800901280BD00AA80999BB
:100610004CF7ADFD010003D03820405C002870D0BD
:100620009BE008E1F06A807A012808D0042806D00F
:100630000AA84CF709FE286200284ED054E0686AE8
:1006400006220AA932305EF77BFD002806D00AA8F0
:100650004CF7FAFD2862002802D012E0686AF9E738
:1006600000210AA84CF706FE2862F16A897A01295E
:1006700005D18B071A6849068A430A431A60002885
:1006800011D0F16A286A0622253010315EF758FD34
:10069000002808D1286AF16A2030C07AC97B8842D4
:1006A00001D1286A1EE0D148D1490088C96880B2CA
:1006B00006225043081842F7CFF9014614A8062233
:1006C00002305EF719FD13AA00213C2042F791FC8D
:1006D0000121B06D47F7B8FEA9E011A90AA84CF7AF
:1006E000C9FD2862002838D00146253106220FA80E
:1006F0005EF702FD286A08AA2030C17A0FA801E03F
:1007000041E024E04CF716FC002812D0286A203083
:10071000C07A002809D16846B649008C4BF77DFBAA
:1007200008AA0121B3484CF705FC68460AA9008CC9
:100730000AE008AA012111A84CF7FCFB00280CD004
:10074000296A6846008C32314BF77DFB05E00A18B8
:10075000527D002A08D010286DDBF06A407A02280A
:1007600006D0032804D00EE0401C1028EFDBF4E78D
:100770006846008C052806D308AA0AA809994CF7F0
:10078000D9FB002857D00022694620464CF77BFC55
:10079000002850D1F06A407A02280BD0032809D0F3
:1007A0000023684602880AA809994CF78DFC0028A6
:1007B00002D02FE00123F4E7E18A68460181218B12
:1007C0004181618B81817878062241096846817573
:1007D0007878C106C90E6846417521460E305EF72D
:1007E0008BFC189800794006C10F68460175038894
:1007F000214602A8B26D47F7CDF90146B06502A8BF
:1008000042F745FC0020B065214668461C3100884F
:1008100046F731FA49F7B0FA734C2034207A0028B1
:1008200005D0002109205CF76EFC00202072002119
:1008300008465CF710FB19B0F0BDF8B56E4C0646E3
:1008400085000F4660594C21095C24290ED140696E
:100850001022791D2E305EF74FFC61592520403162
:10086000087300221146304654F71BFB60594C2197
:10087000095C0C291FD140691022791D2E305EF7CA
:100880003BFC60595F214069095C09072DD4014692
:100890002E3110221E305EF753FC00280CD0605918
:1008A000092140300173304655F718F801460022FF
:1008B000304653F775FEF8BD0421684601706A465C
:1008C0000521304654F716F8684601786020014348
:1008D00068460170304655F701F8014668460278CF
:1008E0000123304653F771FFF8BD304654F7F6FF49
:1008F000012809D0605907214030017300221146B8
:10090000304654F7CEFAF8BD615900204969C0312C
:10091000887160590421426930461E3253F7EAFF5C
:10092000605941694031897F002907D01A21403040
:1009300001730021304654F73EFBF8BD1B214030C7
:100940000173304654F78CFBF8BDF8B52A4C0546C8
:100950008600A0594C22125C192A11D140224D3038
:10096000491D5EF7C9FBA059402224494D305EF76E
:10097000E7FB002805D02149284620395BF74BFDCD
:10098000F8BD0B21684601706A460521284653F7D9
:10099000B1FF68460178602001436846017028462F
:1009A00054F79CFF0146684602780123284653F716
:1009B0000CFFF8BDFFB581B003980C46060A002570
:1009C0005CF75EFA002827D0132825D0142823D0FE
:1009D0000B48B700C0592030407BC00637D503987C
:1009E0005CF74EFA15280DE030BCFC0768B9FC072F
:1009F00060BBFC0750F5F1073CBEFC07FCBDFC07E3
:100A000078BBFC070CD0A07942F714F8304647F7C2
:100A1000AFF8032806D015E0A07942F70BF81FE0E5
:100A200002251DE03248C0592030407B400704D5E4
:100A30003D21304642F7FCFC04E03D2200213046D7
:100A400042F705FD3D21304646F7DAF808E020463A
:100A5000103828490181468120464EF7C3FD012503
:100A6000284645E524485222006864308188C37EC8
:100A70005143224A12688918FF225F32525AFF31CD
:100A8000120AD21A01310B8CD2B2DB0B09D00B8CBB
:100A90005B045B0C0B84002A03D18088184A012177
:100AA00011547047FFB51746140A81B0104A0298D6
:100AB000A100515840780026114D002907D0295D2A
:100AC000002905D0002803D1204643F715FF2E55F5
:100AD0003A46049B0299019844F79FFE08E50A48AC
:100AE000084901600949416070477047704700003C
:100AF00078BBFC070608000084BBFC074CB9FC0768
:100B0000C98BFC070459F007C0000840490C00BF1E
:100B10007FB5E4486B460188428889186A4611808F
:100B200001214C0022181546403DED8F065B52888E
:100B3000AD19AA18491CC9B21A530729F1D38189E2
:100B4000C089081881B2D981D888002821D0188995
:100B5000002820D0988800281FD0588900281ED04F
:100B6000988900281DD0588800281CD000291CD046
:100B7000188800280BD00720062254001C5B8C42EA
:100B800001D22146D0B2521E52B2002AF5DA04B088
:100B900070BD0320FBE70420F9E70220F7E70520FA
:100BA000F5E70620F3E70120F1E70720EFE7F0B5CE
:100BB00095B0EFF310801090012080F31088BA48B0
:100BC000816B4A07520F69460A800A92816B0122A3
:100BD000C908C9008163B5498B8869464B800224E6
:100BE000B24B00219980C16A09078B0F69468B803F
:100BF0000F93C16A0C2399430831C162052109078B
:100C000009880906CB0F6946CB800521090709939E
:100C100009888023194305231B071980A449898A61
:100C20004906CB0F69460B81A1490893898A402365
:100C300019439F4B9982016A09074B0F69464B8103
:100C40000C93036A0E218B4303629B4D99486860A5
:100C5000FF204030A8602888A0432880974841683A
:100C60000B071B0F69468B810B934168090909012A
:100C700008314160416849064B0F6946CB810D93AD
:100C8000416870239943603141608748403801686A
:100C90008904CB0F69460B820293036841140B430E
:100CA00003600168CB07DB0F69464B820E93016836
:100CB0001143016041688903CA0D69468A82039223
:100CC0004168CA05D20D6946CA82049281688903C7
:100CD000CA0D69460A8301928168CA05D20D694628
:100CE0004A8305924168764A11400322D20389184B
:100CF00041604168490A4902FF31413141608168E0
:100D00006F4A11400322D203891881608168490A21
:100D10004902FF3141318160642000F02DF9A8893A
:100D200069468007C00F8883A8892043A8810024D2
:100D3000604F288800260121084328800A2000F0FF
:100D40001BF9FF205F4941303A680A4200D0761C07
:100D5000401E3F1D0004000CF6D1A88A8004FCD17F
:100D60005149886B671CC208D2007807400F0243C4
:100D70008A630A2000F000F960004A49FCB20E5272
:100D8000082CD5D348480A99826BD208D2000A436E
:100D900082636946454A498891800F998A00C16AF1
:100DA0000C2399431143C1620999CA01052109071E
:100DB000098880239943114305221207118008995D
:100DC0008A013B49898A402399431143384A9182D9
:100DD0000C994A00016A0E23994311430162374876
:100DE0000B994268120912010A4342600D99426848
:100DF000090170239A430A434260029841032A483A
:100E00004038006801225203904308432649403984
:100E100008600E9809684908490001432248403893
:100E20000160039842022048403840682449084045
:100E300010431D4A403A506004985268520A5202C8
:100E400002431948403842600198174A4002403A2C
:100E500092680A400243144840388260124905985B
:100E600040398968490A490201430F484038816086
:100E70001098002800D0012080F3108815B0F0BD34
:100E800010B5114C2078002808D0FFF790FEFFF72E
:100E90003FFE0E4908700020207010BD02F052FE87
:100EA0000120F9E79065FC07801000400012004027
:100EB000203000509060FC0700350050402000407A
:100EC000FF01FCFFC0C0C0C02B8DFC07298DFC07B3
:100ED00010B5FF22154901320A60BFF34F8FBFF3EF
:100EE0006F8F13490A6013490B6840241B0A1B02C9
:100EF00023430B601049898A0021C30700D03521A4
:100F0000830702D57D231B021943430702D57523AE
:100F10001B041943000702D53D2000060143064883
:100F20002038016301488038026010BD80E100E094
:100F300080E200E008E400E0A010004010B50620C8
:100F400000F01AF810BD10B5092000F015F810BD1A
:100F500010B5812000F010F810BD10B5044800F065
:100F60000BF810BD10B5034800F006F810BD0000E6
:100F7000010200000108000000280CD000BF00BFE3
:100F800000BF00BF00BF00BF00BF00BF00BF00BF69
:100F900000BF401EF0D170471CB5094800900948B9
:100FA000019005460126009C05E0E36807CC334329
:100FB0000C3C98471034AC42F7D3FFF7ADF8000073
:100FC0005C60FC078C60FC070148012101807047D0
:100FD0000E1500500A48011F0988CA0706D002886A
:100FE00007239A43E64B5B7A13430380490706D5F0
:100FF000018807229143E24A127B0A43028070472C
:10100000B8100040B0B50520000701883022114318
:101010000180038803210B430380204B1C88640755
:10102000FCD403889343038003888B430380D44C10
:10103000E38B4380238C9D1E194B5D8007251D800B
:1010400005881543058005880D4305801D886D07BB
:10105000FCD403889343038002888A430280428938
:10106000920702D042898A434281018980220A4341
:101070000281018A042291430182818A8907FCD579
:1010800041F74FF9E06B07490860074801684907D5
:1010900000D500BE01684907FCD5B0BD083300503B
:1010A00000160050080200401000004080B50A20E1
:1010B00000F050F880BD80B50B2000F04BF880BDEB
:1010C00080B50C2000F046F880BD80B50D2000F002
:1010D00041F880BD80B50E2000F03CF880BD0000D6
:1010E000FEB5019302920091064601270021384681
:1010F00032465EF745F8154A53680B4015680540BF
:101100001D4300D100BE53680B4015680540019C8B
:10111000002C06D01D4300D100BEB7400C4D2F80DF
:1011200005E01D4300D100BEB740094D6F805368F4
:101130000B4011680140194300D100BE029800998C
:101140000143700028188180FEBDC046988DFC07C1
:1011500002300050F0B503460A3B01210A469A408E
:1011600093B20B4D5C19661C5E400A4B1C8800272D
:101170002E4203D07F1C7608B6B2F9E79443BAB288
:101180000D46954025431D80814052480160F0BDC9
:10119000FEFF01000E140050F8B5044601273E0280
:1011A00005200507688DC00506D51B2003F0A0F8B3
:1011B0004A48018839430180803628884001304000
:1011C000698A474A0A4002436A82216813480160DB
:1011D00061684160A1688160E168C1602169016165
:1011E00061694161A1698161E169C16104623E494E
:1011F0000A6842624A6882628A68C2624A69026315
:10120000CA68426309698163334808210180A88A5A
:10121000C00600D4FEE700BEF8BDC0460090FC0743
:10122000024800882B481021016070472C130050A1
:10123000F8B5044605200507288A042101432982C0
:10124000288940210143298122480127076022483B
:10125000082101803E02688DC00506D51B2003F0E1
:1012600047F81E48018839430180803628884001AC
:101270003040698A1A4A0A4002436A822168194842
:10128000016061684160A1688160E168C1602169B5
:10129000016161694161A1698161E169C1610462C2
:1012A00011490A6842624A6882628A68C2624A696F
:1012B0000263CA68426309698163A88AC00600D4D0
:1012C000FEE700BE688A094908404018001D688290
:1012D000F8BDC04680E200E00033005080000050BE
:1012E0007FFE00005090FC0728ED00E0FC7F00002E
:1012F0007047704770B5214CD64D224EA1880F2003
:101300000840022809D0042804D00C2820D0012845
:10131000F4D132E003F06CF9F0E72A8BA88B90420D
:101320001DD2696B9042E9D2A288C0231340C02B22
:1013300003D13288920703D4E0E7228A9206DDD5F2
:10134000421CAA83085C221F10802A8BA88BE9E725
:1013500003F04EF92088012188432080CEE72088C1
:101360000221884320802088802188432080A96B27
:101370000029C3D0288B8847C0E770BD04110050F6
:10138000208DFC077C1100500521080702883023BE
:101390009A430280028803239A43028082881205BE
:1013A0000DD5184A13880B40052B08D1108804214D
:1013B0000143118010880121884310807047818883
:1013C000C90606D510498A88D20702D00A881206B3
:1013D00010D48088C0060CD50B488188890708D5B1
:1013E0000188C90505D5022181800188074A0A4084
:1013F00002807047012088800888802290430880FE
:101400007047C0460002005000010050FFFE00007F
:101410005748018802220A43028001888907FCD4C8
:101420000121C181008A7047FEB5514C0021218005
:101430000327FD012946903161804026A6805C2269
:101440004C498A5AA281A289324330239A43A2810D
:10145000494A1660BFF34F8FBFF36F8F002800D14A
:1014600081E0019702952288B2430578AB011343CE
:101470002380E78870229743437819013943E1803C
:10148000002D05D1E1880725A9431B090B43E38003
:10149000C1784B1E9941890023880425AB430B4337
:1014A000238001790902A388DBB25918A180E18861
:1014B0001140324F40292DD162202E49085A002870
:1014C00000D131483149488001200003218801437F
:1014D00021801920FFF750FD029A104680302188A4
:1014E0000143218020883043208060882843608029
:1014F00060882749014061800F20400261880143D4
:10150000618040376088384010436080608801996E
:10151000884327E021881A4A0A40228081781029CE
:1015200000D300BE6288174B134049021943618003
:101530006188019A914342790A4362808179002946
:10154000029A01D10A4600E08032218839401143D5
:101550002180C079082800D300BE40376188394017
:101560008001084360802088012101432180FEBD65
:1015700000150050CC8BFC0780E100E0FFFD00006F
:10158000FFEF0000FFE1000040760000A065FC07CF
:10159000FF1F000006480188064A114001235B0234
:1015A000C918018041881140C91841807047C04660
:1015B0000815005000FCFFFF70B5364809210424CF
:1015C000182322465BF716FA05461B202870FD26D5
:1015D000304662F761F80021A982E96029616C60F8
:1015E0006E80687028465BF720FA70BD1FB5144600
:1015F000002202920192069A00921A46234661F74F
:1016000077FE04B010BD000010B51248817B124A6D
:10161000CCB20C236343D45CFF2C06D0D318491CF6
:1016200081735B68002BF3D00DE0C17B0B4ACCB219
:101630001C236343D45CFF2C08D0D318491CC1730E
:10164000DB68002BF3D09847002010BD0021C1813A
:10165000012010BD208DFC070454FC079C51FC07A1
:1016600070B50C48092104240A2322465BF7C2F90D
:1016700005461B2028701426304662F70DF8FF211E
:10168000743129816C606E80687028465BF7CDF9F3
:1016900070BDC0461B0D00001FB51446012202920A
:1016A000044A0192069A00921A46234661F720FEE8
:1016B00004B010BD5850FC0770B5124D2C68002CBA
:1016C00019D11148092104222C235BF793F9044610
:1016D0002860172020840D48208000266680204640
:1016E0000A3011215DF721FD2685E6846684E683B4
:1016F000A6832020E07620465BF797F9002028603B
:1017000070BDC0466C8CFC07040D0000030A00008D
:1017100070B5184D2868002823D1174809210422E4
:1017200052235BF767F90446286000268672134847
:10173000E080A0800D2020801622E272FF20083079
:10174000208120460C300EA15DF7D6FC2B202654BC
:1017500020462B302C3418210F4B224661F7DAFE3D
:1017600028685BF762F900202860042002215BF7FB
:1017700072FB70BD688CFC070D0D00004C0400006E
:1017800003030A181107EE8F7A37CC565DAAED4095
:10179000A0F0C294E0D60000A85FFC07F8B5009264
:1017A0000D468100104A56585418002E0AD10102E5
:1017B0000A310E4804271E233A465BF71BF90646FA
:1017C00007702060B71C102138465DF7AEFC384624
:1017D0002946009A5DF790FC0120707030465BF757
:1017E00024F900202060F8BDA08CFC07140E000036
:1017F000B0B5024679483830002423460A2B0BD076
:101800000568002D02D0001D5B1CF7E701605C1C21
:10181000E0B2114600F084F9E0B2B0BDF8B504467C
:10182000401E09281BD8A0006C494718786B002877
:1018300017D06D4DA84214D0343766482018401C8C
:10184000042631465BF75FFC3D6008236148314662
:1018500032465BF7CFF804705BF7E7F8F8BD00BEDF
:10186000F8BD00BEF8BDC0461FB514460E22029258
:10187000044A0192069A00921A46234661F738FDFF
:1018800004B010BD6050FC0710B5014601200A4AA3
:10189000914210D3121D91420DD8029CF231C8B270
:1018A0008100064A5058002803D0511800220A60CF
:1018B00080470020207010BD0E040000888CFC07BB
:1018C0001FB5144607220292044A0192069A00921A
:1018D0001A46234661F70CFD04B010BDEC50FC071E
:1018E000B0B50C46AA49884234D0394A90421DD03E
:1018F000384988423FD12078401E09285BD88000B3
:10190000DF4909188A6B384B9A4256D034488242D4
:1019100058D12F48042108230A465BF76BF8217839
:101920000170616841605BF780F84BE02078411EF0
:10193000CAB2092A3DD88900D14A5218936B284D62
:10194000AB423FD13832274B59581160616800F0E3
:10195000E7F837E06268002A01D100BE62681E48DD
:10196000824201D300BE62682078194940180421E0
:101970005BF77FFB26E0531C0121984225D30A32F6
:10198000904222D8C1B2091F8A00BD498B18996BB9
:10199000002917D0124CA14214D0134CA14211D0EF
:1019A0003833C01E0F4C0025A5501D60C0B28847BB
:1019B00008E000BE06E000BE04E03831094A00231A
:1019C00013500B600498002101700846B0BDC0465A
:1019D0000304000002040000FDFF3F00988DFC0797
:1019E000DF45FC07F88DFC07DD45FC07C84881781A
:1019F000491C81700178002900D070476649002396
:101A0000CB7017490A780B70012A01D0012100E040
:101A10000221022A00D1032101707047BC4881785D
:101A2000002904D0491E8170090600D07047417812
:101A3000002904D0002242700322114003E0017803
:101A40000029F3D0491E00220270481EC0B20128AE
:101A5000ECD851480122C270014801707047C0465D
:101A6000B4BAFC07B0B50C460025202D04D040F7D1
:101A700046FF60556D1CF8E70020B0BD10B5044668
:101A80000548064970225DF737FB0548001B0549EC
:101A900008801430488010BD70A0FC072451FC075A
:101AA000B8A0FFFF78A0FC0710B507480188074AD7
:101AB0001368114C23405918116040885168214027
:101AC0000818506010BDC046183000408CA0FC07BC
:101AD00010B507480188074A1368074C2340591876
:101AE00011604088516821400818506010BDC04600
:101AF0003830004098A0FC070000FFFF07481E2177
:101B00004180018803220A430280018804220A439B
:101B100002807F480121C1707047C0460016005006
:101B200070B50C46054619490888000618480ED5B8
:101B3000184A126812040AD4174A1288D20706D12A
:101B40004019801C042122465BF793FA70BDEFF325
:101B50001083012282F310880988090603D40F49F3
:101B60000E8816430E80002B02D082F3108802E00C
:101B7000002181F31088042108230A465AF73AFF0E
:101B8000446005705AF751FF70BDC0460800005010
:101B9000010400003000004054BAFC070833005034
:101BA0007047000070B514460D4610465BF768F9A3
:101BB00001282ED1287801020831AA791648002A76
:101BC0000CD089B2062322465AF714FF0646A8789D
:101BD00060F72CFC3080A879307113E0AA8889B2B4
:101BE000921D93B222465AF705FF0646A87860F781
:101BF0001DFC002131713080AA887280701DE91DA2
:101C00005DF77AFA30465AF710FF002120465BF75D
:101C100022F9002070BDC046140C0000FD2801D040
:101C200000207047004870479C51FC077047704780
:101C300010B5044640793F280FD840F760FE207069
:101C4000010EE170010CA170000A607040F757FEB0
:101C50002071000AC0210143617110BD80B5FFF7FA
:101C600057FD80BD4E49C98E0180704780B54C49F3
:101C70000A7D0270401C15315DF73EFA80BDC046FA
:101C8000988DFC077D21C180002181801021418039
:101C9000082101807047000070B504467A20604337
:101CA000EB4A16184D7835773046143008210A462D
:101CB00061F756FB102D04D8B01C1022294661F79D
:101CC0004FFB40F71CFE70823078012101433170D8
:101CD000204600F0C3FD317F0177718A4182F18A8D
:101CE000B28A738B358B058343838282C182B11C98
:101CF000801C10225DF700FA204600F0AFFD5AF775
:101D000094FEA000024908180021416570BDC0463C
:101D1000208DFC0770B581000D4A54585518002CD1
:101D200010D101020A310B4804221E235AF762FE29
:101D30000446012606702860801C074907225DF7CB
:101D4000DBF9667020465AF770FE0020286070BDEF
:101D50009C8CFC07140E00005460FC0780B561F7F2
:101D6000AFFB002801D0FFF7D3FC80BD10B50C46B7
:101D7000017801290BD000290ED14288F64B1A7543
:101D80001533011DD2B218465DF7B6F902E040885E
:101D9000F149C886002000E04820207010BDC046F0
:101DA000988DFC07E0B54A78032A14D87A44127952
:101DB00052009744010A030708A104E00649009174
:101DC000694605E0891C102203E00349019101A93D
:101DD0000422FFF7E3FC8CBD40E201000001020396
:101DE0000405060708090A0B0C0D0E0F0020888059
:101DF000488001200870704780B55FF7BDF880BD4E
:101E0000F8B56946C870020A8A70020C4A70000E62
:101E1000087008465FF798F88FBD000080B5494804
:101E200000210160FFF794F8444800781F21490120
:101E3000414A13688B43C006800DC018106080BDF6
:101E400080B53F4802210170FFF778F880BDC04699
:101E5000F8B51F460C46087808281CD8072500212D
:101E600000911AA6784400794000874419040C04B4
:101E700006060F0912001A4E12E00D25174E0FE04C
:101E8000062514A60CE00A2516A609E008251AA6C0
:101E900006E017A604E000BE0026012000903546AB
:101EA000AB1C184839465AF7A5FD0746207838700C
:101EB0007D700098002804D1B81C31462A465DF791
:101EC0001BF938465AF7B1FD0020F8BD52656E6522
:101ED00073617300FFEEDDCCBBAA0000105FFC074E
:101EE000085FFC07312E302E302E302D4C4500007F
:101EF00001D2008005000100123456FFFE9ABCDEBC
:101F0000000000000314000080B50B48016889053B
:101F1000C90E0A4A11701F21490102688A430260F2
:101F20000748012101700748016803220A43026043
:101F3000FFF70EF880BDC0464C1200408C60FC07D5
:101F400006100040AC10004070B50C78A51E052DA1
:101F500025D81C0A7D442D796D00AF440231202321
:101F6000414F7A2060433A4A15188878782168549E
:101F7000C0070DD00C206043AF490E1831460D311B
:101F80002846713006225DF7B7F8307B7721685418
:101F90000C206043A84908180021C17440E002F0F9
:101FA00075FB3DE07A256543294C60193A30891C60
:101FB00017225DF7A1F8605D0421014361552FE010
:101FC0007A206043224908187821002242540C20CC
:101FD000604399490818C274204661F7D1FA1FE09E
:101FE0007A2565431A4E70196130891C10242246E7
:101FF0005DF782F8705D2043705511E07A206043F0
:10200000134A15188B1C488A00280BD028461E300E
:102010001C2219465DF770F82878022101432970C7
:10202000002070BDA81C1C2219465DF765F82878B1
:1020300001210143297007A05EF760FE112008A46A
:10204000461EEDD0295C20465EF758FE3046F7E785
:10205000A48CFC07200D0A204C544B3A2030780009
:10206000253032780000000080B50A78072A23D88E
:10207000180A920001A39A589746C0469D20FC0773
:10208000B920FC07B920FC07B920FC07BD20FC07DC
:10209000C720FC07C720FC07C320FC077A21414367
:1020A0003D4A002353540C214143634A51180122F5
:1020B000CA74FFF72FFE06E000BE04E0FFF772FED1
:1020C00001E0FFF7E9FD002080BDC04610B50C78A7
:1020D000012C03D0092C09D04C7802E04C78432C19
:1020E00002D0002C00D000BE02F0D0FA002010BDBB
:1020F000F8B51C4610460D465AF7C2FE022828D1F4
:10210000240A00D000BE0C2060434B490F18BC725B
:10211000FF2C1AD008370126FE70042003215AF73D
:102120009AFE28883880687A3871781D0A35062228
:1021300029465CF7E1FF7A206043174908187821A7
:10214000415C2046324661F7CFF9204602F0C4FDDB
:1021500000E000BE0020F8BD988DFC0710B51C46BD
:1021600010465AF78DFE032809D1200A0C2141435D
:1021700031484018FF21418102F0DCFD00E000BE43
:10218000002010BD180A7A224243034880180978BB
:102190007822815400207047A48CFC0700207047EF
:1021A000F0B589B01D461446087802282CD00128C5
:1021B0001FD000283AD101AE202130465CF7B5FF90
:1021C0001D490F7D153130463A465CF795FF3B4679
:1021D0000A331848294622465AF70CFC0446478021
:1021E00000202070201D31463A465CF785FF2046CE
:1021F0001AE01148C68E0F480A23294622465AF78C
:10220000F9FB468001210EE00A480A2329462246AE
:102210005AF7F0FB7D2101810021C18010218180CE
:1022200008214180022101705AF7FFFB002009B00C
:10223000F0BDC0460B0E0000988DFC0780B560F71E
:10224000FBFF80BD80B560F7D7FF80BD80B561F72B
:102250000EF880BD80B560F722FF80BD80B560F7C5
:1022600091FF80BD0020704780B560F70BFF80BDF7
:1022700070B50C78172C0FD80125A5400D4E3542AE
:1022800001D0002070BD012C09D0032C04D1487866
:10229000002809D000BEF4E702F0F8F9F1E7487829
:1022A000002804D000BEECE7FFF758FDE9E7FFF790
:1022B00003FAE6E700F08E0010B510465AF7E0FD8D
:1022C000002801D000BE09E00548092104220124AC
:1022D00023465AF78FFB04705AF7A7FB002010BD66
:1022E000020D000080B560F76EFF80BD00207047D2
:1022F0000020704780B560F7ACFF80BDF0B589B0B5
:10230000039316460C46FD205EF772FF02900028EC
:1023100000D100BE08A900270F70208860F794F84C
:1023200005466088002800D000BE002D78D1FD2031
:10233000FFF774FC002800D100BE0399090A009140
:1023400008A90A7814215143436859180B79022BC4
:1023500024D109680988394B99421FD10020059082
:102360000490208860F70BF8002800D100BE07A970
:10237000002204AB4EF7F8FD01204002079901400E
:10238000480A21465FF7E6FFC5B2002D29D1E28851
:1023900008A80178009860F7B8F922E001968669EC
:1023A000002E3D4606D0A5886188A31D10462A460A
:1023B000B047054605970497208804A94EF74FFBC0
:1023C000002D019E0DD108200499085E002807D435
:1023D0006288A1882088A31D4EF7ABFB054600E06C
:1023E0000025002D1CD10298009F39465EF71EFF84
:1023F0000146A088801D83B2114832465AF7FAFA86
:102400000546801DA288A11D5CF776FE08A800780D
:102410006880A088A8802F7028465AF706FB002500
:1024200008480423039932465AF7E4FA8570218854
:1024300001805AF7FAFA002009B0F0BD0229000025
:102440000AFD0000160C0000F8B5204CFEF7E0FF76
:1024500082490A88120707D48A1E12884023134033
:1024600006D02246563205E0224660325E3406E04F
:1024700022465A32002B01D0543400E05834002652
:10248000A35F945F072292010D881540954204D006
:102490000988C905490F0622561A00960C4F784341
:1024A000DD1929465CF7AEFD06467C4320462946E9
:1024B0005CF7BEFD311AB942084600D33846054ADA
:1024C000914200D900200099C840F8BDCC8BFC0790
:1024D000FFFF0000FEFF0100F0B587B005A904264C
:1024E000CE7101258D7103234B7100220A71CA70D0
:1024F00002938B7048700D700846FEF795FF774C7D
:1025000060880821884360802088404901402180FC
:10251000A08840273843BF218843A080608830438B
:102520006080FFF737F86088000700D500BE20887C
:102530000490608803900020FEF776FF60883043A7
:1025400060806088324901406A0288186080208873
:102550003049014021802E0260883043C021014370
:10256000618020883843208020892B4908408018CA
:102570002081608908400092801860812088802135
:10258000014321802088B0432080FEF741FF21884D
:102590003143218002994E0280094000371AB8B2B7
:1025A0002946850A880201903F2080020290FEF7AA
:1025B0002FFF002D00D000BE19492289029B1A402E
:1025C0003A4322814009154A1040301A019A90423C
:1025D00000D300BE62891A4002436281208808400D
:1025E0002080FEF715FF81090F4A904202D800981B
:1025F000401A01E00B480818082800D300BE0498D0
:1026000020800398608007B0F0BDC046FFEF000057
:10261000FFE10000FFFD000000FCFFFFFE070000DF
:10262000FFFE000000FEFFFF3F8000000721890140
:102630000A4A13880B408B4201D1102103E0118814
:10264000C905490F0A31128803231340E122920081
:1026500053439A185043C84080B270470215005047
:10266000F8B502242046FFF737FF1C4D28880127C4
:1026700038432880FFF7E8FEFFF7D8FF2238184ECE
:10268000F0842888B8432880FD2040F79CF8014654
:102690001448042508232A465AF7ACF9848044805C
:1026A0004770F18CC1805AF7C0F928465AF7E8FB09
:1026B000032804D164200C49FFF79AF870740B4C7E
:1026C0000B4D2046A847F18C0AA0A847F08CC1B258
:1026D000020A10A0A8472046A847F8BD00150050E0
:1026E000208DFC0706FD00006126FC07ED59FC0764
:1026F000FD0CF2075B4144435D2053656E736F72BE
:1027000020566F6C746167653A202575206D5620E0
:102710000A0D00005B4144435D204C53423A203097
:1027200078253032582C204D53423A2030782530CD
:102730003258200A0D00000070B5EFF31085012417
:1027400084F3108805200607708DC00507D501F0B9
:10275000C5FD114908701148008820404870308834
:102760008021014331800E480168072291430160B6
:1027700041684907FCD53188090600D400BE0949E3
:10278000016109494161002D02D084F3108870BDB8
:10279000002080F3108870BDA065FC078000005009
:1027A0000000F4070F009909090404A470B5174E3E
:1027B000B06800F02DF834490A6C00230B6415183A
:1027C000084C284621465CF71DFC706106494143D0
:1027D000481901D0201A80B23061306808210143C5
:1027E000316070BD710200008FFDFFFF80B50648AB
:1027F0000021016001F03CFD0120C00703490A6887
:1028000082430A6080BDC046A8B9FC073000004082
:1028100080B50246C00B09D01B48006D00210B4655
:102820005CF71AFC8905800A401880BD1648006DC7
:102830004243900A80BDC04680B5FFF7E9FF80BDE6
:1028400080B51149896C41430248081802495CF778
:10285000D9FB80BD20A1070040420F0010B5014602
:102860008000094A1418606D002800D010BD54344F
:1028700009020A31054804221E235AF7BBF8FF213A
:1028800008310180206010BD208DFC07140E00006F
:1028900000B59DB0A549C82014900880002048804C
:1028A000A34908224A80A34C1A901A98002812DCE7
:1028B0000020199019991A980B290ADC30214143FC
:1028C0006018199989004018002181621998401CEC
:1028D000EFE7401CE8E71792E16B0020C3430122B9
:1028E00000291592174600D01F467A01F64D2E6832
:1028F00016436A6816922E601197FF0E00291E4635
:102900001A4600D10E467101C919169B1943696018
:10291000E16A0029159F3B4600D013461393DB0F55
:1029200000291692164600D10E467100C9186A6831
:102930000A4329686A60139A52000A432A60616C4C
:1029400000293A46169E00D032461292530E0029B4
:1029500000D10E46F101C9186A680A4329686A6005
:10296000129AD2010A432A60236C002B3946169E24
:1029700000D031468F0E002B00D11E46B201D21975
:102980006B6813432A686B608B0113432B60A76C41
:10299000002F159B169A00D013461E0E002F00D153
:1029A0003A46120292196E6816432A686E601E0239
:1029B00016432E60139AE262119AE263216412991F
:1029C0006164A364E16C0029159F00D0169F7A0210
:1029D0002E6816436B682E60FE0D0029169A00D1F2
:1029E0000A465102891919436960E76468602860E2
:1029F0001A901A98002837DC0020199019980B2893
:102A00002FDC19981A990B282BD830201A9941439A
:102A10006118199A92008918896A491C00D100BE70
:102A20001A9941436118199A92008918896A0029F4
:102A300014D01A9948432018199989004018806ABF
:102A4000C117199A5CF79CFB1A9A12015CF798FB64
:102A50006A680A4329686A60014329601998401C22
:102A6000CBE71A98401CC3E7A44F388818AC2080E5
:102A70002088C046C046208804211591C9430842D9
:102A800002D00020388003E0B88901218843B88152
:102A9000179BB88B9A49014007200990C00208187B
:102AA000B883984C208818432080E08D06229043FC
:102AB000E0850126B003B98B0143B9832088924990
:102AC0000140218060880392104398436080052074
:102AD000129000071690418D8C4AFF32E08D104015
:102AE0007D22D2000F2311931B03C9050192049389
:102AF00022D4032149020843E085E08D1843E08594
:102B0000B88B17998843B883B88B04218843B8835E
:102B100060887F4901406180E08D3043E085334625
:102B2000169E708D4007FCD520E0C0460031005055
:102B300000330050F88DFC0710181830E085E08D48
:102B400074490140F0030818E085B88B17990843D1
:102B5000B883B88B15998843B883E08DB043E0857E
:102B6000B88B40218843B8833346169E18020D90D7
:102B7000B88B03210F910843B88320882021084394
:102B800040220E92D24310402080388C109108438E
:102B900010403884F08A8021089108431040F08268
:102BA000308EFF21059188433086308F159C20435D
:102BB0001821079188433087308FA02101430B9261
:102BC0001140318754480480B08854490140B18095
:102BD0001393180452490860FFF7AEFD514B186873
:102BE000099908401AA908700878022820D0708D29
:102BF0000D99084213D001F071FB0A2802D80B206E
:102C000001F076FB3F48C08DC007464B07D13D49D8
:102C1000C88D139A1043C885708D4007FCD518687D
:102C20000221014312988143196058684007FCD57E
:102C30003D480068C1B20C20AA29014600D0159970
:102C40003288824388183080C046C04637480068C2
:102C5000374909886823374C002206920A93E252CA
:102C6000354B1A466432918058661398C046C04668
:102C7000324F381F00683249884200D04FE1119826
:102C80000407042000210291119403463918081FFB
:102C90003A46EC32904200D345E115930068199012
:102CA000199B234009200407199AA3425CD1199B60
:102CB0001F0AFEB2D2B2531E162B00D9F6E003A4AF
:102CC0005B00E35A5B009F44988DFC0709010901F2
:102CD000F1000901F1003D00B400F100F100F10044
:102CE000F100F100F100F100F100F100C9009600DF
:102CF000DE008F00F100EB00AA00C0460403005084
:102D0000FFC3000052000050FFBF000000F0FFFFB3
:102D1000FFF90000FF0F000000020050FFF7000065
:102D200080E200E00000F407D07FF807D47FF807C6
:102D3000D87FF807CC8BFC07208DFC07D47EF807E2
:102D4000A5A5A5A5BE4C32460A9EA05DC0002018D0
:102D50000C9292005CF7D0F9A05DC019A055C0B2EA
:102D6000052879D300BE77E0900F10D01998B549A7
:102D700088420CD8159B1846083031462831199ADC
:102D80008A42119C26D1D959AF4A11807DE7199802
:102D9000119C204009990907884205D10020C046AE
:102DA000C0461598001D70E7199820401399C9076F
:102DB0008842159A0CD019982040129949078842E8
:102DC00006D0199820400F994907884200D096E014
:102DD000101D5AE7B11C199A8A4200D086E0D959D1
:102DE0006622974B995250E79848159908586221E6
:102DF000934A505272E0954A159B995848439A5805
:102E0000120C801A00B2C0085A238D4CE052501A9E
:102E100081088F4A11400818401C582131E08B4826
:102E2000159908586421864A5052000456D100BEB4
:102E300054E06924824832460646005DC0003018DE
:102E400010300C9292005CF757F9305DC019305584
:102E5000C0B20D2800D300BE0C9E3FE07B4A159BFC
:102E6000995848439A58120C801A00B2C008562349
:102E7000734CE052501A8108754A11400818401CE2
:102E8000542160522AE0029CA0001AAA1018B20035
:102E90005CF732F934190294032C1FD300BE1DE0F5
:102EA0006A48159908586649086517E01E2A15D121
:102EB0000C967008624E0206CED00B684A68083144
:102EC000002427460837382F06D0341924699C423D
:102ED0003C46F7D1F319DA60401EECE7B0001599D3
:102EE0000818001D169E594F119CCEE6314624311C
:102EF000199A8A4209D1D959534A5180C5E619987D
:102F0000401C10D000BE1046BFE631462031199A51
:102F10008A4200D0B9E6D9594B4A9180B5E666207D
:102F2000245A139A38E05C201A99454C2152092002
:102F30001B9948430A0C801A00B2C0086023E05273
:102F4000501A8108424A11400818401C5E21605204
:102F50000A9AA05CC10701D000BEA05C4008A05442
:102F60006920215CCA07139A01D000BE215C490880
:102F700021546420215A002901D10199215266204F
:102F8000245A002C08D133490968C9B2AA29089CDF
:102F900000D06E242A490C522F48C483B08C904331
:102FA000B0840D201746FDF7E7FF16984089384397
:102FB000169E02210C918843708170894006FCD5D1
:102FC00074800198FDF7D8FF70890F99884370814C
:102FD00070890006FCD57F201F4908711D48806953
:102FE0001E498860EFF31084139A82F310883088AA
:102FF0000899084330801A4B18680999884318606B
:103000000D9958684007FCD5164818611648586154
:103010003088089B98433080708D08420BD00F4F4A
:10302000387801F065F9139A10497878002802D1B0
:10303000C88D9043C885002C1AD082F310881AE0FE
:10304000CC8BFC074C420050A000FC07D47EF80754
:10305000FF3F0000D07FF807208DFC07A065FC072C
:103060000000F4070F009909090404A4520000505D
:10307000002080F31088069BEA480068EA498842ED
:1030800000D0C7E0E948EA495CF74FF80998010227
:10309000E8485CF74AF8FDF729FDE748E749016091
:1030A000E748E849302211925CF726F8E648002408
:1030B000C471847144710471C470847044703F2180
:1030C00006910170E148E2A10E9F3A465CF714F8C0
:1030D000EF480470EF48F0490160F048F0490160A2
:1030E000F049F1480860F1480A210170F048159450
:1030F0000470F04832210A910170EF481299016082
:10310000EE48139E0660EE480160EE4803990160A8
:10311000ED4809990160ED48179C04600D98801DE9
:10312000EB490860EB490860EB48C049016000F0DA
:10313000D3FB2246169C208911998843208120893F
:10314000089908432081208910432081208CB043B6
:1031500020846089079988436081208938432081D1
:10316000208A042188432082A08A8007FCD5049904
:10317000FF31E08C08400B2109020143E184E08C1F
:103180003043E084608910431021099188436081B5
:10319000608CB043608420890E9988432081CF4899
:1031A0003730B40721680140216006984002CC4ABC
:1031B00011688143700308181060CA48401C1168E8
:1031C000014311609748006897498842159E119401
:1031D0003DD0C1480068C2498860C34A90681071F8
:1031E000010ED171010C9171000A50710D98C0301F
:1031F000BE4E3246002818D0401E835D11780C4622
:103200000F9F3C40B84F3C1924795C404C401470EF
:10321000521CEFE7B648B549129A5202934200D9C0
:1032200030E71A585A501B1DF6E7AF4F1C37AF490D
:103230001C2238465DF7F4FE0028159E119C00D034
:1032400000BE38465DF780FE764877490160A248A7
:1032500000683EF7FFFFA74F3E71FE7020680D9992
:1032600008432060FEF74AFC139800F033FCA249A3
:103270000878002803D0089848700C4604E0002025
:10328000F8700C469D490870AE60EE602E61079A9A
:103290002A75284615309A495BF72EFFEE860427DB
:1032A0009849384659F7A5FD0598A8720F973846F2
:1032B000314659F7D0FDE6746684A665E665266654
:1032C0006662A662267460F713FA2078002804D09C
:1032D000812060708C4F139C05E0139C8548C4705E
:1032E00086480470884FFFF781FA0520FDF7F0FD4E
:1032F00014983880854A179B53808548854908185B
:10330000854940188008401E079006988002029068
:10331000E0031290814C7849119D169800890006AF
:1033200000D431E1286B129E304200D02CE171486C
:103330000088C00700D027E10F465AF75EF8002545
:10334000284600F0C7FBB87A042800D014E113988F
:1033500000F0C0FB199519A804214AF7EFFB0028DB
:1033600000D109E113986E49086008680028FCD173
:103370001198C069604BD96A884201D2DD62294642
:10338000411ACA09D97A182A42D9C90743D15A4ED3
:10339000F062644F3888049078880390B88806906B
:1033A000F88805901B9560481A901AA8FEF73CF81B
:1033B00001980446173039890140B182798901406A
:1033C000F182FEF7E7F838880C990843388038888E
:1033D0008007FCD41398F881388A43494988464FBE
:1033E000BA8A504B1B89029D2B4013434D4A1381CF
:1033F000FA8A4C4F7B892B4013437B81401A44430C
:10340000002800DD94E0494AA118C017084091E067
:10341000C80700D1B0E03849086B401C086300F0D1
:1034200007FDA9E09CB8FC076587341200A0FC07E3
:10343000AC14000000B9FC0760BAFC07DC53FC07C1
:1034400000BAFC077CFCF107DAB9FC07B0BCFC074A
:103450002000800000C0000000008400000028223E
:10346000000000000000040000F7FFFF7F000000E4
:1034700030F0FF0F0000000000040000000000001A
:10348000000000000000000000000000000000003C
:10349000FDB9FC0750B9FC07603FF20754B9FC07BF
:1034A0008455FC0758B9FC075454FC07B0B9FC0715
:1034B000B1B9FC07D9B9FC075CB9FC0760B9FC07D6
:1034C00064B9FC0768B9FC076CB9FC0770B9FC0764
:1034D00048B9FC0744B9FC074CB9FC07C8FEFFFF1C
:1034E00000020040FFFF1F00A065FC07508EFC0794
:1034F00000B0FC0754BAFC07208DFC07B4BAFC07E7
:10350000A85FFC073850FC07003100500033005022
:10351000805F00001001FC07030004F8814DFC07E8
:10352000FC00004000150050010400002BFDFFFFCF
:10353000D1482018D1495BF77BFD85091935C3496E
:1035400008797F280FD0281A41B2C9114840401A83
:1035500040B2052808DBBD4F386B401C386300F0D3
:1035600067FC3946C14F0D71039878800698B88082
:103570000598F880049838805DF7D2FBAF4FB04AC9
:10358000179BB249BE4C119D1380C87C002808D1FE
:1035900032202146FEF72CF9AC49179BA84A139814
:1035A000C874538072B6AF4800790228159802D0CB
:1035B000A8480068806A1A901089C00700D039E1D5
:1035C00058F7E7FFA149179B9D4A002800D131E138
:1035D000A448C078012800D0B1E0169FB88AC0077F
:1035E00000D095E09F4800880028944F00D0A6E0C6
:1035F000A448806A002803D096480068806A1A9020
:1036000000F036FE974881781AA859F7BAFD0028CD
:103610008B4A179B8D4900D191E02869400600D55F
:103620008DE0904881781AA84AF788FAF749179BE5
:10363000834A002800D182E00298FF308C4A11882A
:1036400001400D98014311801A98002806D0296A7C
:10365000814A8918DA2901D8401E1A90EB48008C5B
:103660007B4AD16808181061E86B874B1840084303
:10367000E863E86B85490840516989020143E963C1
:10368000E86B77490840116949050818E8631A9AF8
:103690007F488242169F00D300BEDC49086F496F05
:1036A00000235BF7D9FC0903000D41186848406905
:1036B000821C8A4200D0481E6A4909794A1E9141FB
:1036C00046F752F97348C06A80471299286B08423E
:1036D000FCD05B4A0D99614B18680842FCD0186811
:1036E0000899884318605089452804D8462151819B
:1036F000081AC64908643EF7E8FD584A9068C3496D
:10370000C86310680006FCD5388908998843388159
:103710002C4655480178388A0F9D28433882554AEF
:10372000106828431060474A1089139B9843108102
:10373000788A012905D10999884378822FE030BF22
:1037400078E0099C20437882788A28437882FEF7C3
:10375000F3FF139B788A204378823B4807990162E4
:10376000EFF3108083F310883988089A91433980E9
:10377000002802D083F3108802E0002080F3108834
:103780000D99788D08422F4A119C09D00B2000F02A
:10379000AFFD139B2B4A8C49C88D1843C8850D99E2
:1037A00000203883788D084207D1874908880E9F0A
:1037B0003843109FB843169F0880108C0E99084319
:1037C000109988431084B88C9843B8840D20FDF775
:1037D000D3FB7889139908430C99884378817889B9
:1037E0004006FCD50A987880B88AC0061449179A12
:1037F00000D50A80274630BF1698808AC00600D5BB
:103800004A8071490888109A10430B9B1840088021
:103810000C49088C10431840088400F05DF8179B91
:10382000074A144C20680F9988432060BD493D46E3
:10383000134C024F62B6149838806EE50031005088
:1038400000330050040300500000F407208DFC07F3
:10385000A065FC0758B9FC07C8FEFFFF0002004046
:10386000FFFF1F0054BAFC07B4BAFC070015005054
:103870003830005010ED00E0D5020000AA0500002D
:10388000814DFC0774BEFC0700FCFFFFFF03E0FF57
:1038900040420F0058BFFC0710B569210D48415C3C
:1038A000143000228A4206D20368041F2468236071
:1038B0000830521CF6E710BD10B568210548415C80
:1038C00000228A4204D218C81C600030521CF8E75B
:1038D00010BDC046CC8BFC07F8B53A4DE88CC0054E
:1038E00010D4032000F004FD3748C18D01220A43A3
:1038F000C285E98C4907FCD5018820220A43402172
:103900008A430280314832A118225BF7F5FB36A0CA
:1039100038491CC81CC1FDF7E2F837483749016037
:10392000EFF31080012484F31088298840220A4391
:103930002A80002802D084F3108802E0002080F35F
:1039400010882F4801882F498A8980231A438A8149
:103950002D4A0B251580082200920A8000258D80B3
:103960008A899A438A8103228A8184830584858493
:103970006C488563047217021D22254E2046394685
:103980002346B0470520042239462B46B0476548F8
:10399000037C6340072039462A46B04706200F22A1
:1039A00029462B46B0471722009839462B46B04788
:1039B0000920182239462B46B04716480188214372
:1039C0000180F8BD04000050520000502000084063
:1039D000F99DF00700000000E3A1F10700000000DE
:1039E0004FA4F107000000000D05FC073B08FC0791
:1039F0004B09FC07C000FC0700000840070010004E
:103A00007C11005000110050C0110050208DFC07A7
:103A1000E110FC070C0300500549884200D000BEAD
:103A200004480188044A11408918091D0180704723
:103A30001111111112000050FC7F0000F8B504466E
:103A40000026234F302E0FD0BD19E88AFD2801D162
:103A5000064969605DF752FC002803D08268284659
:103A6000214690471836EDE7F8BDC0467853FC076D
:103A7000B0B50025164C002826D1012D26D8FF20F0
:103A8000E082002020606060A060E0602061102083
:103A90002843C0B2A082214659F7ABF918346D1CF7
:103AA000EBE7E08A5DF72AFC002802D04168204657
:103AB00088470020E0816060A060FF20E082207DD8
:103AC00059F7F1F918346D1C012DEAD9B0BDC04683
:103AD000388CFC07B0B5D04DE978012921D11249C5
:103AE000002803D008884007FCD402E0088840077B
:103AF00017D40023EB70C8888988000444181F205D
:103B00004006492122465FF7ABFC286769676421BC
:103B10004143080CA86405486043800B401C4008E2
:103B20002865B0BD208DFC07001600501111010062
:103B300010B5F24C082020701120FDF71DFA03206B
:103B4000607010BDFEB5624803250570614C2046CB
:103B50001438016814220A436B218A430260A06A68
:103B60005D4988610020C043A06220683F218843EE
:103B70002060206859490840206060685849084022
:103B80000121019189020291401860606068402122
:103B90000143302081436160A069524908400B21F4
:103BA00049064018A061A0694F49084069024018C1
:103BB000A061A0691821014327208143A16143200E
:103BC00020714A4880474A4880474A4880474048D1
:103BD000057000954848066848488047484880472F
:103BE000206848490840F105401820603B4E4036A7
:103BF00020683040490C40182060412727716068D8
:103C00003749084002994018606038488047384872
:103C10008047384880472E48057037480568374840
:103C2000804737488047206836490840E9054018F2
:103C3000206020683040490C40182060277160687F
:103C40002749084002994018606028488047284862
:103C50008047284880471E48009901702648006820
:103C60002168284A1140C205891821602168314025
:103C7000254D0540A8010818206060680199884317
:103C80006060154EB069A06220681C2101432320AA
:103C9000814321602068114908402060A0691149D2
:103CA0000840072189064018A061A0690E49084014
:103CB0000F21C9014018A061A0691E2101432120E4
:103CC0008143A1610D4880470D488047F586FEBDC0
:103CD0000510004018300040A065FC07FF7FFFFF83
:103CE000FFF9FFFFFFFFFFC03FF0FFFF411EFC0792
:103CF000091FFC075B0FFC07883000401D1EFC07F6
:103D0000470FFC07FFFF7F00FF0100007047000026
:103D1000F0B58BB03022002181541F221204344BA5
:103D20001D68954301246204AA181A60324B334D72
:103D30004561334D334E344F344AC26106624362AB
:103D40002C4A8262C562324A07604260E004C74A78
:103D5000136883431360282903D001A84154491CE8
:103D6000F9E72C480068403001A928225BF7C4F924
:103D7000C24D6C73FFF7DCFEFFF79EFDFFF78CFD75
:103D800000F07EF900F06AFC00F06AF8FFF7DAFE56
:103D9000EC7222480088072101402973FDF770F872
:103DA000FDF782FEFDF794FE1D490B881D4804684F
:103DB0001D4A1440E31803601C4B1C88856915409C
:103DC0002C1984615B88C4691440E318C3614B8A71
:103DD000046A1440E3180362898A436A134059183D
:103DE0004162A44802218170002101800BB0F0BD26
:103DF000740000405D3EFC07593EFC07453FFC0750
:103E0000293FFC07F112FC07013FFC07033FFC07B9
:103E10000D3DFC074CB9FC07208DFC07B810004095
:103E20001030004088A0FC070000FFFF6430004015
:103E300080B5FFF77DFEFFF72FFD00F021F900F0C0
:103E40000DFCFDF71DF8FDF72FFE8A480221817059
:103E50000021018080BDC0460020704770470000EF
:103E60000E4908880E4A024001204302D2180A80F7
:103E700041057E4A13688B431360810700224A671D
:103E80001F2212044B6F93434004181848670868B8
:103E9000E0220243102082430A607047383000500D
:103EA000FFFC000080B51F20000401218A07536F2A
:103EB000834348041818506710680721884310602E
:103EC0000D48018808220A430280FFF731FEFFF700
:103ED000F3FCFFF7E1FC00F0D3F800F0BFFBFFF7C5
:103EE000BFFFFDF7F5FD63480221817000210180CD
:103EF0000520FCF7EDFF80BD0800005004100040D5
:103F0000704780B5E62800D3E620282800D828206E
:103F1000F9214A0042437D20C10010465BF772F848
:103F20007F38C0B280BD00000548016807220A43FF
:103F30000260012080044D490A6882430A6070478C
:103F400030000040022902D0012900D000BE002824
:103F500002D0FF2804D000BE022901D10C207047F6
:103F6000D948407B002800D009207047F8B53F4869
:103F70000168C90703D0016802220A4302600124D4
:103F80000168490203D5A10502680A4302602702BD
:103F9000650237490095084608380668002E63D048
:103FA000300606D58020086049F771FCFDF7A6FDB4
:103FB0002F49B00704D50220086045F766FB2C495D
:103FC000300714D508200860FCF74CFD3D46274615
:103FD0000024204645F712FB25490420ED4A907243
:103FE0000220244A907014803C462F46009D3E4299
:103FF00004D00F60012045F701FB1D492E4203D07C
:104000000D6049F7ADFC1A49700604D540200860E0
:1040100045F7EFFA1649F00604D51020086043F77B
:10402000ABFE134970070FD50420086012490888B9
:10403000A043088059F748FA3EF702FBFDF75EFD02
:104040000B490020E84A9072F00707D00C6059F73E
:1040500057FA49F71CFC0649F8488472B0069AD50D
:104060002020086000BE96E7F8BDC0460002004070
:10407000180000400410004008330050208DFC0759
:10408000FCB57F2000025A4A516981430B2000028F
:1040900008185061106880B2564940181060906945
:1040A000554C0440012358030090201890610320D0
:1040B00001900002146B04431463908F1024044396
:1040C00094879088184390804C484D4A02604D4A2E
:1040D000104610384C4CA58B054015204301E818BC
:1040E0005030A0836069494D0540494828186061F7
:1040F000A069484D0540092040022818A0612068A9
:10410000454D05404548281820606068444D0540ED
:10411000444828186060A068434D0540434828186B
:10412000A060E068424D054042482818E060C3485E
:10413000407B002802D1C120400100E03E483F4DB5
:104140002860052080023E4F3880401DB880388CA2
:1041500055260643AA2086433E84FF266C36304609
:10416000C9303885374908460E30B8853648388614
:10417000B986C01D388735482085A06B3449014079
:1041800034480818A063344C2680208F10401F4606
:104190002037C01920873148018811408919D5314D
:1041A000018081881140C918818001891140C91995
:1041B00001812136A6802A4801881140C918603142
:1041C0000180818A19220A4306218A438282A88FAC
:1041D0002449014000980818A88723480168019ADB
:1041E000114304229143016020486866FCBDC0462B
:1041F0002030004000008888FF00FEFF8000004063
:1042000059055C071FFCFFFF042000400000E0FF91
:1042100009581A00FEE1FFFFE0E000000809294903
:1042200000000303696A686C031FFFFF70600000F1
:10423000E0E0E0E00B0A0A08201800090010004046
:1042400028130040260A000051080000070F000054
:104250002F64E0FE101A06010012004044120040D4
:1042600088120040FF9F0000801000405001500164
:10427000F8B5642013490E5AF34FBC6C30466043C6
:104280001249401812495AF7BDFE054638843C369B
:1042900066430E4830180E495AF7B4FE001D0D490A
:1042A000C8602818C01D4861684A1278022A01D1E6
:1042B00011304861FEF7ACFA0749401880B259F74F
:1042C0002DF9F8BDCC8BFC07208DFC0720A1070041
:1042D00040420F00A065FC07E20400000D48018881
:1042E000890918220A4000888004400F801870470E
:1042F00008490A88084B1340F822024092011A43E9
:104300000A800A88054B13404007800C1818088063
:104310007047C04654000050FFF90000FFC700007E
:10432000F8B50C46012901D0042100E00221184A09
:1043300015888E5A17494A8C632A03D816A05CF751
:10434000DDFCF8BD072151436F1C78430522424331
:1043500010465AF76DFE7908091AB942084600DB83
:104360003846002900D50020094B8119A94200D9FF
:10437000C91B012C01D0102200E00E2299520549E0
:104380000F66012C01D18865F8BDC865F8BDC0462F
:1043900008340050208DFC075B4552524F525D207F
:1043A000566261742064697669736F72206E65610C
:1043B00072207A65726F20283C3130306D5629208A
:1043C0000A0D000010B528209F4C205E0121FFF748
:1043D000A7FF2A20205E0221FFF7A2FF3220034917
:1043E000FDF706FAA07410BD208DFC07C543FC073D
:1043F000B0B5124CA07C002803D0FDF70FFA0020C6
:10440000A0740F490A88012082430A800D490A8856
:1044100008239A430A802178002902D08120607005
:1044200003E00949C87009490870094C094D204644
:10443000A84709A0A8472046A847B0BD208DFC0783
:10444000223400500400005054BAFC07B4BAFC07F0
:10445000ED59FC07FD0CF2075B50574D20444953C2
:1044600041424C455D2050574D206F7574707574F6
:10447000206F66662E200A0D00000000F8B50D467C
:104480000446012901D0042600E002266421642CA0
:1044900000D30C460E480088421C00922046504330
:1044A0005AF7B0FD07460A4837520A480A4EB04745
:1044B0006D1C0A4829462246B04709A02946009AA1
:1044C000B04712A029463A46B0470248B047F8BD67
:1044D00008340050ED59FC07FD0CF2074C5DFC0759
:1044E0005B50574D204F4646534554204348257551
:1044F0005D205265616420706572696F6420636F2E
:10450000756E743A20256C75200A0D005B50574D6E
:1045100020434F4E54524F4C20434825755D204355
:10452000616C63756C61746564206F666673657435
:1045300020636F756E74733A20256C7520636F75F8
:104540006E7473200A0D0000F8B5054640786528A2
:1045500001D300BE6878204E31884F1C7843642117
:104560005AF750FD0446A878652801D300BEA87804
:10457000784364215AF746FD29784B1E052B29D82C
:1045800031460E31B21C9B0001A5EB589F46C04638
:10459000CF45FC07A945FC07B745FC07BF45FC070D
:1045A000AF45FC07C745FC07321D103605E0314614
:1045B00016310A360AE0B21D1236314607E031469E
:1045C0001431083602E0314618310C36324610807C
:1045D00000190880F8BDC046083400507047704785
:1045E000024801884906FCD57047C04614110050A6
:1045F00017480188012291430180704710B5124B82
:1046000000249C8358639A6319831049082008602A
:10461000BFF34F8FBFF36F8F0D490A8802241443F5
:104620000C800A88802414430C80197A4A1E914118
:10463000C907FF221206074B1C68944361181960D2
:104640000549086010BDC046208DFC0780E100E0F0
:104650000411005000E400E000E100E018B5084853
:10466000016800910099074A009B1A40FF24240426
:104670000C40D9B20919044BC9181143016018BD87
:104680008000004000FF00FF0A000A00F0B58DB076
:104690000C460F49884200D17FE00E49884247D03E
:1046A0000D49884200D081E16088C11E092900D9E6
:1046B0007CE049007944898849008F440F007701E4
:1046C0007701510177017701640177017701E100FA
:1046D0000D0C000004FD00000AFD0000F8485CF726
:1046E0000DFBF84F387C012800D159E108AE0025B8
:1046F0003580A288A11D30465AF7FEFC3488F24866
:1047000021465CF7FBFA002C00D1C8E1012C00D057
:1047100049E1042058F7B4FB032800D043E1FA48EC
:104720005CF7ECFA6420F949FDF762F80546BFE151
:10473000608812285ED0022800D08BE0F0485CF739
:10474000DDFAF04D287C012800D129E1FD203EF75B
:104750003AF80146EE4804220A2358F74BF921782B
:104760000C224A43EB498918897A0170618841809B
:104770000221818000218171E98CC171090A0172D5
:1047800058F753F9E448E54CA047E98CE448A047C2
:10479000E88CC1B2020AE3485AE0E548022519460E
:1047A0002B4658F727F9A188018066E00F2800D131
:1047B000EFE0132800D0F9E0FC485CF79FFAFC4ECC
:1047C000307C012800D1EBE00CAD00202880A288CD
:1047D000A11D28465AF790FC2988B184D2485CF77D
:1047E0008DFAB08C012800D164E1002800D0DAE015
:1047F000CE48D6E0ED485CF781FAED4D287C0128E3
:1048000000D1CDE0FD203DF7DEFF0146E94804225E
:104810000A2358F7EFF821780C224A43E649891811
:10482000897A017061884180022181800021817133
:10483000698CC171090A017258F7F7F8DF48E04C3A
:10484000A047698CDFA0A047688CC1B2020AEAA029
:10485000A047A8E0D748082519462B4658F7CAF8BC
:1048600021780C224A43D4498918897A01706188D9
:104870004180002181808021817158F7D6F895E030
:10488000CA485CF73BFACA48007C012800D187E09F
:10489000A1880A2900D0DEE0207B0390E07A029014
:1048A000A07B0190607B00902789E0880590E57BE4
:1048B000A07A012606903146FFF7E0FD0221079518
:1048C00028460D46FFF7DAFD059840BA059739BA34
:1048D000090C0491401A07B27D20C400A74200DBF6
:1048E0002746E548874200DC074638463146FFF751
:1048F00017FD009800020199411802980002039ADE
:1049000080180391401A06B2A64200DB2646DA4818
:10491000864200DC064630462946FFF701FDA448E2
:1049200046850785D548A64DA847BAB2D44839462A
:10493000A8470598C1BAD348049AA847D24806990F
:104940000A46A847B2B2D1483146A847039801B2F7
:1049500082B2CF48A847CF4807990A46A84722E025
:1049600092485CF7CBF99248007C012818D0A188C6
:10497000042973D1A679032E03D8E579022D00D23C
:10498000A4E0D3480DE08A48007C012810D1A74854
:104990000AE086485CF7B2F9854E307C012845D1A3
:1049A000A2485CF7ABF981485CF7A8F90DB0F0BDFF
:1049B000A188042957D1E6796421642E324600D3B8
:1049C0000A46277A637AA4790AA88270642C224660
:1049D00000D30A46427001220270642B1A4600D3AB
:1049E0000A46079309ADAA70642F3A4600D30A46D7
:1049F0006A7002212970FFF7A7FD2846FFF7A4FD82
:104A0000A5486F4DA847A54821462246A847A44877
:104A100031463246A847A34839463A46A847A248F5
:104A200007990A46A847A148A847BFE70BAD00274A
:104A30002F70A288A11D28465AF75EFB7D485CF7BF
:104A40005DF92C787C48214622465CF757F9022C08
:104A50000ED38748A5E787480A2201E0854804224B
:104A60005CF74CF99FE7834804225CF747F99DE720
:104A7000012C21D17148018808220A43028032208A
:104A80006F49FCF7B5FEB0746E48018801220A43F5
:104A90000280307800284DD0802070704EE08D4824
:104AA0005CF72CF9787C002800D17CE7FCF7B6FE97
:104AB0007D7478E75E4874E7FFF79AFC73E7C046B9
:104AC000ED59FC07208DFC077B5DFC07208941BA6E
:104AD0005A4803880322934333430380594C208868
:104AE00008229043EA06120E024322802088042204
:104AF00090432080012D2AD07D20070228E0C04667
:104B0000ED59FC07208DFC07755AFC076126FC0750
:104B100005FD0000988DFC07625BFC07FD0CF207A9
:104B2000CB5CFC077F5EFC07A55DFC07095CFC070E
:104B30000E0C00004448C770444807701B4C204DC1
:104B40002046A84742A0A8472046A8472BE7584F31
:104B50005848814200D30146F740022900D802217B
:104B6000069138465AF74EFA0146079038465AF7EA
:104B700049FA401E1A3C20800C48114CA0474E4870
:104B800031463246A0474D4829462A46A0474C4860
:104B900006990A46A0474B483946A0474A48079914
:104BA000A0470248A0474948A047FCE6ED59FC074A
:104BB000208DFC0705FD0000988DFC078B5CFC0731
:104BC000FD0CF2075B424C45202D204241545445D8
:104BD000525920564F4C544147455D2042617474F0
:104BE00065727920566F6C746167653A202575206F
:104BF0006D56200A0D0000005B424C45202D2042DE
:104C000041545445525920564F4C544147455D201C
:104C10004C53423A203078253032582C204D5342A4
:104C20003A203078253032580A0D0000FB5CFC0732
:104C30003C5CFC07F25AFC076A58FC070400005071
:104C4000C543FC072234005054BAFC07B4BAFC0731
:104C50005B50574D20454E41424C455D2050574DCD
:104C6000206F7574707574206F6E2E200A0D000011
:104C70006F5CFC07B359FC0718FCFFFF165BFC07D1
:104C80002159FC07C358FC071457FC075059FC076F
:104C9000F258FC074057FC073B5BFC076C57FC07CE
:104CA0009F57FC07D657FC070958FC07D75BFC0742
:104CB0000024F400FF3F00009958FC074058FC070F
:104CC0007F59FC07585EFC07325EFC07A85BFC07B7
:104CD000A15AFC07495AFC07B0B50C2141430848CA
:104CE0004018807AFF2801D1FCF712FD054C064DD3
:104CF0002046A84705A0A8472046A847B0BDC04603
:104D0000988DFC07ED59FC07FD0CF2075B424C4502
:104D10005D2050686F6E6520636F6E6E65637465AD
:104D20006420746F20444131343533312E200A0D14
:104D300000000000B0B5FCF7EBFC044C044D20462D
:104D4000A84704A0A8472046A847B0BDED59FC07D6
:104D5000FD0CF2075B424C455D2050686F6E65208C
:104D6000646973636F6E6E65637465642066726FE9
:104D70006D20444131343533312E200A0D000000BE
:104D800070B50520FDF7A8FB2C4E3088012528437F
:104D90003080FDF759FBFDF749FC2238284C608430
:104DA0003088A8433080608CC008E0280AD8257479
:104DB000607C002803D0FCF731FD00206074FFF711
:104DC00017FB01E000202074A08C012827D10420CB
:104DD00058F756F8032822D1618C1AA0214EB0470B
:104DE000207C002801D122A100E01FA122A0B04711
:104DF000608CC1B2020A2DA0B047FD203DF7E3FC54
:104E0000014633480422082357F7F4FD022181802C
:104E1000122141804570618CC18057F706FE322017
:104E20002C49FCF7E5FCA16D2B480E4DA847E16D20
:104E30002A48A847216E2A48A84770BD001500508F
:104E4000208DFC075B5556505D204261747465727D
:104E50007920566F6C746167653A202575206D5610
:104E6000200A0D00FD0CF207747275650000000049
:104E700066616C73650000005B5556505D20537988
:104E80007374656D20756E646572766F6C7461679E
:104E9000652073687574646F776E207374617475C0
:104EA000733A202573200A0D000000005B55565010
:104EB0005D204C53423A203078253032582C204D1A
:104EC00053423A20307825303258200A0D00000035
:104ED00006FD0000814DFC07D05DFC07F15DFC077D
:104EE000125EFC0702E008C8121F08C1002AFAD1AE
:104EF00070477047002001E001C1121F002AFBD15A
:104F000070470000034880F3098800F025F8FBF79C
:104F1000FFF8C046F86DFC0704207146084203D034
:104F2000EFF309800A490847EFF30880084908476A
:104F3000704704207146084203D0EFF30980054909
:104F40000847EFF30880034908477047FEE7000071
:104F50003112FC079911FC071A49888807229043EF
:104F60008880052000078A89D2070DD0098800298A
:104F70000AD115490A8802854A8882848988018471
:104F8000418A124A0A404282114906220A800121BE
:104F9000CA03104B1A60BFF34F8FBFF36F8F02220B
:104FA0001A60BFF34F8FBFF36F8F1960BFF34F8F3E
:104FB000BFF36F8F41890422914341810021018019
:104FC00062B6704704030050A000FC077FFE00009B
:104FD0000034005080E100E0B86D36FFEA30B9A738
:104FE000BE4148EE9644FFFE72508A2DCACF9CB651
:104FF000514F07BCF60DFF3AF05D4D6FB66A9B98B6
:105000003342B3F2F60F2FC8422D1B1C460226B4C2
:10501000D04A1ED525F9C32DFBBE45C72FEF80AE64
:10502000A54A0C5EC05FB1CC358C6830BB00EC8902
:10503000464B67F2C4A7F4FE000000004850FC078E
:10504000708CFC07040001005050FC0701000000B8
:10505000FFFF0000A932F20702140000511EFC07F6
:10506000010D0000B922FC07000D00007122FC07B1
:10507000000E0000CD20FC07010E0000F120FC070F
:10508000030E00005D21FC070A0E0000A121FC07B1
:105090000C0E00005D22FC071C0D0000E522FC0741
:1050A000100D00006922FC070F0E00004522FC07CE
:1050B0002C0E00003D22FC07120C0000F522FC071C
:1050C000080E00004D22FC071B0E00005522FC07B5
:1050D0006918FC07E118FC078918FC07C118FC07D0
:1050E0009916FC07ED15FC07F8000000130E0000F0
:1050F0006920FC07150E0000491FFC07170E000071
:105100009D21FC07190E00008521FC07150D0000EC
:105110006522FC07210D0000F122FC07220D000092
:10512000ED22FC07080004900000000000000000D1
:10513000030005D08B0035F010005CF0000010B0CB
:10514000000018B000001AB0030051F0000038B0A1
:1051500000003AB0000064B0000066B0000022B069
:10516000000024B0010005D0000000000A0000800B
:1051700008030490000004F0030006D000000000C3
:105180000A00008008030490000004F0030006D029
:10519000000000000328002802290129FD0000006A
:1051A000D451FC0715000000B915FC0700000000F1
:1051B0000000000000000000FF00000000000000F0
:1051C00000000000000000000000000000000000DF
:1051D000000000009651FC071000000001000000D4
:1051E00010001000CB53FC079451FC070200000094
:1051F0000100000000000000000000002850FC0733
:105200001000000001020000028000000000000009
:105210009851FC0702000000090002000200000093
:10522000000000009A51FC0702000000010000008D
:105230002A002A00B15EFC079451FC07020000001E
:10524000010000000000000000000000F84FFC0713
:105250001000000008000200040000000000000030
:105260009A51FC0702000000010000001B001B0017
:10527000365FFC079451FC070200000001000000AB
:105280000000000000000000E84FFC0710000000D4
:105290000800020004000000000000009A51FC0712
:1052A00002000000010000002C002C00795FFC07C8
:1052B0009451FC0702000000010000000000000003
:1052C000000000001850FC07100000000800020059
:1052D0000A000000000000009A51FC0702000000D4
:1052E0000100000026002600525FFC079451FC07D5
:1052F00002000000010000000000000000000000AB
:105300000850FC0710000000080002000100000027
:10531000000000009A51FC0702000000010000009C
:10532000170017001E5FFC079451FC0702000000E5
:10533000010000000000000000000000D84FFC0742
:1053400010000000010200000280000000000000C8
:105350009851FC0702000000090002000200000052
:10536000000000009A51FC0702000000010000004C
:105370002B002B00DC5EFC078053FC0709000000BB
:10538000130C00004B29F207150C0000FD22FC074E
:10539000170C0000572BF207000C00002328F2071F
:1053A00006FD00005728F20703FD00003728F2072A
:1053B00008FD0000B328F2070EFD00000F29F207D8
:1053C00005FD0000A51BFC07001501EE8F7A37CC08
:1053D000565DAAED40A0F0C294E0D60001000001A5
:1053E000B509FC0701000002A50AFC070000000047
:1053F00000000000F4011700F4352348F40108C44C
:10540000140A0000140000006116FC0700000000F0
:10541000FF00000000000000000000001400000079
:10542000ED14F207FD0000002126F207FF00000046
:1054300000000000B916FC070916FC07C45FFC0752
:105440008D46FC07D050FC07A08DFC07A48CFC0700
:10545000718CFC0705000000F86DFC0700040000DB
:105460005C92FC07AC020000508EFC0700040000B8
:105470001495FC07700500002003000000A60E0034
:1054800004000000D2000000320000003C000000D8
:105490000100000001000000020000000200000006
:1054A00004000000030000000600000000000000EF
:1054B00002000000020000000000000000000000E8
:1054C00003000000030000000500000005000000CC
:1054D000060000000A0000000A000000C8000000EA
:1054E000B80B000002000000B80B0000B80B000071
:1054F00010000000D4010000CC0100007002000088
:105500006A0000000400000001000000200000000C
:105510000A00000001000000E20400008A0200000E
:10552000DC050000AF0000000057FC074055FC07F9
:105530007455FC070857FC073454FC075055FC070A
:10554000A8B8FC07A0B8FC07B8B8FC07F8B8FC0777
:10555000F665FC07C08BFC07C18BFC07C48BFC07FE
:10556000C88BFC07FD45FC07E145FC071D1AFC073D
:10557000ED19FC07C853FC07CA53FC07D451FC07BC
:105580001D1CFC07113DFC07A53EFC0793DEF00740
:10559000F1DEF007F9DEF00749DFF00761DFF00721
:1055A00077DFF00799DFF00719E3F007BDE5F007B3
:1055B000FDE3F0071DE4F0073DE4F0077BE4F007AE
:1055C0008BE4F007F5F9F007B1F7F007CFF7F00734
:1055D000EBF7F00705F8F00719F8F00797F8F00770
:1055E000AFF8F007DFCDF10767D0F107DBB9F007BF
:1055F000CD0DF207B10EF207AD0EF207A90EF207BC
:105600008D21F007193AFC07AD27FC07ED27FC07B1
:105610004128FC073928FC07B57EF007837DF00799
:105620002501FC07599EF107634CF107713AFC070D
:10563000D110F2073D3AFC07B111F2074112F2070F
:105640007912F207000000002D1CFC072F1CFC073C
:10565000B9C6F007D592F107B301FC075F9DF107CA
:105660005F9CF107C504FC07EB72F107B922F10753
:105670006B04F107A11BFC072BA4F007F1D2F00784
:105680005FBDF007D5BDF00785BEF007DB2DF00745
:10569000752EF0071581F007DF7FF0070937F00757
:1056A00000000000F91DFC07011EFC07651AFC073D
:1056B000F3C3F10775C4F10703C5F1077D1AFC07B1
:1056C00000000000000000000000000000000000DA
:1056D00000000000000000000000000000000000CA
:1056E00000000000000000000000000000000000BA
:1056F00000000000000000000000000000000000AA
:10570000F453FC07848DFC071C54FC07388CFC0701
:10571000020000005B424C45202D2050574D205682
:10572000424941535D206F66667365745F31203D69
:10573000202575202830782530325829200A0D0080
:105740005B424C45202D2050574D20564249415335
:105750005D206F66667365745F32203D202575207D
:105760002830782530325829200A0D005B50574DDB
:1057700020444320414E44204F46465345545D202B
:1057800064635F70776D322076616C7565203D20B3
:105790002575202830782530325829200A0D005BE5
:1057A00050574D20444320414E44204F46465345D8
:1057B000545D206F66667365745F70776D32207616
:1057C000616C7565203D20257520283078253032A4
:1057D0005829200A0D005B50574D20444320414E6C
:1057E00044204F46465345545D2064635F70776D97
:1057F000332076616C7565203D2025752028307832
:105800002530325829200A0D005B50574D20444363
:1058100020414E44204F46465345545D206F6666F6
:105820007365745F70776D332076616C7565203DAC
:10583000202575202830782530325829200A0D007F
:105840005B50574D20465245515D20636C6B5F7332
:1058500072632076616C7565203D202575202830A7
:10586000782530325829200A0D005B424C45202D06
:105870002050574D2053544154455D20737461743A
:10588000652076616C7565203D202575202830786F
:105890002530325829200A0D005B50574D204652C2
:1058A00045515D20636C6B5F6469762076616C7531
:1058B00065203D2025752028307825303258292054
:1058C0000A0D005B424C45202D2050574D2056427A
:1058D0004941535D207A65726F5F63616C5F31206F
:1058E0003D20256C64202830782530345829200A42
:1058F0000D005B424C45202D2050574D205642490B
:1059000041535D207A65726F5F63616C5F32203D49
:1059100020256C64202830782530345829200A0D41
:10592000005B424C45202D2050574D2056424941A6
:10593000535D2076626961735F315F6D76203D2033
:10594000256C64202830782530345829200A0D0031
:105950005B424C45202D2050574D20564249415323
:105960005D2076626961735F325F6D76203D202530
:105970006C64202830782530345829200A0D005BCB
:1059800050574D20465245515D2070776D5F6469D8
:10599000762028636C616D7065642076616C756536
:1059A00029203D202575202830782530345829209D
:1059B0000A0D005B5741524E494E475D20496E76B5
:1059C000616C6964207061636B65742062797465D1
:1059D000206C656E6774683A20257520286578709C
:1059E000656374656420257529200A0D002D2D2D11
:1059F0002D2D2D2D2D2D2D2D2D2D2D2D2D2D2D2DD7
:105A00002D2D2D2D2D2D2D2D2D2D2D2D2D2D2D2DC6
:105A10002D2D2D2D2D2D2D2D2D2D2D2D2D2D2D2DB6
:105A20002D2D2D2D2D2D2D2D2D2D2D2D2D2D2D2DA6
:105A30002D2D2D2D2D2D2D2D2D2D2D2D2D2D2D2D96
:105A40002D2D2D2D2D200A0D005B424C45202D20A3
:105A500053454E534F5220564F4C544147455D20BD
:105A600053746F7070696E67207468652041444399
:105A70002E200A0D005B424C45202D2053454E53ED
:105A80004F5220564F4C544147455D20537461722C
:105A900074696E6720746865204144432E200A0DA6
:105AA000005B5741524E494E475D20496E76616C0E
:105AB000696420636C6B5F646976206F7220636C2D
:105AC0006B5F7372632077726974652028666972F0
:105AD00073742032206279746573292C20696E708A
:105AE00075742069732069676E6F7265642E200A71
:105AF0000D005B424C45202D2050574D2053544102
:105B000054455D20427974652072656365697665E8
:105B1000642E200A0D005B424C45202D2050574D2D
:105B20002056424941535D20427974657320726565
:105B30006365697665642E200A0D005B50574D2021
