:0200000407FCF7
:10000000186BFC07D14BFC07E54BFC07FF4BFC07CB
:10001000194CFC07194CFC07194CFC07194CFC0740
:10002000000000000000000000000000194CFC0768
:100030000000000000000000194CFC07EF12FC0754
:100040000510FC07713FFC07A526F007F112FC071D
:100050001D12FC07194CFC07C90FFC07194CFC07C3
:10006000D50FFC07194CFC07AD10FC07B710FC07B7
:10007000C110FC07CB10FC07D510FC07194CFC077E
:100080008513FC07194CFC07194CFC07194CFC079D
:10009000194CFC07194CFC07194CFC07194CFC07C0
:0800A00000008E070E000000B5
:0200000407FCF7
:100110000348854600F040FF004800476D28FC0773
:10012000186BFC07F8B50746012000230246009033
:100130001946032049F766F9044602218030017010
:10014000FF4DFE482A6843881146FF31F7310B8680
:1001500080884886FB48066A0123DB069E431E43CF
:100160000662FF320020FF32383250829082D08205
:100170001D200882F4484884F448C882F448088363
:1001800000204882384649F77DFC01462868FF3048
:10019000F730C28B920992010A43C283ED4841684D
:1001A00000208847002C02D0204648F714FD204646
:1001B000F8BDFFB58BB0064616980027022821D05F
:1001C0000D9801881498814278D371880846403888
:1001D0003F2802D8159855F711FD0C98361D008858
:1001E000149A80190E995EF787FF0C98018814986D
:1001F00008180C9908800D9801881498081A0D9910
:1002000008805CE100200E9D079069782C78090237
:1002100021433180E978AC780902214371808C4612
:10022000403904242D1D024603468E46402900D342
:100230002878614604291FD0052914D0062918D032
:1002400070463F283DD8159855F7D8FC0006000E9B
:1002500004D0C148008D0006C00F30D00223012019
:10026000BE4A002712E0697800290FD0BC4A172344
:100270000CE0BC4A0F2309E0522802D0D22802D059
:1002800002E0142000E01520B74A1F23002A1AD0EC
:10029000984218D2800010580490002813D00020F3
:1002A0000890059070884038402803D328780524AA
:1002B00030716D1C701D00900498B5E0FEE0302791
:1002C000F0E03327EEE07088042872D10627E9E0D9
:1002D000522862D00CDC4B283FD004DC41286AD085
:1002E000422858D111E04C2820D0502853D140E06A
:1002F000632830D004DC572818D061284BD19BE00C
:100300006C2864D0772846D109E0009829780170DC
:100310000098641C401CA4B26D1C009081E00498FD
:10032000401C04900178089881427AD10098A41C5E
:10033000401C41084900881C009068782A78000217
:10034000104308800599AD1CA4B2002969D008901B
:100350000020059065E00120FBE710222946009867
:100360005EF7CAFE009810341030A4B21035009029
:1003700057E0204640301499039088420BD8402221
:10038000294600985EF7B8FE009840300090039828
:10039000403584B245E0342743E0082229460098DE
:1003A0005EF7AAFE009808340830A4B20835009021
:1003B00037E068E0FFE70622294600985EF79CFEDA
:1003C0000098A41D801DA4B2AD1D009029E01498D2
:1003D000001B80B203903088001B001D81B20120F9
:1003E00007900498401C04900098401C400840006E
:1003F00000900498007857281CD04228CBD1009850
:100400000170090A417000982946801C0090039AE7
:100410005EF772FE03980399201884B20098401882
:1004200000900498401C0490007800281ED0002FF3
:1004300017D01BE04908E2E71498001B81B200982E
:100440000391401C40084000009001200A4607909C
:10045000294600985EF750FE0399601884B2009810
:10046000DDE70D990988A14200D331E70D98008896
:10047000A04208D304990978002904D107990029DA
:1004800003D1A04201D034270CE00D99001B088055
:100490000C9801880098801B001F08180C99002FE9
:1004A00008800CD07088042809D0062807D040386E
:1004B000402804D30E984079707100E03427384604
:1004C0000FB0F0BDFFB581B01F4616460C46104672
:1004D0005CF7D6FC00257F2802D02189062909D0A7
:1004E0003B4632462146019855F71BFF05462846F4
:1004F00005B0F0BDC00601D50225F8E72078002838
:10050000F5D1300AA11D42F7A4F8F0E7F1B598B093
:10051000189842F79CFA0446189805210079134A66
:100520004006C00F099068460184618B08460A386E
:10053000904276D2E08A062873D319E030BCFC07DB
:100540004CB9FC07C00000401080000029410000A9
:100550007671000058BFFC0748BEFC073803F2075D
:100560004003F2079C03F207D803F207770C000060
:100570001922D201904254D8228BFF23F5339A429C
:100580004FD8521C9300D2184243521C0A235210D7
:1005900059438A4245DC217F00290CD1617F002923
:1005A00009D1A17F002906D1E17F002903D12021B3
:1005B000095DC90635D0274620377978C906C90EA6
:1005C000491F0C292DD2A18A81422AD8E17C002919
:1005D00027D0421E082A01D9082000E0401E81428F
:1005E0001FD8684646F7F4FA00281AD1FE4D0622B5
:1005F000286221460AA85EF77FFDA8792E46803E34
:1006000000287DD06079800901280BD00AA80999BB
:100610004CF7ADFD010003D03820405C002870D0BD
:100620009BE008E1F06A807A012808D0042806D00F
:100630000AA84CF709FE286200284ED054E0686AE8
:1006400006220AA932305EF77BFD002806D00AA8F0
:100650004CF7FAFD2862002802D012E0686AF9E738
:1006600000210AA84CF706FE2862F16A897A01295E
:1006700005D18B071A6849068A430A431A60002885
:1006800011D0F16A286A0622253010315EF758FD34
:10069000002808D1286AF16A2030C07AC97B8842D4
:1006A00001D1286A1EE0D148D1490088C96880B2CA
:1006B00006225043081842F7CFF9014614A8062233
:1006C00002305EF719FD13AA00213C2042F791FC8D
:1006D0000121B06D47F7B8FEA9E011A90AA84CF7AF
:1006E000C9FD2862002838D00146253106220FA80E
:1006F0005EF702FD286A08AA2030C17A0FA801E03F
:1007000041E024E04CF716FC002812D0286A203083
:10071000C07A002809D16846B649008C4BF77DFBAA
:1007200008AA0121B3484CF705FC68460AA9008CC9
:100730000AE008AA012111A84CF7FCFB00280CD004
:10074000296A6846008C32314BF77DFB05E00A18B8
:10075000527D002A08D010286DDBF06A407A02280A
:1007600006D0032804D00EE0401C1028EFDBF4E78D
:100770006846008C052806D308AA0AA809994CF7F0
:10078000D9FB002857D00022694620464CF77BFC55
:10079000002850D1F06A407A02280BD0032809D0F3
:1007A0000023684602880AA809994CF78DFC0028A6
:1007B00002D02FE00123F4E7E18A68460181218B12
:1007C0004181618B81817878062241096846817573
:1007D0007878C106C90E6846417521460E305EF72D
:1007E0008BFC189800794006C10F68460175038894
:1007F000214602A8B26D47F7CDF90146B06502A8BF
:1008000042F745FC0020B065214668461C3100884F
:1008100046F731FA49F7B0FA734C2034207A0028B1
:1008200005D0002109205CF76EFC00202072002119
:1008300008465CF710FB19B0F0BDF8B56E4C0646E3
:1008400085000F4660594C21095C24290ED140696E
:100850001022791D2E305EF74FFC61592520403162
:10086000087300221146304654F71BFB60594C2197
:10087000095C0C291FD140691022791D2E305EF7CA
:100880003BFC60595F214069095C09072DD4014692
:100890002E3110221E305EF753FC00280CD0605918
:1008A000092140300173304655F718F801460022FF
:1008B000304653F775FEF8BD0421684601706A465C
:1008C0000521304654F716F8684601786020014348
:1008D00068460170304655F701F8014668460278CF
:1008E0000123304653F771FFF8BD304654F7F6FF49
:1008F000012809D0605907214030017300221146B8
:10090000304654F7CEFAF8BD615900204969C0312C
:10091000887160590421426930461E3253F7EAFF5C
:10092000605941694031897F002907D01A21403040
:1009300001730021304654F73EFBF8BD1B214030C7
:100940000173304654F78CFBF8BDF8B52A4C0546C8
:100950008600A0594C22125C192A11D140224D3038
:10096000491D5EF7C9FBA059402224494D305EF76E
:10097000E7FB002805D02149284620395BF74BFDCD
:10098000F8BD0B21684601706A460521284653F7D9
:10099000B1FF68460178602001436846017028462F
:1009A00054F79CFF0146684602780123284653F716
:1009B0000CFFF8BDFFB581B003980C46060A002570
:1009C0005CF75EFA002827D0132825D0142823D0FE
:1009D0000B48B700C0592030407BC00637D503987C
:1009E0005CF74EFA15280DE030BCFC0768B9FC072F
:1009F00060BBFC0750F5F1073CBEFC07FCBDFC07E3
:100A000078BBFC070CD0A07942F714F8304647F7C2
:100A1000AFF8032806D015E0A07942F70BF81FE0E5
:100A200002251DE03248C0592030407B400704D5E4
:100A30003D21304642F7FCFC04E03D2200213046D7
:100A400042F705FD3D21304646F7DAF808E020463A
:100A5000103828490181468120464EF7C3FD012503
:100A6000284645E524485222006864308188C37EC8
:100A70005143224A12688918FF225F32525AFF31CD
:100A8000120AD21A01310B8CD2B2DB0B09D00B8CBB
:100A90005B045B0C0B84002A03D18088184A012177
:100AA00011547047FFB51746140A81B0104A0298D6
:100AB000A100515840780026114D002907D0295D2A
:100AC000002905D0002803D1204643F715FF2E55F5
:100AD0003A46049B0299019844F79FFE08E50A48AC
:100AE000084901600949416070477047704700003C
:100AF00078BBFC070608000084BBFC074CB9FC0768
:100B0000C98BFC070459F007C0000840490C00BF1E
:100B10007FB5E4486B460188428889186A4611808F
:100B200001214C0022181546403DED8F065B52888E
:100B3000AD19AA18491CC9B21A530729F1D38189E2
:100B4000C089081881B2D981D888002821D0188995
:100B5000002820D0988800281FD0588900281ED04F
:100B6000988900281DD0588800281CD000291CD046
:100B7000188800280BD00720062254001C5B8C42EA
:100B800001D22146D0B2521E52B2002AF5DA04B088
:100B900070BD0320FBE70420F9E70220F7E70520FA
:100BA000F5E70620F3E70120F1E70720EFE7F0B5CE
:100BB00095B0EFF310801090012080F31088BA48B0
:100BC000816B4A07520F69460A800A92816B0122A3
:100BD000C908C9008163B5498B8869464B800224E6
:100BE000B24B00219980C16A09078B0F69468B803F
:100BF0000F93C16A0C2399430831C162052109078B
:100C000009880906CB0F6946CB800521090709939E
:100C100009888023194305231B071980A449898A61
:100C20004906CB0F69460B81A1490893898A402365
:100C300019439F4B9982016A09074B0F69464B8103
:100C40000C93036A0E218B4303629B4D99486860A5
:100C5000FF204030A8602888A0432880974841683A
:100C60000B071B0F69468B810B934168090909012A
:100C700008314160416849064B0F6946CB810D93AD
:100C8000416870239943603141608748403801686A
:100C90008904CB0F69460B820293036841140B430E
:100CA00003600168CB07DB0F69464B820E93016836
:100CB0001143016041688903CA0D69468A82039223
:100CC0004168CA05D20D6946CA82049281688903C7
:100CD000CA0D69460A8301928168CA05D20D694628
:100CE0004A8305924168764A11400322D20389184B
:100CF00041604168490A4902FF31413141608168E0
:100D00006F4A11400322D203891881608168490A21
:100D10004902FF3141318160642000F02DF9A8893A
:100D200069468007C00F8883A8892043A8810024D2
:100D3000604F288800260121084328800A2000F0FF
:100D40001BF9FF205F4941303A680A4200D0761C07
:100D5000401E3F1D0004000CF6D1A88A8004FCD17F
:100D60005149886B671CC208D2007807400F0243C4
:100D70008A630A2000F000F960004A49FCB20E5272
:100D8000082CD5D348480A99826BD208D2000A436E
:100D900082636946454A498891800F998A00C16AF1
:100DA0000C2399431143C1620999CA01052109071E
:100DB000098880239943114305221207118008995D
:100DC0008A013B49898A402399431143384A9182D9
:100DD0000C994A00016A0E23994311430162374876
:100DE0000B994268120912010A4342600D99426848
:100DF000090170239A430A434260029841032A483A
:100E00004038006801225203904308432649403984
:100E100008600E9809684908490001432248403893
:100E20000160039842022048403840682449084045
:100E300010431D4A403A506004985268520A5202C8
:100E400002431948403842600198174A4002403A2C
:100E500092680A400243144840388260124905985B
:100E600040398968490A490201430F484038816086
:100E70001098002800D0012080F3108815B0F0BD34
:100E800010B5114C2078002808D0FFF790FEFFF72E
:100E90003FFE0E4908700020207010BD02F054FE85
:100EA0000120F9E7B062FC0780100040001200400A
:100EB00020300050B05DFC0700350050402000405D
:100EC000FF01FCFFC0C0C0C05B8DFC07598DFC0753
:100ED00010B5FF22154901320A60BFF34F8FBFF3EF
:100EE0006F8F13490A6013490B6840241B0A1B02C9
:100EF00023430B601049898A0021C30700D03521A4
:100F0000830702D57D231B021943430702D57523AE
:100F10001B041943000702D53D2000060143064883
:100F20002038016301488038026010BD80E100E094
:100F300080E200E008E400E0A010004010B50620C8
:100F400000F01AF810BD10B5092000F015F810BD1A
:100F500010B5812000F010F810BD10B5044800F065
:100F60000BF810BD10B5034800F006F810BD0000E6
:100F7000010200000108000000280CD000BF00BFE3
:100F800000BF00BF00BF00BF00BF00BF00BF00BF69
:100F900000BF401EF0D170471CB5094800900948B9
:100FA000019005460126009C05E0E36807CC334329
:100FB0000C3C98471034AC42F7D3FFF7ADF8000073
:100FC000785DFC07A85DFC0701480121018070479E
:100FD0000E1500500A48011F0988CA0706D002886A
:100FE00007239A43E54B5B7A13430380490706D5F1
:100FF000018807229143E14A127B0A43028070472D
:10100000B8100040B0B50520000701883022114318
:101010000180038803210B430380204B1C88640755
:10102000FCD403889343038003888B430380D34C11
:10103000E38B4380238C9D1E194B5D8007251D800B
:1010400005881543058005880D4305801D886D07BB
:10105000FCD403889343038002888A430280428938
:10106000920702D042898A434281018980220A4341
:101070000281018A042291430182818A8907FCD579
:1010800041F74FF9E06B07490860074801684907D5
:1010900000D500BE01684907FCD5B0BD083300503B
:1010A00000160050080200401000004080B50A20E1
:1010B00000F04EF880BD80B50B2000F049F880BDEF
:1010C00080B50C2000F044F880BD80B50D2000F004
:1010D0003FF880BD80B50E2000F03AF880BD0000DA
:1010E000FEB5019302920091064601270021384681
:1010F00032465EF745F8A14AD36E0B40956E054027
:101100001D4300D100BED36E0B40956E0540019C7F
:10111000002C06D01D4300D100BEB7400B4D2F80E0
:1011200005E01D4300D100BEB740084D6F80D36E6F
:101130000B40916E0140194300D100BE0298009906
:101140000143700028188180FEBDC0460230005067
:10115000F0B503460A3B01210A469A4093B20B4D73
:101160005C19661C5E400A4B1C8800272E4203D087
:101170007F1C7608B6B2F9E79443BAB20D469540A3
:1011800025431D80814052480160F0BDFEFF0100F3
:101190000E140050F8B5044601273E02052005074D
:1011A000688DC00506D51B2003F0A2F84A480188C7
:1011B000394301808036288840013040698A474A97
:1011C0000A4002436A8221681348016061684160F5
:1011D000A1688160E168C160216901616169416163
:1011E000A1698161E169C16104623E490A684262A4
:1011F0004A6882628A68C2624A690263CA68426354
:1012000009698163334808210180A88AC00600D497
:10121000FEE700BEF8BDC0460090FC07024800880B
:101220002B481021016070472C130050F8B504467C
:1012300005200507288A04210143298228894021A5
:1012400001432981224801270760224808210180A3
:101250003E02688DC00506D51B2003F049F81E48E4
:101260000188394301808036288840013040698AEE
:101270001A4A0A4002436A8221681948016061687B
:101280004160A1688160E168C160216901616169B3
:101290004161A1698161E169C161046211490A6822
:1012A00042624A6882628A68C2624A690263CA68A4
:1012B000426309698163A88AC00600D4FEE700BEC4
:1012C000688A094908404018001D6882F8BDC04678
:1012D00080E200E000330050800000507FFE0000FC
:1012E0005090FC0728ED00E0FC7F0000704770473D
:1012F00070B5214CD64D224EA1880F2008400228FF
:1013000009D0042804D00C2820D00128F4D132E0E0
:1013100003F07AF8F0E72A8BA88B90421DD2696B14
:101320009042E9D2A288C0231340C02B03D1328857
:10133000920703D4E0E7228A9206DDD5421CAA83F5
:10134000085C221F10802A8BA88BE9E703F05CF869
:101350002088012188432080CEE72088022188430D
:1013600020802088802188432080A96B0029C3D059
:10137000288B8847C0E770BD04110050508DFC07D2
:101380007C11005005210807028830239A4302800F
:10139000028803239A430280828812050DD5184AD9
:1013A00013880B40052B08D11088042101431180BC
:1013B000108801218843108070478188C90606D5AE
:1013C00010498A88D20702D00A88120610D4808871
:1013D000C0060CD50B488188890708D50188C90546
:1013E00005D5022181800188074A0A4002807047A2
:1013F0000120888008888022904308807047C0467A
:101400000002005000010050FFFE00005748018814
:1014100002220A43028001888907FCD40121C1818C
:10142000008A7047FEB5514C002121800327FD0141
:101430002946903161804026A6805C224C498A5A18
:10144000A281A289324330239A43A281494A16607D
:10145000BFF34F8FBFF36F8F002800D181E001975A
:1014600002952288B2430578AB0113432380E788B5
:1014700070229743437819013943E180002D05D14B
:10148000E1880725A9431B090B43E380C1784B1E64
:101490009941890023880425AB430B4323800179BC
:1014A0000902A388DBB25918A180E1881140324FAC
:1014B00040292DD162202E49085A002800D13148F8
:1014C00031494880012000032188014321801920EF
:1014D000FFF752FD029A1046803021880143218097
:1014E00020883043208060882843608060882749B6
:1014F000014061800F2040026188014361804037D4
:10150000608838401043608060880199884327E0F4
:1015100021881A4A0A4022808178102900D300BE0F
:101520006288174B13404902194361806188019A10
:10153000914342790A43628081790029029A01D15C
:101540000A4600E080322188394011432180C07969
:10155000082800D300BE4037618839408001084325
:1015600060802088012101432180FEBD00150050CC
:10157000CC8BFC0780E100E0FFFD0000FFEF0000E6
:10158000FFE1000040760000C062FC07FF1F000082
:1015900006480188064A114001235B02C9180180F0
:1015A00041881140C91841807047C0460815005055
:1015B00000FCFFFF70B53648092104241823224699
:1015C0005BF718FA05461B202870FD26304662F7A7
:1015D00063F80021A982E96029616C606E806870FF
:1015E00028465BF722FA70BD1FB51446002202920E
:1015F0000192069A00921A46234661F779FE04B0DA
:1016000010BD000010B5EF48817B124ACCB20C230C
:101610006343D45CFF2C06D0D318491C81735B68EC
:10162000002BF3D00DE0C17B0B4ACCB21C236343EB
:10163000D45CFF2C08D0D318491CC173DB68002B85
:10164000F3D09847002010BD0021C181012010BDBA
:10165000508DFC070451FC07D84EFC0770B50C48B0
:10166000092104240A2322465BF7C4F905461B20FE
:1016700028701426304662F70FF8FF217431298153
:101680006C606E80687028465BF7CFF970BDC0460D
:101690001B0D00001FB5144601220292044A01925C
:1016A000069A00921A46234661F722FE04B010BD46
:1016B000944DFC0770B5124D2C68002C19D11148BF
:1016C000092104222C235BF795F904462860172092
:1016D00020840D4820800026668020460A30112193
:1016E0005DF723FD2685E6846684E683A6832020B5
:1016F000E07620465BF799F90020286070BDC0466F
:101700006C8CFC07040D0000030A000070B5184D36
:101710002868002823D117480921042252235BF7A7
:1017200069F904462860002686721348E080A0808C
:101730000D2020801622E272FF20083020812046F2
:101740000C300EA15DF7D8FC2B20265420462B3000
:101750002C3418210F4B224661F7DCFE28685BF71A
:1017600064F900202860042002215BF774FB70BD3F
:10177000688CFC070D0D00004C04000003030A18E0
:101780001107EE8F7A37CC565DAAED40A0F0C294D7
:10179000E0D60000C45CFC07F8B500920D4681005D
:1017A000104A56585418002E0AD101020A310E4828
:1017B00004271E233A465BF71DF906460770206092
:1017C000B71C102138465DF7B0FC38462946009A10
:1017D0005DF792FC0120707030465BF726F900201F
:1017E0002060F8BDA08CFC07140E0000B0B50246C6
:1017F00065482430002423460A2B0BD00568002DB1
:1018000002D0001D5B1CF7E701605C1CE0B21146D2
:1018100000F05CF9E0B2B0BD1FB514460E22029292
:10182000044A0192069A00921A46234661F760FD27
:1018300004B010BD9C4DFC0710B5014601200A4ABA
:10184000914210D3121D91420DD8029CF231C8B2C0
:101850008100064A5058002803D0511800220A601F
:1018600080470020207010BD0E040000888CFC070B
:101870001FB5144607220292044A0192069A00926A
:101880001A46234661F734FD04B010BD284EFC070C
:1018900010B50C46A949884233D0384A90421DD031
:1018A000374988423ED12078401E09285AD8800006
:1018B000DE490818416A364A914255D03348814280
:1018C00057D12E48042108230A465BF793F8217864
:1018D0000170616841605BF7A8F84AE02078411E1A
:1018E000CAB2092A3CD88900D04A51184A6A274B03
:1018F0009A423ED1CA6C24310A60616800F0E6F871
:1019000037E06268002A01D100BE62681D48824249
:1019100001D300BE626820781849401804215BF7A3
:10192000A8FB26E0531C0121984225D30A3290429D
:1019300022D8C1B2091F8900BC4A5218516A002935
:1019400017D0124B994214D0114B994211D0134623
:101950002433C01E00241C60D464C0B2884708E051
:1019600000BE06E000BE04E00146243100220A6009
:10197000C264029800210170084610BD03040000F3
:1019800002040000FDFF3F00CC8DFC07F743FC077D
:10199000F543FC07C9488178491C8170017800290A
:1019A00000D0704767490023CB7018490A780B7044
:1019B000012A01D0012100E00221022A00D10321E5
:1019C00001707047508DFC07BC488178002904D015
:1019D000491E8170090600D070474178002904D063
:1019E000002242700322114003E001780029F3D065
:1019F000491E00220270481EC0B20128ECD851488E
:101A00000122C270014801707047C046B4BAFC0799
:101A1000B0B50C460025202D04D040F770FF60556E
:101A20006D1CF8E70020B0BD10B504460548064916
:101A300070225DF761FB0548001B054908801430E2
:101A4000488010BD70A0FC07604EFC07B8A0FFFFE7
:101A500078A0FC0710B507480188074A1368114CA5
:101A6000234059181160408851682140081850607F
:101A700010BDC046183000408CA0FC0710B50748C8
:101A80000188074A1368074C2340591811604088A1
:101A9000516821400818506010BDC04638300040E1
:101AA00098A0FC070000FFFF07481E214180018825
:101AB00003220A430280018804220A4302807F48ED
:101AC0000121C1707047C0460016005070B50C4629
:101AD000054619490888000618480ED5184A1268A4
:101AE00012040AD4174A1288D20706D14019801C62
:101AF000042122465BF7BDFA70BDEFF3108301228B
:101B000082F310880988090603D40F490E8816430A
:101B10000E80002B02D082F3108802E0002181F3B6
:101B20001088042108230A465AF764FF44600570B0
:101B30005AF77BFF70BDC04608000050010400004A
:101B40003000004054BAFC070833005070470000D2
:101B500070B514460D4610465BF792F901282ED158
:101B6000287801020831AA791648002A0CD089B2D7
:101B7000062322465AF73EFF0646A87860F756FC31
:101B80003080A879307113E0AA8889B2921D93B28F
:101B900022465AF72FFF0646A87860F747FC002137
:101BA00031713080AA887280701DE91D5DF7A4FA3A
:101BB00030465AF73AFF002120465BF74CF90020E7
:101BC00070BDC046140C0000FD2801D000207047F5
:101BD00000487047D84EFC077047704710B5044660
:101BE00040793F280FD840F78AFE2070010EE1703F
:101BF000010CA170000A607040F781FE2071000A9C
:101C0000C0210143617110BD80B5FFF77FFD80BD2C
:101C10004E49498C0180704780B54C490A78027062
:101C2000401C491C5DF768FA80BDC046CC8DFC079E
:101C30007D21C18000218180102141800821018007
:101C40007047000070B504467A206043ED4A1618CC
:101C50004D7835773046143008210A4661F780FB0D
:101C6000102D04D8B01C1022294661F779FB40F7EB
:101C700046FE70823078012101433170204600F029
:101C8000DBFD317F0177718A4182F18AB28A738BE1
:101C9000358B058343838282C182B11C801C102254
:101CA0005DF72AFA204600F0C7FD5AF7BEFEA000F5
:101CB000F34908180021416570BDC046508DFC07EE
:101CC00070B581000D4A54585518002C10D10102EE
:101CD0000A310B4804221E235AF78CFE04460126C3
:101CE00006702860801C074907225DF705FA6670B8
:101CF00020465AF79AFE0020286070BD9C8CFC0795
:101D0000140E0000705DFC0780B561F7D9FB002858
:101D100001D0FFF7FBFC80BD10B50C46017801290E
:101D20000BD000290ED1428808490A704B1C011DB6
:101D3000D2B218465DF7E0F902E0408803494884D2
:101D4000002000E04820207010BDC046CC8DFC076C
:101D5000E0B54A78032A14D87A441279520097449D
:101D6000010A030708A104E006490091694605E05D
:101D7000891C102203E00349019101A90422FFF705
:101D80000BFD8CBD40E201000001020304050607C3
:101D900008090A0B0C0D0E0F0020888048800120D6
:101DA0000870704780B55FF7E7F880BDF8B5694601
:101DB000C870020A8A70020C4A70000E0870084649
:101DC0005FF7C2F88FBD000080B54948002101606F
:101DD000FFF7BEF8444800781F214901414A1368C3
:101DE0008B43C006800DC018106080BD80B53F4891
:101DF00002210170FFF7A2F880BDC046F8B51F466A
:101E00000C46087808281CD80725002100911AA63E
:101E1000784400794000874419040C0406060F0931
:101E200012001A4E12E00D25174E0FE0062514A6DB
:101E30000CE00A2516A609E008251AA606E017A652
:101E400004E000BE0026012000903546AB1C184877
:101E500039465AF7CFFD0746207838707D700098D4
:101E6000002804D1B81C31462A465DF745F93846AA
:101E70005AF7DBFD0020F8BD52656E657361730093
:101E8000FFEEDDCCBBAA0000385BFC07305BFC0733
:101E9000312E302E302E302D4C45000001D20080E6
:101EA00005000100123456FFFE9ABCDE000000005F
:101EB0000314000080B50B4801688905C90E0A4A61
:101EC00011701F21490102688A43026007480121FD
:101ED00001700748016803220A430260FFF738F8DF
:101EE00080BDC0464C120040A85DFC0706100040B3
:101EF000AC10004070B50C78A51E052D27D81C0A23
:101F00007D442D796D00AF440233222544527A205E
:101F100060433C4A1518887878216854C0070ED071
:101F20000C20604385490E183146753128467130C2
:101F300006225DF7E1F87420305C772168540C20AC
:101F400060437E4908187B210022425441E002F0A0
:101F5000A9FA3EE07A2565432A4C60193A30891C7B
:101F600017225DF7C9F8605D04210143615530E037
:101F70007A206043234908187821002242540C201B
:101F800060436E4908187B214254204661F7F8FAF5
:101F90001FE07A2565431B4E70196130891C10249F
:101FA00022465DF7A9F8705D2043705511E07A2054
:101FB0006043144A15188B1C488A00280BD0284609
:101FC0001E301C2219465DF797F82878022101433C
:101FD0002970002070BDA81C1C2219465DF78CF8E2
:101FE000287801210143297007A05EF787FE1120A0
:101FF00008A4461EEDD0295C20465EF77FFE3046E1
:10200000F7E7C046A48CFC07200D0A204C544B3A3D
:1020100020307800253032780000000080B50A7842
:10202000072A24D8180A920001A39A589746C04656
:102030005120FC076F20FC076F20FC076F20FC0776
:102040007320FC077D20FC077D20FC077920FC071E
:102050007A2141433F4A002353540C214143374ADC
:1020600051187B2201238B54FFF72AFE06E000BEA5
:1020700004E0FFF76DFE01E0FFF7E4FD002080BD06
:10208000508DFC0710B50C78012C03D0092C09D019
:102090004C7802E04C78432C02D0002C00D000BEDB
:1020A00002F000FA002010BDF8B51C4610460D469F
:1020B0005AF7E6FE022828D1240A00D000BE0C20E0
:1020C00060431E490F187037BC70FF2C19D00126D1
:1020D000FE70042003215AF7BEFE28883880687AF3
:1020E0003871781D0A35062229465DF705F87A20F1
:1020F0006043184908187821415C2046324661F750
:10210000F3F9204602F044FC00E000BE0020F8BDD8
:1021100010B51C4610465AF7B3FE03280AD1200A10
:102120000C214143054840187221FF22425202F01F
:1021300055FC00E000BE002010BDC046508DFC07DD
:10214000180A7A2242430348801809787822815479
:1021500000207047A48CFC0700207047F0B589B0C0
:102160001D461446087802282CD001281FD00028CC
:102170003AD101AE202130465CF7D7FF1D480778E1
:10218000411C30463A465CF7B7FF3B460A331848D5
:10219000294622465AF72EFC04464780002020702C
:1021A000201D31463A465CF7A7FF20461AE0114849
:1021B000468C0F480A23294622465AF71BFC4680C4
:1021C00001210EE00A480A23294622465AF712FC4A
:1021D0007D2101810021C180102181800821418061
:1021E000022101705AF721FC002009B0F0BDC04661
:1021F0000B0E0000CC8DFC0780B561F71DF880BD8B
:1022000080B560F7F9FF80BD80B561F730F880BD1B
:1022100080B560F744FF80BD80B560F7B3FF80BD37
:102220000020704780B560F72DFF80BD70B50C7839
:10223000172C0FD80125A5400D4E354201D00020A6
:1022400070BD012C09D0032C04D14878002809D096
:1022500000BEF4E702F026F9F1E74878002804D040
:1022600000BEECE7FFF750FDE9E7FFF723FAE6E7EA
:1022700000F08E0010B510465AF702FE002801D07B
:1022800000BE09E0054809210422012423465AF72B
:10229000B1FB04705AF7C9FB002010BD020D00000D
:1022A00080B560F790FF80BD002070470020704728
:1022B00080B560F7CEFF80BDF0B589B003931646B8
:1022C0000C46FD205EF794FF0290002800D100BE6E
:1022D00008A900270F70208860F7B6F805466088C7
:1022E000002800D000BE002D78D1FD20FFF76CFC47
:1022F000002800D100BE0399090A009108A90A78B4
:1023000014215143436859180B79022B24D10968D1
:102310000988394B99421FD10020059004902088EC
:1023200060F72DF8002800D100BE07A9002204ABF9
:102330004EF71AFE0120400207990140480A214643
:1023400060F708F8C5B2002D29D1E28808A8017805
:10235000009860F7DAF922E001968669002E3D4682
:1023600006D0A5886188A31D10462A46B0470546B9
:1023700005970497208804A94EF771FB002D019E54
:102380000DD108200499085E002807D46288A1882E
:102390002088A31D4EF7CDFB054600E00025002D4B
:1023A0001CD10298009F39465EF740FF0146A08885
:1023B000801D83B2114832465AF71CFB0546801D2A
:1023C000A288A11D5CF798FE08A800786880A08804
:1023D000A8802F7028465AF728FB002508480423B8
:1023E000039932465AF706FB8570218801805AF717
:1023F0001CFB002009B0F0BD022900000AFD00000E
:10240000160C0000F8B5204CFFF700F883490A8845
:10241000120707D48A1E12884023134006D0224692
:10242000563205E0224660325E3406E022465A32D9
:10243000002B01D0543400E058340026A35F945F91
:10244000072292010D881540954204D00988C905DC
:10245000490F0622561A00960C4F7843DD1929467B
:102460005CF7D0FD06467C43204629465CF7E0FD3C
:10247000311AB942084600D33846054A914200D97C
:1024800000200099C840F8BDCC8BFC07FFFF00007E
:10249000FEFF0100F0B587B005A90022CA718A715C
:1024A000032302934B710A71CA7002228A7048702A
:1024B0000120054608700846FEF7B4FF794C608895
:1024C0000821884360802088404901402180A088FD
:1024D00040273843BF218843A080608804263043CA
:1024E0006080FFF755F86088000700D500BE20889F
:1024F0000490608803900020FEF794FF60883043CA
:10250000608060883249014001956A0288186080C5
:1025100020883049014021802E0260883043C0214C
:102520000143618020883843208020892A4908405F
:10253000801820816089084000928018608120887E
:102540008021014321802088B0432080FEF75EFF78
:1025500021883143218002994E0280094000371AB8
:10256000B8B2850A0198800201903F208002029053
:10257000FEF74CFF002D00D000BE19492289029BB6
:102580001A403A4322814009144A1040301A019AF5
:10259000904200D300BE62891A40024362812088C3
:1025A00008402080FEF732FF81090F4A904202D88E
:1025B0000098401A01E00B480818082800D300BE14
:1025C000049820800398608007B0F0BDFFEF000002
:1025D000FFE10000FFFD000000FCFFFFFE07000020
:1025E000FFFE000000FEFFFF3F8000000721890181
:1025F0000A4A13880B408B4201D1102103E0118855
:10260000C905490F0A31128803231340E1229200C1
:1026100053439A185043C84080B270470215005087
:10262000F8B502252846FFF735FF1E49088801271F
:1026300038430880FFF7E6FE1B4C2085FFF7D6FFE6
:102640006085FD2040F7BFF801461848042200923B
:1026500008235AF7CFF90646858045804770608D7C
:10266000F0801348134DA847218D628D12A0A84712
:10267000608DC1B2020A1DA0A8470D48A847304688
:102680005AF7D3F907490888B843088000985AF7E1
:10269000F7FB032805D164201D49FFF7A7F802497D
:1026A0004874F8BD00150050508DFC0706FD000071
:1026B000DB59FC07FD0CF2075B4144435D2052658A
:1026C0006769737465722056616C75653A2025756B
:1026D000207C2053656E736F7220566F6C74616737
:1026E000653A202575206D56200A0D005B41444354
:1026F0005D204C53423A203078253032582C204D02
:1027000053423A203078253032580A0D000000003C
:102710002126FC0770B5EFF31085012484F310889F
:1027200005200607708DC00507D501F0D7FD1149BA
:10273000087011480088204048703088802101438B
:1027400031800E48016807229143016041684907C2
:10275000FCD53188090600D400BE09490161094948
:102760004161002D02D084F3108870BD002080F3F9
:10277000108870BDC062FC07800000500000F407A4
:102780000F009909090404A470B5174EB06800F051
:102790002DF834490A6C00230B641518084C2846A0
:1027A00021465CF72FFC706106494143481901D06E
:1027B000201A80B23061306808210143316070BD59
:1027C000710200008FFDFFFF80B506480021016007
:1027D00001F04EFD0120C00703490A6882430A60E8
:1027E00080BDC046A8B9FC073000004080B5024655
:1027F000C00B09D01B48006D00210B465CF72CFC78
:102800008905800A401880BD1648006D4243900A31
:1028100080BDC04680B5FFF7E9FF80BD80B5114996
:10282000896C41430248081802495CF7EBFB80BD04
:1028300020A1070040420F0010B501468000094A60
:102840001418606D002800D010BD543409020A31FC
:10285000054804221E235AF7CDF8FF2108310180D4
:10286000206010BD508DFC07140E000000B59DB017
:10287000A649C8201690088000204880A449082353
:102880004B80A44C1A901A98002811DC0020199053
:1028900019991A980B2909DC3021414360181999BC
:1028A0008900002242501998401CF0E7401CE9E7DB
:1028B000179361690020C343012200291592154630
:1028C00000D01D466A01FA4FBE6E16432A46FD6EC1
:1028D000BE661392D60E00291F4600D10F4679011D
:1028E00089192943F24AD16661680029159F00D0F1
:1028F0001F46FD0F00291E4600D10E4671004919E2
:10290000EB4DEA6E0A43A96EEA667A000A43AA66AC
:10291000E1690029159A00D01A4612971492550EB3
:1029200000291E4600D10E46F1014919E04DEA6E1C
:102930000A43A96EEA66149AD2010A43AA66A169FB
:102940000029159F00D01F46BD0E00291E4600D14C
:102950000E46B1014919D64DEA6E0A43A96EEA66E0
:10296000BA010A43AA66256A002D159900D01946B6
:102970000E0E002D1A4600D12A4612029219CC4E94
:10298000F56E1543B26EF5660D021543B566129AE3
:102990006260139A6261A761149AE2612162616ABE
:1029A000002900D015931493159B5A02C04FBE6E98
:1029B0001643FD6EBE66DE0D149A002900D10A464C
:1029C000510289192943BA4AD16615996162D066C4
:1029D00090661A901A98002835DC002019901998F2
:1029E0000B282DDC19981A990B2829D830201A9910
:1029F00041436118199A92008958491C00D100BEC0
:102A00001A9941436118199A92008958002914D0E3
:102A10001A9948432018199989004058C117199AE2
:102A20005CF7AEFB1A9A12015CF7AAFBA04BDA6EB8
:102A30000A43996EDA66014399661998401CCDE7FE
:102A40001A98401CC5E7B24E308818AC2080208808
:102A5000C046C046208804211491C943084202D0D0
:102A60000020308003E0B08901218843B081179BAA
:102A7000B08BA849014007200D90C0020818B08310
:102A8000A54D288818432880E88D06229043E885C4
:102A90000124A003B18B0143B18328889F490140E1
:102AA00029806888029210439843688005200A9024
:102AB00000070646418D9A4AFF32E88D10407D227C
:102AC000D2000F2712973F03C9051594069203976A
:102AD00022D4032149020843E885E88D3843E8857C
:102AE0008B4A908B98439083908B042188431346A4
:102AF000908368888B4901406980E88D2043E88590
:102B00003746788D4007FCD520E0C04600310050A4
:102B100000330050208DFC0710181830E885E88D30
:102B200081490140E0030818E885794A908B1843F1
:102B30009083908B149988439083E88DA043E88517
:102B4000908B40218843134690833746159A100294
:102B50000E901C46988B0321139108439883288874
:102B60002021084340230F93DB4318402880208C0A
:102B70001191084318402084F88A80210891084365
:102B80001840F882388EFF21049188433886388FA8
:102B9000149C20431821079188433887388FA0213F
:102BA00001430B931940398760480480B888604915
:102BB0000140B98010045F490860FFF7ABFD5E4B30
:102BC00018680D9908401AA90870087802280A9C0C
:102BD0003D461FD0688D0E99084213D001F07EFB50
:102BE0000A2802D80B2001F083FB4B48C08DC00798
:102BF000514B07D14849C88D159A1043C885688D37
:102C00004007FCD5186802210143A14319605868A8
:102C10004007FCD549480068C1B20C20AA290146EA
:102C200000D014992A88824388182880C046C0465C
:102C300043480068434909886823434C00220992AD
:102C40000C93E2521A4B1A465832918098651598A7
:102C5000C046C0463D4F381F00683D49884200D0FD
:102C600061E11298040704200021059110940346A5
:102C70003918081F3A46EC32904200D356E11493BB
:102C800000681990199B234009200407199AA34250
:102C900071D1199B1C0AE3B21293D2B2531E162BA8
:102CA00000D906E19B0003A7FB58284F9F46C0466A
:102CB000508DFC07E72EFC07E72EFC07B32EFC0720
:102CC000E72EFC07B32EFC07552DFC073B2EFC0717
:102CD000B32EFC07B32EFC07B32EFC07B32EFC0764
:102CE000B32EFC07B32EFC07B32EFC07B32EFC0754
:102CF000B32EFC07632EFC07032EFC078B2EFC076C
:102D0000F72DFC07B32EFC07A92EFC07292EFC0784
:102D100004030050FFC3000052000050FFBF00003A
:102D200000F0FFFFFFF90000FF0F0000000200505D
:102D3000FFF7000080E200E00000F407D07FF80712
:102D4000D47FF807D87FF807CC8BFC07D47EF80730
:102D5000A5A5A5A5BD4D0C9FE85DC0002818129A39
:102D600092005CF7C9F9E85D0019E855C0B2052882
:102D700074D300BE72E0900F10D01998B449884205
:102D80000CD8149B1846083029462831199A8A42D3
:102D9000109C26D1D959AF4A118068E71998109C28
:102DA00020400D990907884205D10020C046C04641
:102DB0001498001D5BE7199820401599C9078842AF
:102DC000149A0CD0199820400A994907884206D0D5
:102DD0001998204013994907884200D093E0101DAC
:102DE00045E7A91C199A8A4200D083E0D959662286
:102DF000964B99523BE71498C0596221934A50521E
:102E000071E0149AD1594843D259120C801A00B279
:102E1000C0085A238D4CE052501A81088E4A114046
:102E20000818401C58212EE01498C0596421874A84
:102E30005052000457D100BE55E06927834DE85D2C
:102E4000C00028181030129A92005CF755F9E85D1E
:102E50000019E855C0B20D2800D300BE35467F4F9B
:102E600041E0149AD1594843D259120C801A00B249
:102E7000C0085623754CE052501A8108764A11401A
:102E80000818401C542160522DE0059CA0001AAA8D
:102E90001018129A92005CF72FF9129804190594F1
:102EA000032C20D300BE1EE01498C0596749086562
:102EB00019E01E2A17D1129840080206CFD00B68DD
:102EC0004A68083100273C460834382C09D05F4D49
:102ED000EF1935463F699F422746F5D15B4B1B19D9
:102EE000DA60401EE9E71298800014990818001D66
:102EF000109CBCE629462431199A8A4209D1D95935
:102F0000544A5180B3E61998401C0FD000BE1046B9
:102F1000ADE629462031199A8A4200D0A7E6D95950
:102F20004C4A9180A3E66620255A38E05C201A9925
:102F3000464C215209201B9948430A0C801A00B2C2
:102F4000C0086023E052501A8108434A1140081813
:102F5000401C5E2160520C9AA05CC10701D000BEEB
:102F6000A05C4008A0546920215CCA0701D000BEC3
:102F7000215C490821546420215A002901D1069975
:102F800021526620255A002D354909D13549096855
:102F9000C9B2AA29089D00D06E252C490D5230498E
:102FA000CD833746B08C159CA043B0840D20FDF72F
:102FB000E3FF7089204302210C9188437081788956
:102FC0004006FCD57D800698FDF7D6FF78891399D9
:102FD0008843788178890006FCD57F2020490871D4
:102FE0002048806920498860EFF31085159880F3A8
:102FF000108838880899084338801C4908680D9A59
:1030000090430860099B48684007FCD51848086150
:10301000184848613088089988433080708D0E992F
:1030200008420CD0104C207801F062F9099B12493B
:103030006078002803D1C88D159A9043C885002D6B
:103040001CD0159880F310881BE0C046CC8BFC0781
:103050004C420050A000FC07FF3F0000D47EF80760
:10306000508DFC07D07FF807C062FC070000F40712
:103070000F009909090404A452000050002080F3B5
:1030800010880A9CEB480068EB49884200D0C7E0F2
:10309000EA48EB495CF749F80D980102E9485CF70A
:1030A00044F8FDF723FDE848E8490160E848E949AC
:1030B000302214925CF720F8E7480025C57185712D
:1030C00045710571C570857045703F21059101708E
:1030D000E248E3A10F9F3A465CF70EF8F04805700E
:1030E000F048F1490160F148F1490160F149F248C5
:1030F0000860F2480A210170F14812950570F14804
:1031000032210A910170F0480460F048159D056075
:10311000EF480460EF4802990160EF480D990160A3
:10312000EE48179C04600E98801DED490860ED493B
:103130000860ED48C149016000F0D0FB22463446EA
:103140003089149988433081308908990843308147
:10315000308910433081308CA843308470890799BE
:1031600088437081308938433081308A0421884314
:103170003082A08A8007FCD50399FF31E08C08409B
:103180000B2109020143E184E08C159B1843E08484
:10319000608910431021099188436081608C9843B5
:1031A000608420890F9988432081D04837309A075E
:1031B000116801401492116005984002CC4A1168D0
:1031C0008143580308181060CA48401C1168014325
:1031D00011609848006898498842129C3BD0C248C8
:1031E0000068C3498860C44A90681071010ED171AB
:1031F000010C9171000A50710E98C030BF490A4607
:10320000002817D0401E435C14782546139F3D408C
:10321000B94F7D192D795D4065401570521CEFE75F
:10322000B748B6496202934200D931E71A585A505A
:103230001B1DF7E7B04D1C35B0491C2228465DF731
:10324000EFFE0028129C00D000BE28465DF77CFEF1
:10325000784879490160A44800683EF7FBFFA94D12
:103260002C71EC70149A10680E9908431060FEF7E8
:103270001BFC159800F030FCA3490878002802D008
:103280000898487004E00020E870A04908709E4942
:103290000C674C678C679E4D079A2A70681C9D4985
:1032A0005BF72AFF6C8404259B49284659F7A1FD4A
:1032B000954870300499817010952846214659F739
:1032C000CAFD91488474047444628462448460F743
:1032D0000FFA8D490878002804D0812048708F4D5E
:1032E000159F05E0159F8748C770884807708B4D6C
:1032F000FFF76AFA0520FDF7EBFD16982880884A4B
:10330000179B5380874888490818884940188008C7
:10331000401E0790059880020190F80313907A49A7
:10332000834F35462E462889000600D435E114988F
:10333000006B2546139C20422C4600D02DE171489D
:103340000088C00700D028E10F465AF756F800243D
:10335000204600F0C1FBB87A042800D016E1159F82
:10336000384600F0B9FB0D94199419A804214AF7C6
:10337000E5FB002800D109E16E490F6008680028CC
:10338000FCD11498C069604BD96A884201D20D996A
:10339000D962411ACA09D97A182A41D9C90742D132
:1033A0005949C862644C2088059060880490A088C0
:1033B0000390E08802900D981B9060481A901AA81C
:1033C000FEF730F806981730218901404E4A918265
:1033D00061890140D182FEF7DBF820880C9908430F
:1033E000208020888007FCD4E781208A42494988D0
:1033F000454A928A2389019F3B4013432381424AD5
:10340000D28A63893B4013436381401A0699414342
:10341000002800DD96E04A4A8918C017084093E06A
:10342000C80700D1B2E03849086B401C086300F0BF
:1034300001FDABE09CB8FC076587341200A0FC07D7
:10344000AC14000000B9FC0760BAFC07DC50FC07B4
:1034500000BAFC077CFCF107DAB9FC07B0BCFC073A
:103460002000800000C0000000008400000028222E
:10347000000000000000040000F7FFFF7F000000D4
:1034800030F0FF0F0000000000040000000000000A
:10349000000000000000000000000000000000002C
:1034A000FDB9FC0750B9FC07603FF20754B9FC07AF
:1034B0008452FC0758B9FC075451FC07B0B9FC070B
:1034C000B1B9FC07D9B9FC075CB9FC0760B9FC07C6
:1034D00064B9FC0768B9FC076CB9FC0770B9FC0754
:1034E00048B9FC0744B9FC074CB9FC07C8FEFFFF0C
:1034F00000020040FFFF1F00C062FC07408EFC0777
:1035000000B0FC0754BAFC07508DFC07B4BAFC07A6
:10351000CC8DFC07C45CFC07744DFC0700310050E7
:10352000003300509C5C00001001FC07030004F80D
:1035300004030050FC00004000150050010400008E
:103540002BFDFFFFCD480818CD495BF771FD8509BC
:103550001935BD4908797F280ED0281A41B2C91102
:103560004840401A40B2052807DBB74F386B401C73
:10357000386300F05FFC39460D71BD480499418005
:10358000039981800299C180059901805DF7C8FB8C
:10359000AC4A179BAC49AD4F129C1380887C002825
:1035A00008D13220B749FEF721F9A749179BA54A50
:1035B00015988874538072B6AB480079022820466B
:1035C00002D0A5480068806A1A901089C007354665
:1035D00000D030E158F7DDFF9B49179B994A00283E
:1035E00000D128E1A048C078012800D0B0E0A88A26
:1035F000C00700D094E09C480088002800D0A7E0D5
:10360000A148806A002803D093480068806A1A9015
:1036100000F02EFE944881781AA859F7B2FD0028D0
:10362000884A179BFA4900D192E014980069400635
:1036300000D58DE08C4881781AA84AF77FFAF449C2
:10364000179B804A002800D182E00198FF30894A08
:10365000118801400E98014311801A980028149C8B
:1036600006D0216A7D4A8918DA2901D8401E1A90AD
:10367000E748008C774AD16808181061E06B834BEB
:1036800018400843E063E06B8149084051698902B2
:103690000143E163E06B734908401169490508186B
:1036A000E0631A9A7B48824200D300BED849086E74
:1036B000496E00235BF7D0FC0903000D41186548F3
:1036C0004069821C8A4200D0481E674909794A1E17
:1036D000914146F749F97048C06A80471399206BB9
:1036E0000842FCD0574A0E995D4C20680842FCD035
:1036F00020680899884320605089452804D84621CD
:103700005181081AC24908643EF7DFFDA068C0492C
:10371000C86320680006FCD5288908998843288159
:1037200052480178288A109B18432882524A106810
:103730001843106038893A46159FB8431081688A4B
:10374000012907D10999884368820E993F4F2DE0DE
:1037500030BF70E0099C20436882688A1843688201
:10376000FEF7D8FF688A20436882394807990162CA
:10377000EFF3108087F310882988089A91432980F5
:10378000002802D087F3108802E0002080F3108820
:103790000E992E4F688D084208D00B2000F0A8FD2E
:1037A0008A49C88D159A1043C8850E990020288330
:1037B000688D084206D1854908880F9A1043119AEE
:1037C00090430880388C0F990843119988433884B6
:1037D000A88C159FB843A8840D20FDF7CDFB688900
:1037E00038430C998843688168894006FCD50A985B
:1037F0006880A88AC0061349179A00D50A8030BF8E
:10380000A88AC006114F00D54A8070490888119ACD
:1038100010430B9B18400880388C104318403884A4
:1038200000F05CF8179B074A134C206810998843F6
:103830002060BD49129C62B61698014E308071E539
:103840000031005000330050508DFC07040300503D
:103850000000F407C062FC0758B9FC07C8FEFFFF70
:1038600000020040FFFF1F0054BAFC07B4BAFC0777
:10387000001500503830005010ED00E0D502000077
:10388000AA050000194AFC0774BEFC0700FCFFFFF4
:10389000FF03E0FF40420F0058BFFC0710B569214D
:1038A0000D48415C143000228A4206D20368041F8E
:1038B000246823600830521CF6E710BD10B568215B
:1038C0000548415C00228A4204D218C81C600030BE
:1038D000521CF8E710BDC046CC8BFC07F8B53A4D3A
:1038E000E88CC00510D4032000F002FD3748C18DDC
:1038F00001220A43C285E98C4907FCD501882022B0
:103900000A4340218A430280314832A118225BF7E2
:10391000F3FB36A038491CC81CC1FDF7E0F8374856
:1039200037490160EFF31080012484F3108829885F
:1039300040220A432A80002802D084F3108802E043
:10394000002080F310882F4801882F498A8980231E
:103950001A438A812D4A0B251580082200920A807D
:1039600000258D808A899A438A8103228A818483F3
:10397000058485846C488563047217021D22254ED8
:10398000204639462346B0470520042239462B46B7
:10399000B0476548037C6340072039462A46B04754
:1039A00006200F2229462B46B04717220098394699
:1039B0002B46B0470920182239462B46B0471648F7
:1039C000018821430180F8BD0400005052000050DE
:1039D00020000840F99DF00700000000E3A1F10776
:1039E000000000004FA4F107000000000D05FC07D7
:1039F0003B08FC074B09FC07C000FC07000008401F
:103A0000070010007C11005000110050C011005040
:103A1000508DFC07E110FC070C030050054988425B
:103A200000D000BE04480188044A11408918091DCD
:103A3000018070471111111112000050FC7F00002D
:103A4000F8B504460026234F302E0FD0BD19E88A62
:103A5000FD2801D1064969605DF750FC002803D0BC
:103A600082682846214690471836EDE7F8BDC046E3
:103A70007850FC07B0B50025164C002826D1012D42
:103A800026D8FF20E082002020606060A060E06017
:103A9000206110202843C0B2A082214659F7A9F91D
:103AA00018346D1CEBE7E08A5DF728FC002802D093
:103AB0004168204688470020E0816060A060FF20C8
:103AC000E082207D59F7EFF918346D1C012DEAD9F9
:103AD000B0BDC046388CFC07B0B5D04DE97801299F
:103AE00021D11249002803D008884007FCD402E005
:103AF0000888400717D40023EB70C8888988000421
:103B000044181F204006492122465FF7A9FC286679
:103B1000696664214143080CA86405486043800B32
:103B2000401C40082865B0BD508DFC0700160050B1
:103B30001111010010B5F24C082020701120FDF782
:103B40001BFA0320607010BDFEB5624803250570A6
:103B5000614C20461438016814220A436B218A43C1
:103B60000260A06A5D4988610020C043A0622068AD
:103B70003F218843206020685949084020606068E0
:103B80005849084001210191890202914018606062
:103B9000606840210143302081436160A06952493F
:103BA00008400B2149064018A061A0694F49084010
:103BB00069024018A061A0691821014327208143B0
:103BC000A161432020714A4880474A4880474A48BB
:103BD0008047404805700095484806684848804737
:103BE00048488047206848490840F105401820604F
:103BF0003B4E403620683040490C40182060412739
:103C00002771606837490840029940186060384859
:103C1000804738488047384880472E4805703748E5
:103C2000056837488047374880472068364908404C
:103C3000E9054018206020683040490C4018206099
:103C40002771606827490840029940186060284839
:103C5000804728488047284880471E4800990170BF
:103C6000264800682168284A1140C2058918216049
:103C700021683140254D0540A80108182060606882
:103C8000019988436060154EB069A06220681C21CC
:103C900001432320814321602068114908402060AE
:103CA000A06911490840072189064018A061A06950
:103CB0000E4908400F21C9014018A061A0691E21CA
:103CC000014321208143A1610D4880470D48804771
:103CD000F586FEBD0510004018300040C062FC07AC
:103CE000FF7FFFFFFFF9FFFFFFFFFFC03FF0FFFF78
:103CF000ED1DFC07B51EFC075B0FFC07883000407C
:103D0000C91DFC07470FFC07FFFF7F00FF010000F4
:103D100070470000F0B58BB03022002181541F2283
:103D20001204344B1D68954301246204AA181A60DA
:103D3000324B334D4561334D334E344F344AC261BB
:103D4000066243622C4A8262C562324A0760426060
:103D5000E004C74A136883431360282903D001A8ED
:103D60004154491CF9E72C480068403001A9282239
:103D70005BF7C2F9C24D6C73FFF7DCFEFFF79EFDE7
:103D8000FFF78CFD00F07EF900F074FB00F06AF89C
:103D9000FFF7DAFEEC722248008807210140297300
:103DA000FDF76EF8FDF756FEFDF768FE1D490B881E
:103DB0001D4804681D4A1440E31803601C4B1C880E
:103DC000856915402C1984615B88C4691440E31827
:103DD000C3614B8A046A1440E3180362898A436A08
:103DE000134059184162A4480221817000210180CA
:103DF0000BB0F0BD74000040613EFC075D3EFC0767
:103E0000493FFC072D3FFC07ED12FC07053FFC076F
:103E1000073FFC07113DFC074CB9FC07508DFC0720
:103E2000B81000401030004088A0FC070000FFFFE1
:103E30006430004080B5FFF77DFEFFF72FFD00F0F6
:103E400021F900F017FBFDF71BF8FDF703FE8A4888
:103E5000022181700021018080BDC0460020704792
:103E6000704700000E4908880E4A024001204302B4
:103E7000D2180A8041057E4A13688B43136081077C
:103E800000224A671F2212044B6F93434004181804
:103E900048670868E0220243102082430A607047A6
:103EA00038300050FFFC000080B51F2000040121C5
:103EB0008A07536F83434804181850671068072116
:103EC000884310600D48018808220A430280FFF7EA
:103ED00031FEFFF7F3FCFFF7E1FC00F0D3F800F050
:103EE000C9FAFFF7BFFFFDF7C9FD634802218170E2
:103EF000002101800520FCF7EBFF80BD0800005089
:103F000004100040704780B5E62800D3E62028283A
:103F100000D82820F9214A0042437D20C1001046E4
:103F20005BF770F87F38C0B280BD000005480168BB
:103F300007220A430260012080044D490A68824337
:103F40000A60704730000040022902D0012900D0E9
:103F500000BE002802D0FF2804D000BE022901D1F3
:103F60000C207047D848407B002800D009207047BB
:103F7000F8B53F480168C90703D0016802220A4327
:103F8000026001240168490203D5A10502680A43C1
:103F9000026027026502374900950846083806681E
:103FA000002E63D0300606D58020086049F76FFCEC
:103FB000FDF77AFD2F49B00704D50220086045F7C8
:103FC00064FB2C49300714D508200860FCF74AFD33
:103FD0003D4627460024204645F710FB254904208E
:103FE000DC4A90720220244A907014803C462F468E
:103FF000009D3E4204D00F60012045F7FFFA1D49A5
:104000002E4203D00D6049F7ABFC1A49700604D567
:104010004020086045F7EDFA1649F00604D5102057
:10402000086043F7A9FE134970070FD50420086004
:1040300012490888A043088059F746FA3EF700FB6A
:10404000FDF732FD0B490020C24A9072F00707D0FD
:104050000C6059F755FA49F71AFC0649BD488472B5
:10406000B0069AD52020086000BE96E7F8BDC0468D
:1040700000020040180000400410004008330050C7
:10408000508DFC07FCB57F2000025A4A51698143DC
:104090000B20000208185061106880B25649401881
:1040A00010609069554C044001235803009020187B
:1040B0009061032001900002146B04431463908FFD
:1040C000102404439487908818439080F2484C4A07
:1040D00002604C4A104610384B4CA58B0540152009
:1040E0004301E8185030A0836069484D05404848B6
:1040F00028186061A069474D054009204002281832
:10410000A0612068444D054044482818206060683C
:10411000434D0540434828186060A068424D054063
:1041200042482818A060E068414D054041482818E1
:10413000E060CB48407B002802D1C120400100E074
:104140003D483E4D2860052080023D4F3880401D8F
:10415000B880388C55260643AA2086433E84FF2625
:104160006C363046C9303885364908460E30B88539
:1041700035483886B986C01D388734482085A06BFD
:104180003349014033480818A063334C2680208F00
:1041900010401F462037C019208730480188114041
:1041A0008919D531018081881140C9188180018920
:1041B0001140C91901812136A68029480188114082
:1041C000C91860310180818A19220A4306218A4375
:1041D0008282A88F2349014000980818A8872248A6
:1041E0000168019A11430422914301601F486866E7
:1041F000FCBDC0462030004000008888FF00FEFF64
:1042000059055C071FFCFFFF042000400000E0FF91
:1042100009581A00FEE1FFFFE0E000000809294903
:1042200000000303696A686C031FFFFF70600000F1
:10423000E0E0E0E00B0A0A08201800090010004046
:1042400028130040260A000051080000070F000054
:104250002F64E0FE101A06010012004044120040D4
:1042600088120040FF9F0000801000405001500164
:10427000F8B5642013490E5A794FBC6C3046604340
:104280001249401812495AF7BDFE054638843C369B
:1042900066430E4830180E495AF7B4FE001D0D490A
:1042A000C8602818C01D48612C4A1278022A01D122
:1042B00011304861FEF79AFA0749401880B259F761
:1042C0002DF9F8BDCC8BFC07508DFC0720A1070011
:1042D00040420F00C062FC07E20400000D48018864
:1042E000890918220A4000888004400F801870470E
:1042F00008490A88084B1340F822024092011A43E9
:104300000A800A88054B13404007800C1818088063
:104310007047C04654000050FFF90000FFC700007E
:104320000A490A88012082430A8009490A88082329
:104330009A430A804A490A78002A02D081204870AC
:1043400070470549C870054908707047223400500D
:1043500004000050508DFC0754BAFC07B4BAFC07A7
:10436000F8B505464078652801D300BE6878204E30
:1043700031884F1C784364215AF744FE0446A878DC
:10438000652801D300BEA878784364215AF73AFE25
:1043900029784B1E052B29D831460E31B21C9B00C3
:1043A00001A5EB589F46C046E743FC07C143FC0705
:1043B000CF43FC07D743FC07C743FC07DF43FC0799
:1043C000321D103605E0314616310A360AE0B21DBC
:1043D0001236314607E031461431083602E03146E4
:1043E00018310C363246108000190880F8BDC046DE
:1043F0000834005070477047024801884906FCD5D0
:104400007047C0461411005017480188012291439B
:104410000180704710B5124B00249C8358639A6347
:104420001983104908200860BFF34F8FBFF36F8FC7
:104430000D490A88022414430C800A8880241443FE
:104440000C80197A4A1E9141C907FF221206074BB8
:104450001C689443611819600549086010BDC04686
:10446000508DFC0780E100E00411005000E400E002
:1044700000E100E018B50848016800910099074A7A
:10448000009B1A40FF2424040C40D9B20919044BA4
:10449000C9181143016018BD8000004000FF00FFF3
:1044A0000A000A00F0B587B00C46F049884270D087
:1044B000EF4988423FD0EF49884200D032E160881E
:1044C000C11E092900D9B0E04900C0467944898855
:1044D00049008F44090027012701200127012701F6
:1044E000C500270127010701E44F387C012800D1CE
:1044F00015E102AE00253580A288A11D30465AF78D
:10450000FBFD3488D64821465CF7F8FB002C00D12F
:104510003EE1012C00D005E1042058F7B1FC03284E
:1045200000D0FFE0CF485CF7E9FB6420CE49FDF7FF
:104530005DF9054683E160880F2833D002285DD1FC
:10454000CE4D287C012800D1E9E0EE48DC4EB04792
:10455000298D6A8DEC48B047688DC1B2020AEB48DC
:10456000B047FD203EF72FF90146E44804220A2314
:1045700058F740FA21780C224A43A9187222895C24
:104580000170618841800221818000218171698DE3
:1045900030E0B948022519462B4658F72BFAA18876
:1045A00001803FE0B54D287C012800D1B7E0B4A0E0
:1045B000C34EB047698CAA8CC248B047A88CC1B220
:1045C000020AC1A0B047FD203EF7FDF80146CB48E6
:1045D00004220A2358F70EFA21780C224A43A9181C
:1045E0007222895C017061884180022181800021F2
:1045F0008171A98CC171090A017213E0BF480825B5
:1046000019462B4658F7F6F921780C224A439B4964
:1046100089187222895C0170618841800021818043
:104620008021817158F701FA7CE010287AD1934EED
:10463000307C012873D006AD00202880A288A11DFF
:1046400028465AF759FD2988F184B1485CF756FB92
:10465000F08C012800D1C4E0002863D1AE485FE0AF
:104660008648007C01285AD0A188042978D1607A34
:104670000090267AE779A479B148914DA847B148CE
:1046800021462246A847B04839463A46A847AF488F
:10469000314601963246009EA847AD483146324623
:1046A000A8476421642F00D30F4604A88770642CA8
:1046B00000D30C46447001220270642E00D30E46D3
:1046C00003ACA670019A642A00D30A4662700221E4
:1046D0002170FFF745FE2046FFF742FE9D487849CE
:1046E00088471FE0654E307C012818D005AD0027B3
:1046F0002F70A288A11D28465AF7FEFC87485CF758
:10470000FDFA2C788648214622465CF7F7FA012C00
:1047100028D9844804E05948007C012804D178480D
:104720005CF7ECFA07B0F0BDA18804292BD12689EB
:10473000E579A4798948624FB847894821462246DD
:10474000B847884829462A46B84776BA8648314647
:104750003246B847032C01D8022D44D38748DFE7FF
:10476000764811E039D17148018808220A43028055
:104770006F48018801220A4302803078002857D010
:104780008020707058E0744804225CF7B7FAC9E7DB
:104790007B485CF7B3FA7C7C002CC3D00A2C45D84C
:1047A000A00078494618306A002847D076498842E8
:1047B00044D0203675482018401C0421019158F738
:1047C000A2FC714830600823704801990A4658F7E6
:1047D00011F9047058F729F931E0FFF7A1FD5248AB
:1047E0009EE74C489CE751480188032291432143AE
:1047F00001804F4F388808218843E906090E01439C
:10480000398038880421884338805848864200D34C
:104810000646022E00D802265548314632465CF73D
:104820006DFA012D0DD07D2005020BE000BE06E0E3
:104830004148C770D84807703E4871E700BE7D7494
:1048400070E74C4DE540284631465AF7DBFB014600
:1048500028465AF7D7FB401E1A3F388046485FE784
:104860005F59FC075C56FC072126FC070D0C000075
:1048700004FD00000AFD00000E0C0000508DFC0736
:104880005B52454144204241545445525920564FB1
:104890004C544147455D2052454144494E47206CA8
:1048A0006173742073617665642076616C75652030
:1048B0006F6620626174746572792E200A0D0000A3
:1048C000FD0CF207C858FC075B52454144204241A9
:1048D000545445525920564F4C544147455D204C45
:1048E00053423A203078253032582C204D53423AEA
:1048F000203078253032580A0D00000005FD0000F8
:104900000E59FC076C57FC078458FC07235AFC0718
:104910008359FC073958FC070C58FC070957FC075A
:104920001255FC076658FC078256FC07040000502D
:10493000223400509D56FC0754BAFC07F255FC0780
:104940004557FC071454FC074754FC077E54FC07EA
:10495000B154FC07DA57FC07B755FC072757FC078B
:104960003B55FC07E854FC076555FC07FF3F00007A
:10497000A859FC070024F400B157FC07B756FC0700
:104980003656FC07CC8DFC07F543FC0702040000FB
:1049900010B5044607A05CF7B1F90C2060435649F6
:1049A00008187221405CFF2800D010BDFCF7AEFE55
:1049B00010BDC0465B424C455D2050686F6E65205F
:1049C000636F6E6E656374656420746F204441315B
:1049D000343533312E200A0D0000000080B503A0CD
:1049E0005CF78CF9FCF792FE80BDC0465B424C45FB
:1049F0005D2050686F6E6520646973636F6E6E65CD
:104A0000637465642066726F6D20444131343533C0
:104A1000312E200A0D000000F8B50520FDF73AFD03
:104A2000344D2888012738432880FDF7EBFC324EAF
:104A30007084FDF7DBFD0446B0843048844205D81D
:104A40002888012188432880FFF76AFC2C4884428B
:104A500000D3002737742B482B4CA047718CB28CA5
:104A60002AA0A047307C002801D138A100E035A160
:104A700038A0A047F08C01281DD1042058F700FA77
:104A8000032818D1B08CC1B2020A3F485CF736F94E
:104A9000FD203DF798FE01463C480422082357F7C5
:104AA000A9FF022181800F21418001214170B18C39
:104AB000C18057F7BAFF2888012188432880FFF773
:104AC0000DFC8000324909583248A047324800782E
:104AD000411E4A424A41022800D1024690002FA1BD
:104AE00009583148A0470748A04732202F49FCF712
:104AF0007DFEF8BD00150050508DFC076B070000CF
:104B00006C070000DB59FC07FD0CF2075B555650A3
:104B10005D2052656769737465722056616C7565B6
:104B20003A202575207C2042617474657279205684
:104B30006F6C746167653A202575206D56200A0DEB
:104B400000000000747275650000000066616C73FF
:104B5000650000005B5556505D2053797374656D98
:104B600020756E646572766F6C746167652073681A
:104B70007574646F776E207374617475733A202551
:104B800073200A0D00000000545AFC0706FD0000C7
:104B9000A44CFC07755AFC07B4BAFC07F05AFC0792
:104BA0000D5BFC07465BFC078F55FC07194AFC07A9
:104BB00002E008C8121F08C1002AFAD170477047E6
:104BC000002001E001C1121F002AFBD17047000044
:104BD000034880F3098800F025F8FBF799FAC046EE
:104BE000186BFC0704207146084203D0EFF30980DC
:104BF0000A490847EFF3088008490847704704202E
:104C00007146084203D0EFF3098005490847EFF3E6
:104C10000880034908477047FEE700002D12FC0793
:104C20009511FC071A49888807229043888005203F
:104C300000078A89D2070DD0098800290AD11549B1
:104C40000A8802854A88828489880184418A124AB6
:104C50000A404282114906220A800121CA03104BF0
:104C60001A60BFF34F8FBFF36F8F02221A60BFF33A
:104C70004F8FBFF36F8F1960BFF34F8FBFF36F8FED
:104C800041890422914341810021018062B670472D
:104C900004030050A000FC077FFE00000034005019
:104CA00080E100E0E15BFC07A15BFC07215CFC0705
:104CB000695BFC07F15BFC07B15BFC07315CFC073F
:104CC000795BFC07095CFC07C95BFC07495CFC07D6
:104CD000915BFC07115CFC07D15BFC07515CFC0796
:104CE000995BFC07F95BFC07B95BFC07395CFC07C7
:104CF000815BFC07015CFC07C15BFC07415CFC07B6
:104D0000895BFC07195CFC07D95BFC07595CFC0755
:104D1000615BFC07E95BFC07A95BFC07295CFC07FE
:104D2000715BFC07B86D36FFEA30B9A7BE4148EEAB
:104D30009644FFFE72508A2DCACF9CB6514F07BCD5
:104D4000F60DFF3AF05D4D6FB66A9B983342B3F2B1
:104D5000F60F2FC8422D1B1C460226B4D04A1ED582
:104D600025F9C32D358C6830BB00EC89464B67F2C2
:104D7000C4A7F4FE00000000844DFC07708CFC0703
:104D8000040001008C4DFC0701000000FFFF000043
:104D9000A932F20702140000FD1DFC07010D0000FE
:104DA0007522FC07000D00002D22FC07000E0000FC
:104DB0008520FC07010E0000A920FC07030E00005F
:104DC0001121FC070A0E00005D21FC070C0E0000FB
:104DD0001922FC071C0D0000A122FC07100D000089
:104DE0002522FC070F0E00000122FC072C0E0000FC
:104DF000F921FC07120C0000B122FC07080E00008C
:104E00000922FC071B0E00001122FC071918FC07E1
:104E10009118FC073918FC077118FC079516FC0758
:104E2000E915FC07F8000000130E00001D20FC0728
:104E3000150E0000F51EFC07170E00005921FC0797
:104E4000190E00004121FC07150D00002122FC076E
:104E5000210D0000AD22FC07220D0000A922FC0755
:104E6000080004900000000000000000030005D0CE
:104E70008B0035F010005CF0000010B0000018B09E
:104E800000001AB0030051F0000038B000003AB042
:104E9000000064B0000066B0000022B0000024B042
:104EA000010005D0000000000A0000800803049003
:104EB000000004F0030006D0000000000A0000809B
:104EC00008030490000004F0030006D00000000076
:104ED0000328002802290129FD000000104FFC07CB
:104EE00012000000B515FC070000000000000000E3
:104EF00000000000FF0000000000000000000000B3
:104F000000000000000000000000000000000000A1
:104F1000D24EFC071000000001000000100010003D
:104F2000CB50FC07D04EFC0702000000010000003F
:104F30000000000000000000644DFC0710000000AD
:104F4000010200000280000000000000D44EFC07B7
:104F50000200000009000200020000000000000042
:104F6000D64EFC0702000000010000002A002A00C3
:104F7000995AFC07D04EFC07020000000100000017
:104F80000000000000000000444DFC07100000007D
:104F9000080002000400000000000000D64EFC07DC
:104FA00002000000010000001B001B00795CFC07F0
:104FB000D04EFC07020000000100000000000000CD
:104FC00000000000344DFC07100000000800020043
:104FD0000400000000000000D64EFC0702000000A4
:104FE000010000002C002C00955CFC07D04EFC0753
:104FF00002000000010000000000000000000000AE
:10500000544DFC07100000000800020001000000E1
:1050100000000000D64EFC07020000000100000066
:1050200017001700615CFC07D04EFC07020000006F
:10503000010000000000000000000000244DFC07FB
:1050400010000000010200000280000000000000CB
:10505000D44EFC070200000009000200020000001C
:1050600000000000D64EFC07020000000100000016
:105070002B002B00C45AFC078050FC0709000000DD
:10508000130C00004B29F207150C0000B922FC0795
:10509000170C0000572BF207000C00002328F20722
:1050A00006FD00005728F20703FD00003728F2072D
:1050B00008FD0000B328F2070EFD00000F29F207DB
:1050C00005FD0000511BFC07001201EE8F7A37CC62
:1050D000565DAAED40A0F0C294E0D60001000001A8
:1050E000B509FC0701000002A50AFC07000000004A
:1050F00000000000F4011700F4352348F40108C44F
:10510000140A0000140000005D16FC0700000000F7
:10511000FF0000000000000000000000140000007C
:10512000ED14F207FD0000002126F207FF00000049
:1051300000000000B516FC070516FC07E05CFC0744
:10514000A544FC070C4EFC07C08DFC07A48CFC0793
:10515000718CFC0705000000186BFC0700040000C0
:105160004C92FC07AC020000408EFC0700040000DB
:105170000495FC07700500002003000000A60E0047
:1051800004000000D2000000320000003C000000DB
:105190000100000001000000020000000200000009
:1051A00004000000030000000600000000000000F2
:1051B00002000000020000000000000000000000EB
:1051C00003000000030000000500000005000000CF
:1051D000060000000A0000000A000000C8000000ED
:1051E000B80B000002000000B80B0000B80B000074
:1051F00010000000D4010000CC010000700200008B
:105200006A0000000400000001000000200000000F
:105210000A00000001000000E20400008A02000011
:10522000DC050000AF0000000054FC074052FC0702
:105230007452FC070854FC073451FC075052FC0719
:10524000A8B8FC07A0B8FC07B8B8FC07F8B8FC077A
:105250001663FC07C08BFC07C18BFC07C48BFC07E3
:10526000C88BFC071544FC07F943FC07C919FC0768
:105270009519FC07C850FC07CA50FC07104FFC07E3
:10528000C91BFC07153DFC07A93EFC0793DEF00790
:10529000F1DEF007F9DEF00749DFF00761DFF00724
:1052A00077DFF00799DFF00719E3F007BDE5F007B6
:1052B000FDE3F0071DE4F0073DE4F0077BE4F007B1
:1052C0008BE4F007F5F9F007B1F7F007CFF7F00737
:1052D000EBF7F00705F8F00719F8F00797F8F00773
:1052E000AFF8F007DFCDF10767D0F107DBB9F007C2
:1052F000CD0DF207B10EF207AD0EF207A90EF207BF
:105300008D21F0071D3AFC078927FC07C927FC07F8
:105310001D28FC071528FC07B57EF007837DF007E4
:105320002501FC07599EF107634CF107753AFC070C
:10533000D110F207413AFC07B111F2074112F2070E
:105340007912F20700000000D91BFC07DB1BFC07E9
:10535000B9C6F007D592F107B301FC075F9DF107CD
:105360005F9CF107C504FC07EB72F107B922F10756
:105370006B04F1074D1BFC072BA4F007F1D2F007DB
:105380005FBDF007D5BDF00785BEF007DB2DF00748
:10539000752EF0071581F007DF7FF0070937F0075A
:1053A00000000000A51DFC07AD1DFC07111AFC073D
:1053B000F3C3F10775C4F10703C5F107291AFC0708
:1053C00000000000000000000000000000000000DD
:1053D00000000000000000000000000000000000CD
:1053E00000000000000000000000000000000000BD
:1053F00000000000000000000000000000000000AD
:10540000F450FC07A88DFC071C51FC07388CFC07E6
:10541000020000005B50574D20444320414E442081
:105420004F46465345545D2064635F70776D32206C
:1054300076616C7565203D202575202830782530F3
:10544000325829200A0D005B50574D20444320411B
:105450004E44204F46465345545D206F6666736543
:10546000745F70776D322076616C7565203D202504
:1054700075202830782530325829200A0D005B50DD
:10548000574D20444320414E44204F4646534554F7
:105490005D2064635F70776D332076616C75652085
:1054A0003D202575202830782530325829200A0DD6
:1054B000005B50574D20444320414E44204F464608
:1054C0005345545D206F66667365745F70776D3306
:1054D0002076616C7565203D202575202830782563
:1054E00030325829200A0D005B50574D2046524556
:1054F000515D20636C6B5F7372632076616C7565C0
:10550000203D202575202830782530325829200A62
:105510000D005B50574D2053544154455D2073742A
:105520006174652076616C7565203D2025752028A5
:1055300030782530325829200A0D005B50574D2015
:10554000465245515D20636C6B5F646976207661DD
:105550006C7565203D20257520283078253032581F
:1055600029200A0D005B50574D20465245515D20C1
:1055700070776D5F6469762076616C7565203D207B
:105580002575202830782530345829200A0D005BF5
:10559000534C4545505D2043757272656E74204DC5
:1055A0006F64653A202573202856616C75653A2032
:1055B000257529200A0D005B50574D204652455154
:1055C0005D20496E76616C6964207061636B6574FF
:1055D0002062797465206C656E6774683A20257561
:1055E0002028657870656374656420257529200A14
:1055F0000D005B50574D20444320414E44204F4600
:10560000465345545D20496E76616C696420706133
:10561000636B65742062797465206C656E6774686D
:105620003A202575202865787065637465642025A7
:105630007529200A0D005B53454E534F5220564F9B
:105640004C544147455D2053746F7070696E6720FC
:10565000746865204144432E200A0D005B53454E7B
:10566000534F5220564F4C544147455D205374616F
:105670007274696E6720746865204144432E200A65
:105680000D005B50574D2053544154455D204F75DC
:1056900074707574204F46462E200A0D005B5057DB
:1056A0004D2053544154455D204F757470757420DE
:1056B0004F4E2E200A0D005B50574D20465245514B
:1056C0005D20496E76616C696420636C6B5F646910
:1056D00076206F7220636C6B5F73726320777269E0
:1056E000746520286669727374203220627974654B
:1056F00073292C20696E7075742069732069676E38
:105700006F7265642E200A0D005B50574D20535474
:105710004154455D20427974652072656365697600
:1057200065642E200A0D005B50574D2046524551AE
:105730005D2042797465732072656365697665647E
:105740002E200A0D005B50574D20444320414E440B
:10575000204F46465345545D20427974657320724C
:10576000656365697665642E200A0D005B524541CC
:10577000442053454E534F5220564F4C54414745B9
:105780005D2052454144494E47206C61737420733B
:10579000617665642076616C7565206F662073653F
:1057A0006E736F7220766F6C746167652E200A0DC0
:1057B000005B50574D20465245515D2053554343A1
:1057C000455353206F6E2073657474696E67206350
:1057D0006F6E6669672E200A0D005B50574D20449E
:1057E0004320414E44204F46465345545D20535577
:1057F0004343455353206F6E2073657474696E671D
:1058000020636F6E6669672E200A0D005B4241546B
:105810005445525920564F4C544147455D205374CE
:105820006F7070696E67206E6F746966696361740A
:10583000696F6E732E200A0D005B4241545445522D
:105840005920564F4C544147455D20537461727442
:10585000696E67206E6F74696669636174696F6EE3
:10586000732E200A0D005B50574D20535441544570
:105870005D20496E76616C696420696E7075742E66
:10588000200A0D005B524541442053454E534F5270
:1058900020564F4C544147455D20526567697374EB
:1058A00065722056616C75653A202575207C205301
:1058B000656E736F7220566F6C746167653A202550
:1058C00075206D56200A0D005B524541442042412F
:1058D000545445525920564F4C544147455D20522F
:1058E000656769737465722056616C75653A202529
:1058F00075207C204261747465727920566F6C74D7
:105900006167653A202575206D56200A0D005B57AA
:1059100041524E494E475D2050726576656E746502
:10592000642063686172616374657269737469632A
:10593000206368616E676520616E6420666F7263C4
:1059400065642065786974206F662068616E646C98
:1059500065722066756E6374696F6E200A0D005B58
:1059600053454E534F5220564F4C544147455D20AE
:10597000636363645F76616C7565203D20257520E7
:105980000A0D005B4241545445525920564F4C5425
:105990004147455D20636363645F76616C75652094
:1059A0003D202575200A0D005B50574D204652457D
:1059B000515D2070776D5F6469762028636C616D3E
:1059C0007065642076616C756529203D2025752001
:1059D00028307825303458290A0D002D2D2D2D2DF5
:1059E0002D2D2D2D2D2D2D2D2D2D2D2D2D2D2D2DE7
:1059F0002D2D2D2D2D2D2D2D2D2D2D2D2D2D2D2DD7
:105A00002D2D2D2D2D2D2D2D2D2D2D2D2D2D2D2DC6
:105A10002D2D2D2D2D2D2D2D2D2D2D2D2D2D2D2DB6
:105A20000A0D005B524541442053454E534F5220CE
:105A3000564F4C544147455D204C53423A203078F4
:105A4000253032582C204D53423A203078253032C0
:105A5000580A0D005B5556505D204C53423A203099
:105A600078253032582C204D53423A20307825305A
:105A700032580A0D005B444344435D205642415472
:105A80005F4C4F5720766F6C74616765206C65764C
:105A9000656C3A2025730A0D0053656E736F722092
:105AA000566F6C7461676520286C6974746C652D21
:105AB000656E6469616E20627974657320746F200D
:105AC0006D5629004261747465727920566F6C744A
:105AD00061676520286C6974746C652D656E6469F6
:105AE000616E20627974657320746F206D56290091
:105AF000415243485F534C4545505F4F464620282E
:105B0000416374697665204D6F6465290041524395
:105B1000485F4558545F534C4545505F4F4E2028D1
:105B2000457874656E64656420536C656570290002
:105B30004441313435333100765F362E302E3234E5
