:0200000407FCF7
:100000002C65FC07314AFC07454AFC075F4AFC07A0
:10001000794AFC07794AFC07794AFC07794AFC07C8
:10002000000000000000000000000000794AFC070A
:100030000000000000000000794AFC072313FC07C1
:100040000510FC07DD3FFC07A526F0072513FC077C
:100050005112FC07794AFC07C90FFC07794AFC07D3
:10006000D50FFC07794AFC07AD10FC07B710FC0759
:10007000C110FC07CB10FC07D510FC07794AFC0720
:10008000B913FC07794AFC07794AFC07794AFC074F
:10009000794AFC07794AFC07794AFC07794AFC0748
:0800A00000008E070E000000B5
:0200000407FCF7
:100110000348854600F040FF00480047AD28FC0733
:100120002C65FC07F8B50746012000230246009025
:100130001946032049F766F9044602218030017010
:10014000FF4DFE482A6843881146FF31F7310B8680
:1001500080884886FB48066A0123DB069E431E43CF
:100160000662FF320020FF32383250829082D08205
:100170001D200882F4484884F448C882F448088363
:1001800000204882384649F77DFC01462868FF3048
:10019000F730C28B920992010A43C283ED4841684D
:1001A00000208847002C02D0204648F714FD204646
:1001B000F8BDFFB58BB0064616980027022821D05F
:1001C0000D9801881498814278D371880846403888
:1001D0003F2802D8159855F711FD0C98361D008858
:1001E000149A80190E995EF787FF0C98018814986D
:1001F00008180C9908800D9801881498081A0D9910
:1002000008805CE100200E9D079069782C78090237
:1002100021433180E978AC780902214371808C4612
:10022000403904242D1D024603468E46402900D342
:100230002878614604291FD0052914D0062918D032
:1002400070463F283DD8159855F7D8FC0006000E9B
:1002500004D0C148008D0006C00F30D00223012019
:10026000BE4A002712E0697800290FD0BC4A172344
:100270000CE0BC4A0F2309E0522802D0D22802D059
:1002800002E0142000E01520B74A1F23002A1AD0EC
:10029000984218D2800010580490002813D00020F3
:1002A0000890059070884038402803D328780524AA
:1002B00030716D1C701D00900498B5E0FEE0302791
:1002C000F0E03327EEE07088042872D10627E9E0D9
:1002D000522862D00CDC4B283FD004DC41286AD085
:1002E000422858D111E04C2820D0502853D140E06A
:1002F000632830D004DC572818D061284BD19BE00C
:100300006C2864D0772846D109E0009829780170DC
:100310000098641C401CA4B26D1C009081E00498FD
:10032000401C04900178089881427AD10098A41C5E
:10033000401C41084900881C009068782A78000217
:10034000104308800599AD1CA4B2002969D008901B
:100350000020059065E00120FBE710222946009867
:100360005EF7CAFE009810341030A4B21035009029
:1003700057E0204640301499039088420BD8402221
:10038000294600985EF7B8FE009840300090039828
:10039000403584B245E0342743E0082229460098DE
:1003A0005EF7AAFE009808340830A4B20835009021
:1003B00037E068E0FFE70622294600985EF79CFEDA
:1003C0000098A41D801DA4B2AD1D009029E01498D2
:1003D000001B80B203903088001B001D81B20120F9
:1003E00007900498401C04900098401C400840006E
:1003F00000900498007857281CD04228CBD1009850
:100400000170090A417000982946801C0090039AE7
:100410005EF772FE03980399201884B20098401882
:1004200000900498401C0490007800281ED0002FF3
:1004300017D01BE04908E2E71498001B81B200982E
:100440000391401C40084000009001200A4607909C
:10045000294600985EF750FE0399601884B2009810
:10046000DDE70D990988A14200D331E70D98008896
:10047000A04208D304990978002904D107990029DA
:1004800003D1A04201D034270CE00D99001B088055
:100490000C9801880098801B001F08180C99002FE9
:1004A00008800CD07088042809D0062807D040386E
:1004B000402804D30E984079707100E03427384604
:1004C0000FB0F0BDFFB581B01F4616460C46104672
:1004D0005CF7D6FC00257F2802D02189062909D0A7
:1004E0003B4632462146019855F71BFF05462846F4
:1004F00005B0F0BDC00601D50225F8E72078002838
:10050000F5D1300AA11D42F7A4F8F0E7F1B598B093
:10051000189842F79CFA0446189805210079134A66
:100520004006C00F099068460184618B08460A386E
:10053000904276D2E08A062873D319E030BCFC07DB
:100540004CB9FC07C00000401080000029410000A9
:100550007671000058BFFC0748BEFC073803F2075D
:100560004003F2079C03F207D803F207770C000060
:100570001922D201904254D8228BFF23F5339A429C
:100580004FD8521C9300D2184243521C0A235210D7
:1005900059438A4245DC217F00290CD1617F002923
:1005A00009D1A17F002906D1E17F002903D12021B3
:1005B000095DC90635D0274620377978C906C90EA6
:1005C000491F0C292DD2A18A81422AD8E17C002919
:1005D00027D0421E082A01D9082000E0401E81428F
:1005E0001FD8684646F7F4FA00281AD1FE4D0622B5
:1005F000286221460AA85EF77FFDA8792E46803E34
:1006000000287DD06079800901280BD00AA80999BB
:100610004CF7ADFD010003D03820405C002870D0BD
:100620009BE008E1F06A807A012808D0042806D00F
:100630000AA84CF709FE286200284ED054E0686AE8
:1006400006220AA932305EF77BFD002806D00AA8F0
:100650004CF7FAFD2862002802D012E0686AF9E738
:1006600000210AA84CF706FE2862F16A897A01295E
:1006700005D18B071A6849068A430A431A60002885
:1006800011D0F16A286A0622253010315EF758FD34
:10069000002808D1286AF16A2030C07AC97B8842D4
:1006A00001D1286A1EE0D148D1490088C96880B2CA
:1006B00006225043081842F7CFF9014614A8062233
:1006C00002305EF719FD13AA00213C2042F791FC8D
:1006D0000121B06D47F7B8FEA9E011A90AA84CF7AF
:1006E000C9FD2862002838D00146253106220FA80E
:1006F0005EF702FD286A08AA2030C17A0FA801E03F
:1007000041E024E04CF716FC002812D0286A203083
:10071000C07A002809D16846B649008C4BF77DFBAA
:1007200008AA0121B3484CF705FC68460AA9008CC9
:100730000AE008AA012111A84CF7FCFB00280CD004
:10074000296A6846008C32314BF77DFB05E00A18B8
:10075000527D002A08D010286DDBF06A407A02280A
:1007600006D0032804D00EE0401C1028EFDBF4E78D
:100770006846008C052806D308AA0AA809994CF7F0
:10078000D9FB002857D00022694620464CF77BFC55
:10079000002850D1F06A407A02280BD0032809D0F3
:1007A0000023684602880AA809994CF78DFC0028A6
:1007B00002D02FE00123F4E7E18A68460181218B12
:1007C0004181618B81817878062241096846817573
:1007D0007878C106C90E6846417521460E305EF72D
:1007E0008BFC189800794006C10F68460175038894
:1007F000214602A8B26D47F7CDF90146B06502A8BF
:1008000042F745FC0020B065214668461C3100884F
:1008100046F731FA49F7B0FA734C2034207A0028B1
:1008200005D0002109205CF76EFC00202072002119
:1008300008465CF710FB19B0F0BDF8B56E4C0646E3
:1008400085000F4660594C21095C24290ED140696E
:100850001022791D2E305EF74FFC61592520403162
:10086000087300221146304654F71BFB60594C2197
:10087000095C0C291FD140691022791D2E305EF7CA
:100880003BFC60595F214069095C09072DD4014692
:100890002E3110221E305EF753FC00280CD0605918
:1008A000092140300173304655F718F801460022FF
:1008B000304653F775FEF8BD0421684601706A465C
:1008C0000521304654F716F8684601786020014348
:1008D00068460170304655F701F8014668460278CF
:1008E0000123304653F771FFF8BD304654F7F6FF49
:1008F000012809D0605907214030017300221146B8
:10090000304654F7CEFAF8BD615900204969C0312C
:10091000887160590421426930461E3253F7EAFF5C
:10092000605941694031897F002907D01A21403040
:1009300001730021304654F73EFBF8BD1B214030C7
:100940000173304654F78CFBF8BDF8B52A4C0546C8
:100950008600A0594C22125C192A11D140224D3038
:10096000491D5EF7C9FBA059402224494D305EF76E
:10097000E7FB002805D02149284620395BF74BFDCD
:10098000F8BD0B21684601706A460521284653F7D9
:10099000B1FF68460178602001436846017028462F
:1009A00054F79CFF0146684602780123284653F716
:1009B0000CFFF8BDFFB581B003980C46060A002570
:1009C0005CF75EFA002827D0132825D0142823D0FE
:1009D0000B48B700C0592030407BC00637D503987C
:1009E0005CF74EFA15280DE030BCFC0768B9FC072F
:1009F00060BBFC0750F5F1073CBEFC07FCBDFC07E3
:100A000078BBFC070CD0A07942F714F8304647F7C2
:100A1000AFF8032806D015E0A07942F70BF81FE0E5
:100A200002251DE03248C0592030407B400704D5E4
:100A30003D21304642F7FCFC04E03D2200213046D7
:100A400042F705FD3D21304646F7DAF808E020463A
:100A5000103828490181468120464EF7C3FD012503
:100A6000284645E524485222006864308188C37EC8
:100A70005143224A12688918FF225F32525AFF31CD
:100A8000120AD21A01310B8CD2B2DB0B09D00B8CBB
:100A90005B045B0C0B84002A03D18088184A012177
:100AA00011547047FFB51746140A81B0104A0298D6
:100AB000A100515840780026114D002907D0295D2A
:100AC000002905D0002803D1204643F715FF2E55F5
:100AD0003A46049B0299019844F79FFE08E50A48AC
:100AE000084901600949416070477047704700003C
:100AF00078BBFC070608000084BBFC074CB9FC0768
:100B0000C98BFC070459F007C0000840490C00BF1E
:100B10007FB5E4486B460188428889186A4611808F
:100B200001214C0022181546403DED8F065B52888E
:100B3000AD19AA18491CC9B21A530729F1D38189E2
:100B4000C089081881B2D981D888002821D0188995
:100B5000002820D0988800281FD0588900281ED04F
:100B6000988900281DD0588800281CD000291CD046
:100B7000188800280BD00720062254001C5B8C42EA
:100B800001D22146D0B2521E52B2002AF5DA04B088
:100B900070BD0320FBE70420F9E70220F7E70520FA
:100BA000F5E70620F3E70120F1E70720EFE7F0B5CE
:100BB00095B0EFF310801090012080F31088BA48B0
:100BC000816B4A07520F69460A800A92816B0122A3
:100BD000C908C9008163B5498B8869464B800224E6
:100BE000B24B00219980C16A09078B0F69468B803F
:100BF0000F93C16A0C2399430831C162052109078B
:100C000009880906CB0F6946CB800521090709939E
:100C100009888023194305231B071980A449898A61
:100C20004906CB0F69460B81A1490893898A402365
:100C300019439F4B9982016A09074B0F69464B8103
:100C40000C93036A0E218B4303629B4D99486860A5
:100C5000FF204030A8602888A0432880974841683A
:100C60000B071B0F69468B810B934168090909012A
:100C700008314160416849064B0F6946CB810D93AD
:100C8000416870239943603141608748403801686A
:100C90008904CB0F69460B820293036841140B430E
:100CA00003600168CB07DB0F69464B820E93016836
:100CB0001143016041688903CA0D69468A82039223
:100CC0004168CA05D20D6946CA82049281688903C7
:100CD000CA0D69460A8301928168CA05D20D694628
:100CE0004A8305924168764A11400322D20389184B
:100CF00041604168490A4902FF31413141608168E0
:100D00006F4A11400322D203891881608168490A21
:100D10004902FF3141318160642000F02DF9A8893A
:100D200069468007C00F8883A8892043A8810024D2
:100D3000604F288800260121084328800A2000F0FF
:100D40001BF9FF205F4941303A680A4200D0761C07
:100D5000401E3F1D0004000CF6D1A88A8004FCD17F
:100D60005149886B671CC208D2007807400F0243C4
:100D70008A630A2000F000F960004A49FCB20E5272
:100D8000082CD5D348480A99826BD208D2000A436E
:100D900082636946454A498891800F998A00C16AF1
:100DA0000C2399431143C1620999CA01052109071E
:100DB000098880239943114305221207118008995D
:100DC0008A013B49898A402399431143384A9182D9
:100DD0000C994A00016A0E23994311430162374876
:100DE0000B994268120912010A4342600D99426848
:100DF000090170239A430A434260029841032A483A
:100E00004038006801225203904308432649403984
:100E100008600E9809684908490001432248403893
:100E20000160039842022048403840682449084045
:100E300010431D4A403A506004985268520A5202C8
:100E400002431948403842600198174A4002403A2C
:100E500092680A400243144840388260124905985B
:100E600040398968490A490201430F484038816086
:100E70001098002800D0012080F3108815B0F0BD34
:100E800010B5114C2078002808D0FFF790FEFFF72E
:100E90003FFE0E4908700020207010BD02F08AFE4F
:100EA0000120F9E7C05CFC07801000400012004000
:100EB00020300050C057FC07003500504020004053
:100EC000FF01FCFFC0C0C0C05C8DFC075A8DFC0751
:100ED00010B5FF22154901320A60BFF34F8FBFF3EF
:100EE0006F8F13490A6013490B6840241B0A1B02C9
:100EF00023430B601049898A0021C30700D03521A4
:100F0000830702D57D231B021943430702D57523AE
:100F10001B041943000702D53D2000060143064883
:100F20002038016301488038026010BD80E100E094
:100F300080E200E008E400E0A010004010B50620C8
:100F400000F01AF810BD10B5092000F015F810BD1A
:100F500010B5812000F010F810BD10B5044800F065
:100F60000BF810BD10B5034800F006F810BD0000E6
:100F7000010200000108000000280CD000BF00BFE3
:100F800000BF00BF00BF00BF00BF00BF00BF00BF69
:100F900000BF401EF0D170471CB5094800900948B9
:100FA000019005460126009C05E0E36807CC334329
:100FB0000C3C98471034AC42F7D3FFF7ADF8000073
:100FC0008C57FC07BC57FC07014801210180704782
:100FD0000E1500500A48011F0988CA0706D002886A
:100FE00007239A43F24B9B7A13430380490706D5A4
:100FF000018807229143EE4A527B0A4302807047E0
:10100000B8100040B0B50520000701883022114318
:101010000180038803210B430380204B1C88640755
:10102000FCD403889343038003888B430380E04C04
:10103000E38B4380238C9D1E194B5D8007251D800B
:1010400005881543058005880D4305801D886D07BB
:10105000FCD403889343038002888A430280428938
:10106000920702D042898A434281018980220A4341
:101070000281018A042291430182818A8907FCD579
:1010800041F74FF9E06B07490860074801684907D5
:1010900000D500BE01684907FCD5B0BD083300503B
:1010A00000160050080200401000004080B50A20E1
:1010B00000F068F880BD80B50B2000F063F880BDBB
:1010C00080B50C2000F05EF880BD80B50D2000F0EA
:1010D00059F880BD80B50E2000F054F880BD0000A6
:1010E000FEB5019302920C460646012000213246CD
:1010F0005EF746F807460D46AD49C86E2840896E32
:101100003940014300D100BE0198002803D0304689
:1011100000F014F802E0304600F022F8A449C86E4E
:101120002840896E3940014300D100BE0298044333
:10113000700001494452FEBD0630005010B504460F
:101140009B49886EC96E224662F779F9C00700D1C3
:1011500000BE0120A0400149088010BD02300050AF
:1011600010B504469249886EC96E224662F767F947
:10117000C00700D100BE0120A0400149088010BD79
:1011800004300050F0B503460A3B01210A469A405C
:1011900093B20B4D5C19661C5E400A4B1C880027FD
:1011A0002E4203D07F1C7608B6B2F9E79443BAB258
:1011B0000D46954025431D80814052480160F0BD99
:1011C000FEFF01000E140050F8B5044601273E0250
:1011D00005200507688DC00506D51B2003F0C0F863
:1011E0004A480188394301808036288840013040D0
:1011F000698A474A0A4002436A82216813480160AB
:1012000061684160A1688160E168C1602169016134
:1012100061694161A1698161E169C16104623E491D
:101220000A6842624A6882628A68C2624A690263E4
:10123000CA68426309698163334808210180A88A2A
:10124000C00600D4FEE700BEF8BDC0460090FC0713
:10125000024800882B481021016070472C13005071
:10126000F8B5044605200507288A04210143298290
:10127000288940210143298122480127076022480B
:10128000082101803E02688DC00506D51B2003F0B1
:1012900067F81E480188394301808036288840015C
:1012A0003040698A1A4A0A4002436A822168194812
:1012B000016061684160A1688160E168C160216985
:1012C000016161694161A1698161E169C161046292
:1012D00011490A6842624A6882628A68C2624A693F
:1012E0000263CA68426309698163A88AC00600D4A0
:1012F000FEE700BE688A094908404018001D688260
:10130000F8BDC04680E200E000330050800000508D
:101310007FFE00005090FC0728ED00E0FC7F0000FD
:101320007047704770B5214CD74D224EA1880F20D1
:101330000840022809D0042804D00C2820D0012815
:10134000F4D132E003F078F8F0E72A8BA88B9042D2
:101350001DD2696B9042E9D2A288C0231340C02BF2
:1013600003D13288920703D4E0E7228A9206DDD5C2
:10137000421CAA83085C221F10802A8BA88BE9E7F5
:1013800003F05AF82088012188432080CEE7208886
:101390000221884320802088802188432080A96BF7
:1013A0000029C3D0288B8847C0E770BD04110050C6
:1013B000508DFC077C11005005210807028830235E
:1013C0009A430280028803239A430280828812058E
:1013D0000DD5184A13880B40052B08D1108804211D
:1013E0000143118010880121884310807047818853
:1013F000C90606D510498A88D20702D00A88120683
:1014000010D48088C0060CD50B488188890708D580
:101410000188C90505D5022181800188074A0A4053
:1014200002807047012088800888802290430880CD
:101430007047C0460002005000010050FFFE00004F
:101440005748018802220A43028001888907FCD498
:101450000121C181008A7047FEB5514C00212180D5
:101460000327FD012946903161804026A6805C2239
:101470004C498A5AA281A289324330239A43A281DD
:10148000494A1660BFF34F8FBFF36F8F002800D11A
:1014900081E0019702952288B2430578AB0113439E
:1014A0002380E78870229743437819013943E1800C
:1014B000002D05D1E1880725A9431B090B43E380D3
:1014C000C1784B1E9941890023880425AB430B4307
:1014D000238001790902A388DBB25918A180E18831
:1014E0001140324F40292DD162202E49085A002840
:1014F00000D131483149888001200003218801430F
:1015000021801920FFF738FD029A1046803021888B
:1015100001432180208830432080608828436080F8
:1015200060882749014061800F20400261880143A3
:10153000618040376088384010436080608801993E
:10154000884327E021881A4A0A402280817810299E
:1015500000D300BE6288174B1340490219436180D3
:101560006188019A914342790A4362808179002916
:10157000029A01D10A4600E08032218839401143A5
:101580002180C079082800D300BE403761883940E7
:101590008001084360802088012101432180FEBD35
:1015A00000150050CC8BFC0780E100E0FFFD00003F
:1015B000FFEF0000FFE1000040760000D05CFC0778
:1015C000FF1F000006480188064A114001235B0204
:1015D000C918018041881140C91841807047C04630
:1015E0000815005000FCFFFF70B53748092104249E
:1015F000182322465BF7FEF905461B202870FD26BE
:10160000304662F749F80021A982E96029616C60DF
:101610006E80687028465BF708FA70BD1FB51446E7
:10162000002202920192069A00921A46234661F71E
:101630005FFE04B010BD000010B5F048C17B134A36
:10164000CCB20C236343D45CFF2C06D0D318491CC6
:10165000C1735B68002BF3D00DE0017C0C4ACCB267
:101660001C236343D45CFF2C08D0D318491C01749D
:10167000DB68002BF3D09847002010BD0021C17318
:101680000174012010BDC046508DFC07E44EFC07DC
:10169000B84CFC0770B50C48092104240A232246E3
:1016A0005BF7A8F905461B2028701426304661F721
:1016B000F3FFFF21743129816C606E8068702846C9
:1016C0005BF7B3F970BDC0461B0D00001FB5144693
:1016D00001220292044A0192069A00921A46234677
:1016E00061F706FE04B010BD744BFC0770B5124DD7
:1016F0002C68002C19D11148092104222C235BF7F6
:1017000079F904462860172020840D48208000269F
:10171000668020460A3011215DF707FD2685E684A4
:101720006684E683A6832020E07620465BF77DF979
:101730000020286070BDC0466C8CFC07040D0000C2
:10174000030A000070B5184D2868002823D11748F7
:101750000921042252235BF74DF904462860002634
:1017600086721348E080A0800D2020801622E2724D
:10177000FF200830208120460C300EA15DF7BCFC14
:101780002B20265420462B302C3418210F4B224678
:1017900061F7C0FE28685BF748F900202860042044
:1017A00002215BF758FB70BD688CFC070D0D000033
:1017B0004C04000003030A181107EE8F7A37CC5649
:1017C0005DAAED40A0F0C294E0D60000D856FC0718
:1017D000F8B500920D468100104A56585418002E54
:1017E0000AD101020A310E4804271E233A465BF74C
:1017F00001F9064607702060B71C102138465DF7D6
:1018000094FC38462946009A5DF776FC01207070FA
:1018100030465BF70AF900202060F8BDA08CFC0779
:10182000140E0000B0B5024665482430002423465B
:101830000A2B0BD00568002D02D0001D5B1CF7E7BA
:1018400001605C1CE0B2114600F05CF9E0B2B0BD92
:101850001FB514460E220292044A0192069A009283
:101860001A46234661F744FD04B010BD7C4BFC07CB
:1018700010B5014601200A4A914210D3121D91422F
:101880000DD8029CF231C8B28100064A5058002897
:1018900003D0511800220A6080470020207010BD3C
:1018A0000E040000888CFC071FB514460722029224
:1018B000044A0192069A00921A46234661F718FDDF
:1018C00004B010BD084CFC0710B50C46A94988426D
:1018D00033D0384A90421DD0374988423ED12078D3
:1018E000401E09285AD88000DE490818416A364A45
:1018F000914255D03348814257D12E4804210823C4
:101900000A465BF777F821780170616841605BF700
:101910008CF84AE02078411ECAB2092A3CD88900D6
:10192000D04A51184A6A274B9A423ED1CA6C243198
:101930000A60616800F0E6F837E06268002A01D1C9
:1019400000BE62681D48824201D300BE62682078F2
:101950001849401804215BF78CFB26E0531C012139
:10196000984225D30A32904222D8C1B2091F890079
:10197000BC4A5218516A002917D0124B994214D010
:10198000114B994211D013462433C01E00241C6011
:10199000D464C0B2884708E000BE06E000BE04E0A0
:1019A0000146243100220A60C264029800210170BD
:1019B000084610BD0304000002040000FDFF3F00C4
:1019C000CC8DFC072744FC072544FC07C9488178D7
:1019D000491C81700178002900D0704767490023B5
:1019E000CB7018490A780B70012A01D0012100E060
:1019F0000221022A00D1032101707047508DFC079B
:101A0000BC488178002904D0491E8170090600D0A5
:101A100070474178002904D000224270032211400F
:101A200003E001780029F3D0491E00220270481E0D
:101A3000C0B20128ECD851480122C270014801709F
:101A40007047C046B4BAFC07B0B50C460025202D3F
:101A500004D040F754FF60556D1CF8E70020B0BD7E
:101A600010B504460548064970225DF745FB054858
:101A7000001B054908801430488010BD70A0FC0789
:101A8000404CFC07B8A0FFFF78A0FC0710B5074842
:101A90000188074A1368114C234059181160408887
:101AA000516821400818506010BDC04618300040F1
:101AB0008CA0FC0710B507480188074A1368074C3B
:101AC000234059181160408851682140081850601F
:101AD00010BDC0463830004098A0FC070000FFFF52
:101AE00007481E214180018803220A4302800188A1
:101AF00004220A4302807F480121C1707047C0461A
:101B00000016005070B50C460546194908880006B5
:101B100018480ED5184A126812040AD4174A1288B7
:101B2000D20706D14019801C042122465BF7A1FA96
:101B300070BDEFF31083012282F310880988090633
:101B400003D40F490E8816430E80002B02D082F377
:101B5000108802E0002181F31088042108230A463E
:101B60005AF748FF446005705AF75FFF70BDC046E2
:101B700008000050010400003000004054BAFC0787
:101B8000083300507047000070B514460D461046EB
:101B90005BF776F901282ED1287801020831AA795D
:101BA0001648002A0CD089B2062322465AF722FF93
:101BB0000646A87860F73AFC3080A879307113E0C7
:101BC000AA8889B2921D93B222465AF713FF06469D
:101BD000A87860F72BFC002131713080AA887280D0
:101BE000701DE91D5DF788FA30465AF71EFF002187
:101BF00020465BF730F9002070BDC046140C000091
:101C0000FD2801D00020704700487047B84CFC0701
:101C10007047704710B5044640793F280FD840F709
:101C20006EFE2070010EE170010CA170000A607060
:101C300040F765FE2071000AC0210143617110BDAB
:101C400080B5FFF77FFD80BD4E49498C018070470C
:101C500080B54C490A780270401C491C5DF74CFA6B
:101C600080BDC046CC8DFC077D21C18000218180D4
:101C700010214180082101807047000070B50446A2
:101C80007A206043ED4A16184D7835773046143087
:101C900008210A4661F764FB102D04D8B01C1022FD
:101CA000294661F75DFB40F72AFE708230780121FA
:101CB00001433170204600F0DFFD317F0177718AEA
:101CC0004182F18AB28A738B358B0583438382828A
:101CD000C182B11C801C10225DF70EFA204600F074
:101CE000CBFD5AF7A2FEA000F34908180021416578
:101CF00070BDC046508DFC0770B581000D4A545828
:101D00005518002C10D101020A310B4804221E2361
:101D10005AF770FE0446012606702860801C0749A9
:101D200007225DF7E9F9667020465AF77EFE00202B
:101D3000286070BD9C8CFC07140E00008457FC07C3
:101D400080B561F7BDFB002801D0FFF7FBFC80BD2B
:101D500010B50C46017801290BD000290ED142881C
:101D600008490A704B1C011DD2B218465DF7C4F930
:101D700002E0408803494884002000E048202070A9
:101D800010BDC046CC8DFC07E0B54A78032A14D8B4
:101D90007A44127952009744010A030708A104E02B
:101DA00006490091694605E0891C102203E00349B9
:101DB000019101A90422FFF70BFD8CBD40E2010057
:101DC000000102030405060708090A0B0C0D0E0F9B
:101DD00000208880488001200870704780B55FF738
:101DE000CBF880BDF8B56946C870020A8A70020C4B
:101DF0004A70000E087008465FF7A6F88FBD000015
:101E000080B5494800210160FFF7A2F844480078F6
:101E10001F214901414A13688B43C006800DC01839
:101E2000106080BD80B53F4802210170FFF786F841
:101E300080BDC046F8B51F460C46087808281CD857
:101E40000725002100911AA67844007940008744B4
:101E500019040C0406060F0912001A4E12E00D2593
:101E6000174E0FE0062514A60CE00A2516A609E079
:101E700008251AA606E017A604E000BE00260120E9
:101E800000903546AB1C184839465AF7B3FD074653
:101E9000207838707D700098002804D1B81C314635
:101EA0002A465DF729F938465AF7BFFD0020F8BDEC
:101EB00052656E6573617300FFEEDDCCBBAA000056
:101EC0006856FC076056FC07312E302E302E302D20
:101ED0004C45000001D2008005000100123456FF7D
:101EE000FE9ABCDE000000000314000080B50B4821
:101EF00001688905C90E0A4A11701F21490102684B
:101F00008A430260074801210170074801680322E3
:101F10000A430260FFF71CF880BDC0464C12004027
:101F2000BC57FC0706100040AC10004070B50C78A0
:101F3000A51E052D27D81C0A7D442D796D00AF44C0
:101F40000233222544527A2060433C4A151888788F
:101F500078216854C0070ED00C20604385490E18C4
:101F6000314675312846713006225DF7C5F8742078
:101F7000305C772168540C2060437E4908187B212F
:101F80000022425441E002F0A5FA3EE07A25654382
:101F90002A4C60193A30891C17225DF7ADF8605D54
:101FA00004210143615530E07A2060432349081839
:101FB0007821002242540C2060436E4908187B218E
:101FC0004254204661F7DCFA1FE07A2565431B4E38
:101FD00070196130891C102422465DF78DF8705D00
:101FE0002043705511E07A206043144A15188B1C69
:101FF000488A00280BD028461E301C2219465DF75F
:102000007BF82878022101432970002070BDA81CAC
:102010001C2219465DF770F82878012101432970C8
:1020200007A05EF76BFE112008A4461EEDD0295CC8
:1020300020465EF763FE3046F7E7C046A48CFC07F7
:10204000200D0A204C544B3A20307800253032784D
:102050000000000080B50A78072A24D8180A9200E8
:1020600001A39A589746C0468920FC07A720FC0781
:10207000A720FC07A720FC07AB20FC07B520FC0726
:10208000B520FC07B120FC077A2141433F4A0023D9
:1020900053540C214143374A51187B2201238B545E
:1020A000FFF72AFE06E000BE04E0FFF76DFE01E048
:1020B000FFF7E4FD002080BD508DFC0710B50C78C3
:1020C000012C03D0092C09D04C7802E04C78432C29
:1020D00002D0002C00D000BE02F0FCF9002010BDA0
:1020E000F8B51C4610460D465AF7CAFE022828D1FC
:1020F000240A00D000BE0C2060431E490F18703720
:10210000BC70FF2C19D00126FE70042003215AF761
:10211000A2FE28883880687A3871781D0A35062230
:1021200029465CF7E9FF7A206043184908187821AE
:10213000415C2046324661F7D7F9204602F0A6FB03
:1021400000E000BE0020F8BD10B51C4610465AF74E
:1021500097FE03280AD1200A0C2141430548401864
:102160007221FF224252FFF7EDFA00E000BE00208C
:1021700010BDC046508DFC07180A7A22424303481E
:10218000801809787822815400207047A48CFC07BD
:1021900000207047F0B589B01D4614460878022823
:1021A0002CD001281FD000283AD101AE2021304682
:1021B0005CF7BBFF1D480778411C30463A465CF788
:1021C0009BFF3B460A331848294622465AF712FC21
:1021D0000446478000202070201D31463A465CF7B7
:1021E0008BFF20461AE01148468C0F480A232946E7
:1021F00022465AF7FFFB468001210EE00A480A23D7
:10220000294622465AF7F6FB7D2101810021C18033
:102210001021818008214180022101705AF705FCBC
:10222000002009B0F0BDC0460B0E0000CC8DFC07AD
:1022300080B561F701F880BD80B560F7DDFF80BD36
:1022400080B561F714F880BD80B560F728FF80BDC8
:1022500080B560F797FF80BD0020704780B560F7BC
:1022600011FF80BD70B50C78172C0FD80125A54043
:102270000D4E354201D0002070BD012C09D0032C39
:1022800004D14878002809D000BEF4E702F022F912
:10229000F1E74878002804D000BEECE7FFF750FDD6
:1022A000E9E7FFF723FAE6E700F08E0010B51046E5
:1022B0005AF7E6FD002801D000BE09E005480921D3
:1022C0000422012423465AF795FB04705AF7ADFB0C
:1022D000002010BD020D000080B560F774FF80BDC6
:1022E000002070470020704780B560F7B2FF80BDC6
:1022F000F0B589B0039316460C46FD205EF778FFD3
:102300000290002800D100BE08A900270F70208885
:1023100060F79AF805466088002800D000BE002DBE
:1023200078D1FD20FFF76CFC002800D100BE039996
:10233000090A009108A90A781421514343685918E1
:102340000B79022B24D109680988394B99421FD196
:10235000002005900490208860F711F8002800D133
:1023600000BE07A9002204AB4EF7FEFD012040028B
:1023700007990140480A21465FF7ECFFC5B2002DDE
:1023800029D1E28808A80178009860F7BEF922E018
:1023900001968669002E3D4606D0A5886188A31D5A
:1023A00010462A46B047054605970497208804A999
:1023B0004EF755FB002D019E0DD108200499085EB3
:1023C000002807D46288A1882088A31D4EF7B1FB9E
:1023D000054600E00025002D1CD10298009F3946DB
:1023E0005EF724FF0146A088801D83B21148324663
:1023F0005AF700FB0546801DA288A11D5CF77CFEF4
:1024000008A800786880A088A8802F7028465AF70E
:102410000CFB002508480423039932465AF7EAFAD0
:102420008570218801805AF700FB002009B0F0BDBB
:10243000022900000AFD0000160C0000F8B5204C2F
:10244000FEF7FEFF83490A88120707D48A1E128806
:102450004023134006D02246563205E02246603221
:102460005E3406E022465A32002B01D0543400E09C
:1024700058340026A35F945F072292010D8815400F
:10248000954204D00988C905490F0622561A0096BC
:102490000C4F7843DD1929465CF7B4FD06467C43B2
:1024A000204629465CF7C4FD311AB942084600D3DC
:1024B0003846054A914200D900200099C840F8BD2D
:1024C000CC8BFC07FFFF0000FEFF0100F0B587B0DA
:1024D00005A90022CA718A71032302934B710A7104
:1024E000CA7002228A7048700120054608700846AA
:1024F000FEF7B2FF794C608808218843608020880D
:10250000404901402180A08840273843BF218843AB
:10251000A0806088042630436080FFF753F860880D
:10252000000700D500BE208804906088039000203A
:10253000FEF792FF60883043608060883249014036
:1025400001956A0288186080208830490140218006
:102550002E0260883043C0210143618020883843C7
:10256000208020892A4908408018208160890840FD
:10257000009280186081208880210143218020887A
:10258000B0432080FEF75CFF21883143218002990F
:102590004E0280094000371AB8B2850A01988002BD
:1025A00001903F2080020290FEF74AFF002D00D0EC
:1025B00000BE19492289029B1A403A4322814009F0
:1025C000144A1040301A019A904200D300BE62892A
:1025D0001A4002436281208808402080FEF730FFC5
:1025E00081090F4A904202D80098401A01E00B4836
:1025F0000818082800D300BE049820800398608043
:1026000007B0F0BDFFEF0000FFE10000FFFD00009C
:1026100000FCFFFFFE070000FFFE000000FEFFFFC2
:102620003F800000072189010A4A13880B408B4232
:1026300001D1102103E01188C905490F0A31128820
:1026400003231340E122920053439A185043C84099
:1026500080B2704702150050F8B502252846FFF7F2
:1026600035FF1E490888012738430880FFF7E6FE3A
:102670001B4C2085FFF7D6FF6085FD2040F7A3F8AF
:10268000014618480422009208235AF7B3F9064677
:10269000858045804770608DF0801348134DA847B2
:1026A000218D628D12A0A847608DC1B2020A1EA0C2
:1026B000A8470D48A84730465AF7B7F90749088890
:1026C000B843088000985AF7DBFB032805D1642043
:1026D0001E49FFF7A7F802494874F8BD00150050DD
:1026E000508DFC0706FD0000C155FC07FD0CF207EC
:1026F0005B47504144435D2052656769737465725E
:102700002056616C75653A202575207C2053656ED6
:10271000736F7220566F6C746167653A202575205F
:102720006D56200A0D0000005B47504144435D2078
:102730004C53423A203078253032582C204D5342A9
:102740003A203078253032580A0D00005926FC070F
:1027500070B5EFF31085012484F310880520060777
:10276000708DC00509D54F48447201F0EFFD114945
:10277000087011480088204048703088802101434B
:1027800031800E4801680722914301604168490782
:10279000FCD53188090600D400BE09490161094908
:1027A0004161002D02D084F3108870BD002080F3B9
:1027B000108870BDD05CFC07800000500000F4075A
:1027C0000F009909090404A470B5174EB06800F011
:1027D0002DF834490A6C00230B641518084C284660
:1027E00021465CF70FFC706106494143481901D04E
:1027F000201A80B23061306808210143316070BD19
:10280000710200008FFDFFFF80B5064800210160C6
:1028100001F064FD0120C00703490A6882430A6091
:1028200080BDC046A8B9FC073000004080B5024614
:10283000C00B09D01B48006D00210B465CF70CFC57
:102840008905800A401880BD1648006D4243900AF1
:1028500080BDC04680B5FFF7E9FF80BD80B5114956
:10286000896C41430248081802495CF7CBFB80BDE4
:1028700020A1070040420F0010B501468000094A20
:102880001418606D002800D010BD543409020A31BC
:10289000054804221E235AF7ADF8FF2108310180B4
:1028A000206010BD508DFC07140E000000B59DB0D7
:1028B000A649C8201690088000204880A449082313
:1028C0004B80A44C1A901A98002811DC0020199013
:1028D00019991A980B2909DC30214143601819997C
:1028E0008900002242501998401CF0E7401CE9E79B
:1028F000179361690020C3430122002915921546F0
:1029000000D01D466A01FA4FBE6E16432A46FD6E80
:10291000BE661392D60E00291F4600D10F467901DC
:1029200089192943F24AD16661680029159F00D0B0
:102930001F46FD0F00291E4600D10E4671004919A1
:10294000EB4DEA6E0A43A96EEA667A000A43AA666C
:10295000616A0029159A00D01A4612971492D50D73
:1029600000291E4600D10E4671024919E04DEA6E5B
:102970000A43A96EEA66149A52020A43AA66A1693A
:102980000029159F00D01F46BD0E00291E4600D10C
:102990000E46B1014919D64DEA6E0A43A96EEA66A0
:1029A000BA010A43AA66E569002D159900D01946B7
:1029B0004E0E002D1A4600D12A46D2019219CC4E55
:1029C000F56E1543B26EF566CD011543B566129AE4
:1029D0006260149A6262139A6261A761E161E16ABE
:1029E000002900D015931493159BDA02C04FBE6ED8
:1029F0001643FD6EBE665E0D149A002900D10A468C
:102A0000D10289192943BA4AD1661599E162D06683
:102A100090661A901A98002835DC002019901998B1
:102A20000B282DDC19981A990B2829D830201A99CF
:102A300041436118199A92008958491C00D100BE7F
:102A40001A9941436118199A92008958002914D0A3
:102A50001A9948432018199989004058C117199AA2
:102A60005CF78EFB1A9A12015CF78AFBA04BDA6EB8
:102A70000A43996EDA66014399661998401CCDE7BE
:102A80001A98401CC5E7B24E308818AC20802088C8
:102A9000C046C046208804211491C943084202D090
:102AA0000020308003E0B08901218843B081179B6A
:102AB000B08BA849014007200D90C0020818B083D0
:102AC000A54D288818432880E88D06229043E88584
:102AD0000124A003B18B0143B18328889F490140A1
:102AE00029806888029210439843688005200A90E4
:102AF00000070646418D9A4AFF32E88D10407D223C
:102B0000D2000F2712973F03C90515940692039729
:102B100022D4032149020843E885E88D3843E8853B
:102B20008B4A908B98439083908B04218843134663
:102B3000908368888B4901406980E88D2043E8854F
:102B40003746788D4007FCD520E0C0460031005064
:102B500000330050208DFC0710181830E885E88DF0
:102B600081490140E0030818E885794A908B1843B1
:102B70009083908B149988439083E88DA043E885D7
:102B8000908B40218843134690833746159A100254
:102B90000E901C46988B0321139108439883288834
:102BA0002021084340230F93DB4318402880208CCA
:102BB0001191084318402084F88A80210891084325
:102BC0001840F882388EFF21049188433886388F68
:102BD000149C20431821079188433887388FA021FF
:102BE00001430B931940398760480480B8886049D5
:102BF0000140B98010045F490860FFF7A9FD5E4AF3
:102C000010680D9908401AA90870087802280A9CD3
:102C10003D4620D0688D0E99084214D001F096FBF5
:102C20000A2802D80B2001F09BFB4B48C08DC0073F
:102C3000514A08D14849C88D159A10434E4AC88553
:102C4000688D4007FCD5106802210143A143116043
:102C500050684007FCD549480068C1B20C20AA2939
:102C6000014600D014992A88824388182880C046DB
:102C7000C04643480068434909886823424C002203
:102C800009920C93E2521A4B1A4658329180986579
:102C90001598C046C0463D4F381F00683C498842E1
:102CA00000D060E1129804070420002105911094DF
:102CB00003463918081F3A46EC32904200D355E1DA
:102CC000149300681990199B234009200407199A4E
:102CD000A34270D1199B1C0AE3B21293D2B2531EC5
:102CE000162B00D905E19B0002A7FB58274F9F46F2
:102CF000508DFC07272FFC07272FFC07F32EFC071E
:102D0000272FFC07F32EFC07952DFC077B2EFC07D5
:102D1000F32EFC07F32EFC07F32EFC07F32EFC0723
:102D2000F32EFC07F32EFC07F32EFC07F32EFC0713
:102D3000F32EFC07A32EFC07432EFC07CB2EFC072B
:102D4000372EFC07F32EFC07E92EFC07692EFC0743
:102D500004030050FFC3000052000050FFBF0000FA
:102D600000F0FFFFFFF90000FF0F0000000200501D
:102D7000FFF7000080E200E00000F407D07FF807D2
:102D8000D47FF807D87FF807CC8BFC07D47EF807F0
:102D9000A5A5A5A5BD4D0C9FE85DC0002818129AF9
:102DA00092005CF7A9F9E85D0019E855C0B2052862
:102DB00074D300BE72E0900F10D01998B4498842C5
:102DC0000CD8149B1846083029462831199A8A4293
:102DD000109C26D1D959AF4A118069E71998109CE7
:102DE00020400D990907884205D10020C046C04601
:102DF0001498001D5CE7199820401599C90788426E
:102E0000149A0CD0199820400A994907884206D094
:102E10001998204013994907884200D093E0101D6B
:102E200046E7A91C199A8A4200D083E0D959662244
:102E3000964B99523CE71498C0596221934A5052DC
:102E400071E0149AD1594843D259120C801A00B239
:102E5000C0085A238D4CE052501A81088E4A114006
:102E60000818401C58212EE01498C0596421874A44
:102E70005052000457D100BE55E06927834DE85DEC
:102E8000C00028181030129A92005CF735F9E85DFE
:102E90000019E855C0B20D2800D300BE35467F4F5B
:102EA00041E0149AD1594843D259120C801A00B209
:102EB000C0085623754CE052501A8108764A1140DA
:102EC0000818401C542160522DE0059CA0001AAA4D
:102ED0001018129A92005CF70FF9129804190594D1
:102EE000032C20D300BE1EE01498C0596749086522
:102EF00019E01E2A17D1129840080206CFD00B689D
:102F00004A68083100273C460834382C09D05F4D08
:102F1000EF1935463F699F422746F5D15B4B1B1998
:102F2000DA60401EE9E71298800014990818001D25
:102F3000109CBDE629462431199A8A4209D1D959F3
:102F4000544A5180B4E61998401C0FD000BE104678
:102F5000AEE629462031199A8A4200D0A8E6D9590E
:102F60004C4A9180A4E66620255A38E05C201A99E4
:102F7000464C215209201B9948430A0C801A00B282
:102F8000C0086023E052501A8108434A11400818D3
:102F9000401C5E2160520C9AA05CC10701D000BEAB
:102FA000A05C4008A0546920215CCA0701D000BE83
:102FB000215C490821546420215A002901D1069935
:102FC00021526620255A002D354909D13549096815
:102FD000C9B2AA29089D00D06E252C490D5230494E
:102FE000CD833746B08C159CA043B0840D20FDF7EF
:102FF000C3FF7089204302210C9188437081788936
:103000004006FCD57D800698FDF7B6FF78891399B8
:103010008843788178890006FCD57F202049087193
:1030200020488069204AD060EFF31085159880F31E
:1030300010883888089A104338801C4A10680D9B05
:103040009843106050684007FCD519481061194832
:1030500050613088089A90433080708D0E9A1042EB
:10306000099B0DD04B72104C207801F079F9099B27
:103070006078002804D11049C88D159A9043C885FE
:10308000002D1BD0159880F310881AE0CC8BFC071C
:103090004C420050A000FC07FF3F0000D47EF80720
:1030A000508DFC07D07FF807D05CFC070000F407C8
:1030B0000F009909090404A452000050002080F375
:1030C00010880A9CEB480068EB49884200D0C7E0B2
:1030D000EA48EB495CF729F80D980102E9485CF7EA
:1030E00024F8FDF703FDE848E8490160E848E949AC
:1030F000302214925CF700F8E7480025C57185710D
:1031000045710571C570857045703F21059101704D
:10311000E248E3A10F9F3A465BF7EEFFF0480570E7
:10312000F048F1490160F148F1490160F149F24884
:103130000860F2480A210170F14812950570F148C3
:1031400032210A910170F0480460F048159D056035
:10315000EF480460EF4802990160EF480D99016063
:10316000EE48179C04600E98801DED490860ED49FB
:103170000860ED48C149016000F0D2FB22463446A8
:103180003089149988433081308908990843308107
:10319000308910433081308CA8433084708907997E
:1031A00088437081308938433081308A04218843D4
:1031B0003082A08A8007FCD50399FF31E08C08405B
:1031C0000B2109020143E184E08C159B1843E08444
:1031D000608910431021099188436081608C984375
:1031E000608420890F9988432081D04837309A071E
:1031F000116801401492116005984002CC4A116890
:103200008143580308181060CA48401C11680143E4
:1032100011609848006898498842129C3BD0C24887
:103220000068C3498860C44AD0689071010E517229
:10323000010C1172000AD0710E98C030BF490A46C5
:10324000002817D0401E435C14782546139F3D404C
:10325000B94F7D19AD795D4065401570521CEFE79F
:10326000B748B6496202934200D931E71A585A501A
:103270001B1DF7E7B04D2035B0491C2228465DF7ED
:10328000CFFE0028129C00D000BE28465DF75CFEF1
:10329000784879490160A44800683EF7DBFFA94DF2
:1032A0002C71EC70149A10680E9908431060FEF7A8
:1032B00017FC159800F046FCA3490878002802D0B6
:1032C0000898487004E00020E870A04908709E4902
:1032D0000C674C678C679E4D079A2A70681C9D4945
:1032E0005BF70AFF6C8404259B49284659F781FD4A
:1032F000954870300499817010952846214659F7F9
:10330000AAFD9148847444628462448460F7F0F9B1
:103310008D490878002804D0812048708F4D159F72
:1033200005E0159F8748C770884807708B4DFFF7E9
:103330006BFA0520FDF7CCFD16982880884A179B6C
:103340005380884888490818884940188008401EDA
:103350000790059880020190F80313907A49844FF2
:1033600035462E462889000600D436E11498006BB5
:103370002546139C20422C4600D02EE1714800883F
:10338000C00700D029E10F465AF737F8002420463D
:1033900000F0D8FBF87A042800D017E1159F3846D2
:1033A00000F0D0FB0D94199419A804214AF7C6FB2C
:1033B000002800D10AE16F490F6008680028FCD19D
:1033C0001498C069604BD96A884201D20D99D962BC
:1033D000411ACA09197B182A41D9C90742D15A4949
:1033E000C862654C2088059060880490A08803908E
:1033F000E08802900D981B9060481A901AA8FEF77A
:103400002BF806981730218901404F4A9182618933
:103410000140D182FEF7D6F820880C99084320801D
:1034200020888007FCD4E781208A43498988464A5E
:10343000928A2389019F3B4013432381424AD28AC7
:1034400063893B4013436381401A06994143002836
:1034500000DD97E04A4A8918C017084094E0C80781
:1034600000D1B3E03849086B401C086300F018FD38
:10347000ACE0C0469CB8FC076587341200A0FC078E
:10348000AC14000000B9FC0760BAFC07BC4EFC0796
:1034900000BAFC077CFCF107DAB9FC07B0BCFC07FA
:1034A0002000800000C000000000840000002822EE
:1034B000000000000000040000F7FFFF7F00000094
:1034C00030F0FF0F000000000004000000000000CA
:1034D00000000000000000000000000000000000EC
:1034E000FDB9FC0750B9FC07603FF20754B9FC076F
:1034F0006450FC0758B9FC07344FFC07B0B9FC070F
:10350000B1B9FC07D9B9FC075CB9FC0760B9FC0785
:1035100064B9FC0768B9FC076CB9FC0770B9FC0713
:1035200048B9FC0744B9FC074CB9FC07C8FEFFFFCB
:1035300000020040FFFF1F00D05CFC07408EFC072C
:1035400000B0FC0754BAFC07508DFC07B4BAFC0766
:10355000CC8DFC07D856FC07544BFC0700310050BB
:1035600000330050B05600001001FC07030004F8BF
:1035700004030050FC00004000150050010400004E
:103580002BFDFFFFCE480818CE495BF751FD85099A
:103590001935BF4908797F280ED0281A41B2C911C0
:1035A0004840401A40B2052807DBB94F386B401C31
:1035B000386300F075FC39460D71BE4804994180AE
:1035C000039981800299C180059901805DF7A8FB6C
:1035D000AE4A179BAE49AF4F129C1380887C0028DF
:1035E00008D13220B849FEF71DF9A949179BA74A0F
:1035F00015988874538072B6AC480079022820462A
:1036000002D0A6480068806A1A901089C007354623
:1036100000D033E158F7BDFF9D49179B9B4A002816
:1036200000D12BE1A148C078012800D0B0E0A88AE1
:10363000C00700D094E09D480088002800D0A7E093
:10364000A248806A002803D094480068806A1A90D3
:1036500000F044FE954881781AA859F792FD002899
:103660008A4A179BF44900D192E0149800694006F9
:1036700000D58DE08D4881781AA84AF75FFAEE49A7
:10368000179B824A002800D182E00198FF308A4AC5
:10369000118801400E98014311801A980028149C4B
:1036A00006D0216A7E4A8918DA2901D8401E1A906C
:1036B000E148008CE24A116908185061E06B844BC4
:1036C00018400843E063E06B824908409169890231
:1036D0000143E163E06B74490840516949050818EA
:1036E000E0631A9A7C48824200D300BED249086E39
:1036F000496E00235BF7B0FC0903000D4118D04868
:103700008069821C8A4200D0481E684909794A1E95
:10371000914146F729F97148C06A80471399206B97
:103720000842FCD0594A0E995E4C20680842FCD0F1
:1037300020680899884320605089452804D846218C
:103740005181081ABC4908643EF7BFFDA068BA4918
:10375000C86320680006FCD5288908998843288119
:1037600053480178288A109B18432882534A1068CE
:103770001843106038893A46159FB8431081688A0B
:10378000012907D10999884368820E99414F30E099
:1037900030BF73E0099C20436882688A18436882BE
:1037A000FEF7D6FF688A204368823B48079901628A
:1037B000EFF3108087F310882988089A91432980B5
:1037C000002802D087F3108802E0002080F31088E0
:1037D0000E99304F688D08420BD00020ED49487299
:1037E0000B2000F0BDFD9549C88D159A1043C88582
:1037F0000E9900202883688D084206D18F490888D9
:103800000F9A1043119A90430880388C0F990843FF
:10381000119988433884A88C159FB843A8840D203B
:10382000FDF7AAFB688938430C9988436881688949
:103830004006FCD50A986880A88AC0061349179AE2
:1038400000D50A8030BFA88AC006124F00D54A8032
:103850007A490888119A10430B9B18400880388CCD
:1038600010431840388400F05BF8179B074A134C4C
:103870002068109988432060C649129C62B6169849
:10388000014E30806DE5C0460031005000330050DD
:10389000508DFC07040300500000F40758B9FC07E2
:1038A000C8FEFFFF00020040FFFF1F0054BAFC07E4
:1038B000B4BAFC07001500503830005010ED00E09D
:1038C000D5020000AA050000B148FC0774BEFC0741
:1038D00000FCFFFFFF03E0FF40420F0058BFFC0762
:1038E00010B569210D48415C143000228A4206D28D
:1038F0000368041F246823600830521CF6E710BDDB
:1039000010B568210548415C00228A4204D218C8DB
:103910001C600030521CF8E710BDC046CC8BFC0781
:10392000F8B5434DE88CC005424E1AD54248407A5E
:10393000012803D100F00AFD1B2812D83F4C208833
:10394000C00400D4B08AFF201C303D4908801B20F1
:1039500000F006FDE08D01210143E185E88C400780
:10396000FCD5384838A118225BF7C6FB3CA03F497C
:103970001CC81CC1FDF7B3F83D483E490160EFF398
:103980001080012484F31088298840220A432A8069
:10399000002802D084F3108802E0002080F3108811
:1039A0003548018835498A8980231A438A81344AF7
:1039B0000B25158008220A8000268E808A899A436A
:1039C0008A8103228A818483068486841A488663D6
:1039D000047215021D22204629462346FDF780FB6E
:1039E0000520042229463346FDF77AFB144EB078B1
:1039F000002806D10920002229462346FDF770FB46
:103A0000B47006200F2200261E4F31463346B847B9
:103A10000720172229463346B8470B20182229468B
:103A20003346B8470349088820430880F8BDC0469C
:103A3000040000500C030050508DFC075200005051
:103A4000D05CFC0720000840F99DF0070000000052
:103A5000E3A1F107000000004FA4F10700000000FF
:103A60000D05FC073B08FC074B09FC07C000FC07E1
:103A700000000840070010007C11005000110050A9
:103A8000C0110050E110FC070549884200D000BE7B
:103A900004480188044A11408918091D01807047B3
:103AA0001111111112000050FC7F0000F8B50446FE
:103AB0000026234F302E0FD0BD19E88AFD2801D1F2
:103AC000064969605DF71AFC002803D08268284621
:103AD000214690471836EDE7F8BDC046584EFC0722
:103AE000B0B50025164C002826D1012D26D8FF2080
:103AF000E082002020606060A060E0602061102013
:103B00002843C0B2A082214659F773F918346D1CBE
:103B1000EBE7E08A5DF7F2FB002802D0416820461F
:103B200088470020E0816060A060FF20E082207D67
:103B300059F7B9F918346D1C012DEAD9B0BDC0464A
:103B4000388CFC07B0B5D04DE978012921D1124954
:103B5000002803D008884007FCD402E0088840070A
:103B600017D40023EB70C8888988000444181F20EC
:103B70004006492122465FF773FC28666966642186
:103B80004143080CA86405486043800B401C400872
:103B90002865B0BD508DFC070016005011110100C2
:103BA00010B5F24C082020701120FDF7E5F9032034
:103BB000607010BDFEB5624803250570614C20465B
:103BC0001438016814220A436B218A430260A06AF8
:103BD0005D49C8610020C043A06220683F2188433E
:103BE00020602068594908402060606858490840B2
:103BF00001210191890202914018606060684021B2
:103C00000143302081436160A069524908400B2183
:103C100049064018A061A0694F4908406902401850
:103C2000A061A0691821014327208143A16143209D
:103C300020714A4880474A4880474A488047404860
:103C400005700095484806684848804748488047BE
:103C5000206848490840F105401820603B4E403636
:103C600020683040490C4018206041272771606867
:103C70003749084002994018606038488047384802
:103C80008047384880472E480570374805683748D0
:103C9000804737488047206836490840E905401882
:103CA000206020683040490C40182060277160680F
:103CB00027490840029940186060284880472848F2
:103CC0008047284880471E480099017026480068B0
:103CD0002168284A1140C2058918216021683140B5
:103CE000254D0540A80108182060606801998843A7
:103CF0006060154EF069A06220681C2101432320FA
:103D0000814321602068114908402060A069114961
:103D10000840072189064018A061A0690E490840A3
:103D20000F21C9014018A061A0691E210143212073
:103D30008143A1610D4880470D4880477587FEBDCE
:103D40000510004018300040D05CFC07FF7FFFFFEB
:103D5000FFF9FFFFFFFFFFC03FF0FFFF251EFC073D
:103D6000ED1EFC075B0FFC0788300040011EFC07BE
:103D7000470FFC07FFFF7F00FF01000070470000B6
:103D8000F0B58BB03022002181541F221204344B35
:103D90001D68954301246204AA181A60324B334D02
:103DA0004561334D334E344F344AC261066243623B
:103DB0002C4A8262C562324A07604260E004C74A08
:103DC000136883431360282903D001A84154491C78
:103DD000F9E72C480068403001A928225BF78CF9EC
:103DE000C24DAC73FFF7DCFEFFF78AFDFFF778FDED
:103DF00000F07EF900F056FB00F06AF8FFF7DAFEFB
:103E00002C7322480088072101406973FDF738F8B8
:103E1000FDF73CFEFDF74EFE1D490B881D4804686A
:103E20001D4A1440E31803601C4B1C88856915402B
:103E30002C1984615B88C4691440E318C3614B8A00
:103E4000046A1440E3180362898A436A13405918CC
:103E50004162A44802218170002101800BB0F0BDB5
:103E600074000040CD3EFC07C93EFC07B53FFC078F
:103E7000993FFC072113FC07713FFC07733FFC07C8
:103E80007D3DFC074CB9FC07508DFC07B810004085
:103E90001030004088A0FC070000FFFF64300040A5
:103EA00080B5FFF77DFEFFF71BFD00F021F900F064
:103EB000F9FAFCF7E5FFFDF7E9FD8A480221817078
:103EC0000021018080BDC04600207047704700007F
:103ED0000E4908880E4A024001204302D2180A8087
:103EE00041057E4A13688B431360810700224A67AD
:103EF0001F2212044B6F9343400418184867086848
:103F0000E0220243102082430A607047383000509C
:103F1000FFFC000080B51F20000401218A07536FB9
:103F200083434804181850671068072188431060BD
:103F30000D48018808220A430280FFF731FEFFF78F
:103F4000DFFCFFF7CDFC00F0D3F800F0ABFAFFF791
:103F5000BFFFFDF7AFFD63480221817000210180A2
:103F60000520FCF7B5FF80BD08000050041000409C
:103F7000704780B5E62800D3E620282800D82820FE
:103F8000F9214A0042437D20C10010465BF73AF810
:103F90007F38C0B280BD00000548016807220A438F
:103FA0000260012080044D490A6882430A6070471C
:103FB00030000040022902D0012900D000BE0028B4
:103FC00002D0FF2804D000BE022901D10C20704786
:103FD000D848807B002800D009207047F8B53F48BA
:103FE0000168C90703D0016802220A430260012464
:103FF0000168490203D5A10502680A43026027024D
:10400000650237490095084608380668002E63D0D7
:10401000300606D58020086049F739FCFDF760FDC1
:104020002F49B00704D50220086045F72EFB2C4924
:10403000300714D508200860FCF714FD3D462746DC
:104040000024204645F7DAFA25490420B94AD072FF
:104050000220244A907014803C462F46009D3E4228
:1040600004D00F60012045F7C9FA1D492E4203D044
:104070000D6049F775FC1A49700604D540200860A8
:1040800045F7B7FA1649F00604D51020086043F743
:1040900073FE134970070FD5042008601249088881
:1040A000A043088059F710FA3EF7CAFAFDF718FD49
:1040B0000B490020F64AD072F00707D00C6059F780
:1040C0001FFA49F7E4FB0649F148C472B0069AD5D5
:1040D0002020086000BE96E7F8BDC0460002004000
:1040E000180000400410004008330050508DFC07B9
:1040F000FCB57F2000025A4A516981430B2000021F
:1041000008185061106880B25649401810609069D4
:10411000554C04400123580300902018906103205F
:1041200001900002146B04431463908F1024044325
:104130009487908818439080E3484C4A02604C4A28
:10414000104610384B4CA58B054015204301E8184C
:104150005030A0836069484D054048482818606188
:10416000A069474D0540092040022818A061206839
:10417000444D05404448281820606068434D054080
:10418000434828186060A068424D054042482818FE
:10419000A060E068414D054041482818E060BC48F7
:1041A000807B002802D1C120400100E03D483E4D07
:1041B0002860052080023D4F3880401DB880388C33
:1041C00055260643AA2086433E84FF266C36304699
:1041D000C9303885364908460E30B88535483886A6
:1041E000B986C01D388734482085A06B334901400B
:1041F00033480818A063334C2680208F10401F4698
:104200002037C01920873048018811408919D531DD
:10421000018081881140C918818001891140C91924
:1042200001812136A680294801881140C9186031D2
:104230000180818A19220A4306218A438282A88F3B
:104240002349014000980818A88722480168019A6C
:1042500011430422914301601F486866FCBDC046BB
:104260002030004000008888FF00FEFF59055C07F1
:104270001FFCFFFF042000400000E0FF09581A0067
:10428000FEE1FFFFE0E00000080929490000030308
:10429000696A686C031FFFFF70600000E0E0E0E007
:1042A0000B0A0A08201800090010004028130040DB
:1042B000260A000051080000070F00002F64E0FEEE
:1042C000101A0601001200404412004088120040FB
:1042D000FF9F00008010004050015001F8B564209D
:1042E00013490E5A6A4FBC6C30466043124940185D
:1042F00012495AF787FE054638843C3666430E4815
:1043000030180E495AF77EFE001D0D490861281825
:10431000C01D88610B4A1278022A01D111308861D0
:10432000FEF784FA0849401880B259F7F7F8F8BD4B
:10433000CC8BFC07508DFC0720A1070040420F00EA
:10434000D05CFC07B4BAFC07E20400000D48018809
:10435000890918220A4000888004400F801870479D
:1043600008490A88084B1340F822024092011A4378
:104370000A800A88054B13404007800C18180880F3
:104380007047C04654000050FFF90000FFC700000E
:10439000F8B505464078652801D300BE6878204E00
:1043A00031884F1C784364215AF72CFE0446A878C4
:1043B000652801D300BEA878784364215AF722FE0D
:1043C00029784B1E052B29D831460E31B21C9B0093
:1043D00001A5EB589F46C0461744FC07F143FC0774
:1043E000FF43FC070744FC07F743FC070F44FC07A7
:1043F000321D103605E0314616310A360AE0B21D8C
:104400001236314607E031461431083602E03146B3
:1044100018310C363246108000190880F8BDC046AD
:104420000834005070477047024801884906FCD59F
:104430007047C0461411005017480188012291436B
:104440000180704710B5D04B00249C8358639A6359
:104450001983104908200860BFF34F8FBFF36F8F97
:104460000D490A88022414430C800A8880241443CE
:104470000C80197A4A1E9141C907FF221206074B88
:104480001C689443611819600549086010BDC04656
:10449000508DFC0780E100E00411005000E400E0D2
:1044A00000E100E018B50848016800910099074A4A
:1044B000009B1A40FF2424040C40D9B20919044B74
:1044C000C9181143016018BD8000004000FF00FFC3
:1044D0000A000A00F0B587B00D46A849884239D0D5
:1044E000A749884200D047E16888C11E09293CD805
:1044F0004900C0467944898849008F4409003D013C
:104500003D01A3003D013D0150003D013D018E00F4
:1045100002AE00243480AA88A91D30465AF7ECFD6B
:104520003588D34829465CF7E9FB002D00D1BBE074
:10453000012D00D020E1042058F7A2FC032800D070
:104540001AE1D0485CF7DAFB6420CF49FDF76AF93D
:104550000446F7E08B4802241946234658F74AFAE6
:10456000A988018058F761FA06E1102800D003E11C
:1045700006AC00202080AA88A91D20465AF7BCFD61
:104580002188814CE18481A05CF7B8FBE08C012894
:1045900000D1BBE0002800D0EEE092A0EAE0A988BC
:1045A00004296DD1687A00902E7AEF79AD79A1480F
:1045B000F34CA047A04829462A46A0479F483946C1
:1045C0003A46A0479E48314601963246009EA04793
:1045D0009C4831463246A0476421642F00D30F46E1
:1045E00004A88770642D00D30D4645700122027027
:1045F000642E00D30E4603ADAE70019A642A00D338
:104600000A466A7002212970FFF7C2FE2846FFF7AA
:10461000BFFE8D48DA498847AEE005AC0020207027
:10462000AA88A91D20465AF767FD7A485CF766FB01
:1046300024787948214622465CF760FB012C21D979
:10464000764897E0A988042929D128890190EE7934
:10465000AC797F48CA4FB8477E4821462246B847C2
:104660007D4831463246B847019845BA7B482946CD
:104670002A46B847032C01D8022E49D37B4879E05B
:104680006B480DE036D16748018808220A43028052
:104690006348018801220A43028064486AE06B484B
:1046A00004225CF72BFB67E072485CF727FB364877
:1046B000477C002F60D00A2F41D8B8006E494518BA
:1046C000286A00283DD06D4988423AD020356C4890
:1046D0003818401C0426314658F715FD67482860F5
:1046E000082367483146324658F784F9077058F76F
:1046F0009CF927E04A4801880122914301804948FA
:104700000188082291430180474833E029A031E025
:10471000444801880322914321430180404F388857
:1047200008218843F106090E0143398038880421A5
:1047300088433880012E08D07D20060206E000BEA6
:1047400000E000BE1048447416E0454E45488542DE
:1047500000D30546E640022D00D802253046294602
:104760005AF750FC014630465AF74CFC401E1A3F9F
:1047700038803D485CF7C2FA07B0F0BD0D0C000070
:104780000AFD00000E0C0000508DFC075B424154F6
:104790005445525920564F4C544147455D20636360
:1047A00063645F76616C7565203D202575200A0D78
:1047B000000000005B4241545445525920564F4C72
:1047C000544147455D205374617274696E67206E71
:1047D0006F74696669636174696F6E732E200A0D68
:1047E000000000005B4241545445525920564F4C42
:1047F000544147455D2053746F7070696E67206E39
:104800006F74696669636174696F6E732E200A0D37
:1048100000000000C154FC07F252FC077F55FC0762
:1048200022340050040000503A54FC075554FC0751
:10483000AA53FC07FD54FC07F451FC072752FC0760
:104840005E52FC079152FC074D55FC076F53FC0765
:10485000DF54FC071B53FC07C852FC074553FC07F9
:104860000024F400FF3F00002455FC076F54FC07B0
:104870009D55FC07EE53FC07CC8DFC072544FC0737
:10488000020400001454FC075926FC0780B50C21D3
:104890004143354840187221405CFF2800D080BD5C
:1048A000FCF750FF80BDC04680B5FCF74BFF80BDD4
:1048B000F8B50520FDF70AFE2A490888012630438D
:1048C0000880FDF7BBFD284F7884FDF7ABFEB88468
:1048D000F96E7102BB6E0B40244A254CA04205D8EC
:1048E000002B00D100BE518023A404E0002B00D196
:1048F00000BE11801FA42148214DA847798CBA8C95
:1049000020A0A8472DA02146A847F88C01281CD13B
:10491000042058F7B5FA032817D1B88CC1B2020A9F
:1049200030A05CF7EBF9FD203DF74DFF014636481E
:104930000422082358F75EF8022181800F2141806C
:104940004670B98CC18058F770F80C485CF7D6F9FE
:1049500004490888B043088032202C49FCF762FFE4
:10496000F8BDC04600150050508DFC0702300050C5
:104970006B0700004E4F000059455300C155FC071E
:10498000FD0CF2075B5556505D20526567697374E4
:1049900065722056616C75653A202575207C204231
:1049A00061747465727920566F6C746167653A2022
:1049B0002575206D56200A0D000000005B555650ED
:1049C0005D2053797374656D20756E646572766FC2
:1049D0006C74616765207374617475733A20257314
:1049E000200A0D005B5556505D204C53423A203052
:1049F00078253032582C204D53423A2030782530DB
:104A000032580A0D0000000006FD0000B148FC0706
:104A100002E008C8121F08C1002AFAD17047704787
:104A2000002001E001C1121F002AFBD170470000E5
:104A3000034880F3098800F025F8FBF769FBC046BE
:104A40002C65FC0704207146084203D0EFF309806F
:104A50000A490847EFF308800849084770470420CF
:104A60007146084203D0EFF3098005490847EFF388
:104A70000880034908477047FEE700006112FC0701
:104A8000C911FC071A4988880722904388800520AD
:104A900000078A89D2070DD0098800290AD1154953
:104AA0000A8802854A88828489880184418A124A58
:104AB0000A404282114906220A800121CA03104B92
:104AC0001A60BFF34F8FBFF36F8F02221A60BFF3DC
:104AD0004F8FBFF36F8F1960BFF34F8FBFF36F8F8F
:104AE00041890422914341810021018062B67047CF
:104AF00004030050A000FC077FFE000000340050BB
:104B000080E100E0B86D36FFEA30B9A7BE4148EE5B
:104B10009644FFFE72508A2DCACF9CB6514F07BCF7
:104B2000F60DFF3AF05D4D6FB66A9B983342B3F2D3
:104B3000F60F2FC8422D1B1C460226B4D04A1ED5A4
:104B400025F9C32D358C6830BB00EC89464B67F2E4
:104B5000C4A7F4FE00000000644BFC07708CFC0747
:104B6000040001006C4BFC0701000000FFFF000087
:104B7000A932F20702140000351EFC07010D0000E7
:104B8000AD22FC07000D00006522FC07000E0000AE
:104B9000BD20FC07010E0000E120FC07030E000011
:104BA0004921FC070A0E00009521FC070C0E0000AD
:104BB0005122FC071C0D0000D922FC07100D00003B
:104BC0005D22FC070F0E00003922FC072C0E0000AE
:104BD0003122FC07120C0000E922FC07080E00003D
:104BE0004122FC071B0E00004922FC075118FC075C
:104BF000C918FC077118FC07A918FC07CD16FC079B
:104C00001D16FC07F8000000130E00005520FC07DD
:104C1000150E00002D1FFC07170E00009121FC0748
:104C2000190E00007921FC07150D00005922FC0720
:104C3000210D0000E522FC07220D0000E122FC0707
:104C4000080004900000000000000000030005D0F0
:104C50008B0035F010005CF0000010B0000018B0C0
:104C600000001AB0030051F0000038B000003AB064
:104C7000000064B0000066B0000022B0000024B064
:104C8000010005D0000000000A0000800803049025
:104C9000000004F0030006D0000000000A000080BD
:104CA00008030490000004F0030006D00000000098
:104CB0000328002802290129FD000000F04CFC0710
:104CC00012000000E915FC070000000000000000D1
:104CD00000000000FF0000000000000000000000D5
:104CE00000000000000000000000000000000000C4
:104CF000B24CFC0710000000010000001000100082
:104D0000AB4EFC07B04CFC070200000001000000A5
:104D10000000000000000000444BFC0710000000F1
:104D2000010200000200000000000000B44CFC077B
:104D30000200000009000200020000000000000064
:104D4000B64CFC0702000000010000002A002A0007
:104D50000956FC07B04CFC070200000001000000EF
:104D60000000000000000000244BFC0710000000C1
:104D7000080002000400000000000000B64CFC0720
:104D800002000000010000001B001B008E56FC0703
:104D9000B04CFC0702000000010000000000000011
:104DA00000000000144BFC07100000000800020087
:104DB0000400000000000000B64CFC0702000000E8
:104DC000010000002C002C00AA56FC07B04CFC0788
:104DD00002000000010000000000000000000000D0
:104DE000344BFC0710000000080002000100000026
:104DF00000000000B64CFC070200000001000000AB
:104E0000170017007656FC07B04CFC0702000000A4
:104E1000010000000000000000000000044BFC073F
:104E2000100000000102000002000000000000006D
:104E3000B44CFC0702000000090002000200000060
:104E400000000000B64CFC0702000000010000005A
:104E50002B002B003456FC07604EFC0709000000B5
:104E6000130C00004B29F207150C0000F122FC077F
:104E7000170C0000572BF207000C00002328F20744
:104E800006FD00005728F20703FD00003728F2074F
:104E900008FD0000B328F2070EFD00000F29F207FD
:104EA00005FD0000891BFC07001201EE8F7A37CC4C
:104EB000565DAAED40A0F0C294E0D60001000001CA
:104EC000B509FC0701000002A50AFC07000000006C
:104ED00000000000F4011700F4352348F40108C471
:104EE000140A0000140000009516FC0700000000E2
:104EF000FF0000000000000000000000140000009F
:104F0000ED14F207FD0000002126F207FF0000006B
:104F100000000000ED16FC073916FC07F456FC07EC
:104F2000D544FC07EC4BFC07C08DFC07A48CFC07A8
:104F3000718CFC07050000002C65FC0700040000D4
:104F40004C92FC07AC020000408EFC0700040000FD
:104F50000495FC07700500002003000000A60E0069
:104F600004000000D2000000320000003C000000FD
:104F7000010000000100000002000000020000002B
:104F80000400000003000000060000000000000014
:104F9000020000000200000000000000000000000D
:104FA00003000000030000000500000005000000F1
:104FB000060000000A0000000A000000C80000000F
:104FC000B80B000002000000B80B0000B80B000096
:104FD00010000000D4010000CC01000070020000AD
:104FE0006A00000004000000010000002000000032
:104FF0000A00000001000000E20400008A02000034
:10500000DC050000AF000000E051FC072050FC0769
:105010005450FC07E851FC07144FFC073050FC07C4
:10502000A8B8FC07A0B8FC07B8B8FC07F8B8FC079C
:105030002A5DFC07C08BFC07C18BFC07C48BFC07F7
:10504000C88BFC074544FC072944FC07011AFC07F0
:10505000CD19FC07A84EFC07AA4EFC07F04CFC0734
:10506000011CFC07813DFC07153FFC0793DEF007A0
:10507000F1DEF007F9DEF00749DFF00761DFF00746
:1050800077DFF00799DFF00719E3F007BDE5F007D8
:10509000FDE3F0071DE4F0073DE4F0077BE4F007D3
:1050A0008BE4F007F5F9F007B1F7F007CFF7F00759
:1050B000EBF7F00705F8F00719F8F00797F8F00795
:1050C000AFF8F007DFCDF10767D0F107DBB9F007E4
:1050D000CD0DF207B10EF207AD0EF207A90EF207E1
:1050E0008D21F007893AFC07C927FC070928FC072E
:1050F0005D28FC075528FC07B57EF007837DF00787
:105100002501FC07599EF107634CF107E13AFC07C2
:10511000D110F207AD3AFC07B111F2074112F207C4
:105120007912F20700000000111CFC07131CFC0799
:10513000B9C6F007D592F107B301FC075F9DF107EF
:105140005F9CF107C504FC07EB72F107B922F10778
:105150006B04F107851BFC072BA4F007F1D2F007C5
:105160005FBDF007D5BDF00785BEF007DB2DF0076A
:10517000752EF0071581F007DF7FF0070937F0077C
:1051800000000000DD1DFC07E51DFC07491AFC07B7
:10519000F3C3F10775C4F10703C5F107611AFC07F2
:1051A00000000000000000000000000000000000FF
:1051B00000000000000000000000000000000000EF
:1051C00000000000000000000000000000000000DF
:1051D00000000000000000000000000000000000CF
:1051E000D44EFC07A88DFC07FC4EFC07388CFC074E
:1051F000020000005B50574D20444320414E4420A4
:105200004F46465345545D2064635F70776D32208E
:1052100076616C7565203D20257520283078253015
:10522000325829200A0D005B50574D20444320413D
:105230004E44204F46465345545D206F6666736565
:10524000745F70776D322076616C7565203D202526
:1052500075202830782530325829200A0D005B50FF
:10526000574D20444320414E44204F464653455419
:105270005D2064635F70776D332076616C756520A7
:105280003D202575202830782530325829200A0DF8
:10529000005B50574D20444320414E44204F46462A
:1052A0005345545D206F66667365745F70776D3328
:1052B0002076616C7565203D202575202830782585
:1052C00030325829200A0D005B50574D2046524578
:1052D000515D20636C6B5F7372632076616C7565E2
:1052E000203D202575202830782530325829200A85
:1052F0000D005B50574D2053544154455D2073744D
:105300006174652076616C7565203D2025752028C7
:1053100030782530325829200A0D005B50574D2037
:10532000465245515D20636C6B5F646976207661FF
:105330006C7565203D202575202830782530325841
:1053400029200A0D005B50574D20465245515D20E3
:1053500070776D5F6469762076616C7565203D209D
:105360002575202830782530345829200A0D005B17
:1053700050574D20465245515D20496E76616C690B
:1053800064207061636B65742062797465206C655C
:105390006E6774683A202575202865787065637497
:1053A000656420257529200A0D005B50574D204467
:1053B0004320414E44204F46465345545D20496E9C
:1053C00076616C6964207061636B657420627974C6
:1053D00065206C656E6774683A20257520286578AD
:1053E00070656374656420257529200A0D005B5380
:1053F000454E534F5220564F4C544147455D205324
:10540000746F7070696E6720746865204144432E24
:10541000200A0D005B53454E534F5220564F4C54BB
:105420004147455D205374617274696E67207468EA
:1054300065204144432E200A0D005B50574D2053F8
:10544000544154455D204F7574707574204F464625
:105450002E200A0D005B50574D2053544154455D9A
:10546000204F7574707574204F4E2E200A0D005B0E
:1054700050574D20465245515D20496E76616C690A
:105480006420636C6B5F646976206F7220636C6B61
:105490005F7372632077726974652028666972731E
:1054A000742032206279746573292C20696E7075BE
:1054B000742069732069676E6F7265642E200A0D0F
:1054C000005B50574D2053544154455D2042797440
:1054D000652072656365697665642E200A0D005B40
:1054E00050574D20465245515D20427974657320D6
:1054F00072656365697665642E200A0D005B5057FE
:105500004D20444320414E44204F46465345545D70
:105510002042797465732072656365697665642ECF
:10552000200A0D005B50574D20465245515D2053D7
:10553000554343455353206F6E2073657474696EF1
:105540006720636F6E6669672E200A0D005B5057F7
:105550004D20444320414E44204F46465345545D20
:105560002053554343455353206F6E207365747425
:10557000696E6720636F6E6669672E200A0D005B97
:1055800050574D2053544154455D20496E76616C0F
:10559000696420696E7075742E200A0D005B534596
:1055A0004E534F5220564F4C544147455D20636344
:1055B00063645F76616C7565203D202575200A0D5A
:1055C000002D2D2D2D2D2D2D2D2D2D2D2D2D2D2D38
:1055D0002D2D2D2D2D2D2D2D2D2D2D2D2D2D2D2DFB
:1055E0002D2D2D2D2D2D2D2D2D2D2D2D2D2D2D2DEB
:1055F0002D2D2D2D2D2D2D2D2D2D2D2D2D2D2D2DDB
:105600002D2D2D2D2D2D0A0D0053656E736F7220DB
:10561000566F6C7461676520286C6974746C652DB5
:10562000656E6469616E20627974657320746F20A1
:105630006D5629004261747465727920566F6C74DE
:1056400061676520286C6974746C652D656E64698A
:10565000616E20627974657320746F206D56290025
:105660004441313435333100765F362E302E3234BA
:105670002E313436340054696D6572322050574DE6
:10568000205374617465204F6E2F4F666600546915
:105690006D6572322050574D204672657175656E8A
:1056A000637920436F6E6669670054696D65723275
:1056B0002050574D3220616E642050574D332044A6
:1056C000757479204379636C657320616E64204F33
:1056D000666673657473000046554B554F4B415FCA
:1056E000555249435F414349445F53454E534F52DE
:1056F000000000008D48FC07A948FC0700000000DE
:1057000000000000411DFC07000000000000000038
:1057100000000000411CFC07000000000000000029
:1057200000000000511CFC07491CFC07691CFC0719
:10573000511DFC0700000000D11DFC07151CFC07D3
:10574000000000000000000000000000F91CFC0741
:10575000891DFC0700000000000000007D1CFC0704
:105760000000000000000000000000000000000039
:105770000000000000000000000000000000000029
:10578000000000000300001000010000C057FC07EB
:10579000C057FC076C060000204AFC07C057FC07F6
:1057A0002C5EFC0700070000204AFC07C08BFC07AA
:1057B000C08BFC0780020000204AFC070E0000009E
:0400000507FC0111E2
:00000001FF
