:0200000407FCF7
:10000000745FFC07FD45FC071146FC072B46FC0707
:100010004546FC074546FC074546FC074546FC07A8
:100020000000000000000000000000004546FC0742
:1000300000000000000000004546FC072313FC07F9
:100040000510FC07E53EFC07A526F0072513FC0775
:100050005112FC074546FC07C90FFC074546FC0743
:10006000D50FFC074546FC07AD10FC07B710FC0791
:10007000C110FC07CB10FC07D510FC074546FC0758
:10008000B913FC074546FC074546FC074546FC07F7
:100090004546FC074546FC074546FC074546FC0728
:0800A00000008E070E000000B5
:0200000407FCF7
:100110000348854600F040FF004800470128FC07DF
:10012000745FFC07F8B507460120002302460090E3
:100130001946032049F766F9044602218030017010
:10014000FF4DFE482A6843881146FF31F7310B8680
:1001500080884886FB48066A0123DB069E431E43CF
:100160000662FF320020FF32383250829082D08205
:100170001D200882F4484884F448C882F448088363
:1001800000204882384649F77DFC01462868FF3048
:10019000F730C28B920992010A43C283ED4841684D
:1001A00000208847002C02D0204648F714FD204646
:1001B000F8BDFFB58BB0064616980027022821D05F
:1001C0000D9801881498814278D371880846403888
:1001D0003F2802D8159855F711FD0C98361D008858
:1001E000149A80190E995EF787FF0C98018814986D
:1001F00008180C9908800D9801881498081A0D9910
:1002000008805CE100200E9D079069782C78090237
:1002100021433180E978AC780902214371808C4612
:10022000403904242D1D024603468E46402900D342
:100230002878614604291FD0052914D0062918D032
:1002400070463F283DD8159855F7D8FC0006000E9B
:1002500004D0C148008D0006C00F30D00223012019
:10026000BE4A002712E0697800290FD0BC4A172344
:100270000CE0BC4A0F2309E0522802D0D22802D059
:1002800002E0142000E01520B74A1F23002A1AD0EC
:10029000984218D2800010580490002813D00020F3
:1002A0000890059070884038402803D328780524AA
:1002B00030716D1C701D00900498B5E0FEE0302791
:1002C000F0E03327EEE07088042872D10627E9E0D9
:1002D000522862D00CDC4B283FD004DC41286AD085
:1002E000422858D111E04C2820D0502853D140E06A
:1002F000632830D004DC572818D061284BD19BE00C
:100300006C2864D0772846D109E0009829780170DC
:100310000098641C401CA4B26D1C009081E00498FD
:10032000401C04900178089881427AD10098A41C5E
:10033000401C41084900881C009068782A78000217
:10034000104308800599AD1CA4B2002969D008901B
:100350000020059065E00120FBE710222946009867
:100360005EF7CAFE009810341030A4B21035009029
:1003700057E0204640301499039088420BD8402221
:10038000294600985EF7B8FE009840300090039828
:10039000403584B245E0342743E0082229460098DE
:1003A0005EF7AAFE009808340830A4B20835009021
:1003B00037E068E0FFE70622294600985EF79CFEDA
:1003C0000098A41D801DA4B2AD1D009029E01498D2
:1003D000001B80B203903088001B001D81B20120F9
:1003E00007900498401C04900098401C400840006E
:1003F00000900498007857281CD04228CBD1009850
:100400000170090A417000982946801C0090039AE7
:100410005EF772FE03980399201884B20098401882
:1004200000900498401C0490007800281ED0002FF3
:1004300017D01BE04908E2E71498001B81B200982E
:100440000391401C40084000009001200A4607909C
:10045000294600985EF750FE0399601884B2009810
:10046000DDE70D990988A14200D331E70D98008896
:10047000A04208D304990978002904D107990029DA
:1004800003D1A04201D034270CE00D99001B088055
:100490000C9801880098801B001F08180C99002FE9
:1004A00008800CD07088042809D0062807D040386E
:1004B000402804D30E984079707100E03427384604
:1004C0000FB0F0BDFFB581B01F4616460C46104672
:1004D0005CF7D6FC00257F2802D02189062909D0A7
:1004E0003B4632462146019855F71BFF05462846F4
:1004F00005B0F0BDC00601D50225F8E72078002838
:10050000F5D1300AA11D42F7A4F8F0E7F1B598B093
:10051000189842F79CFA0446189805210079134A66
:100520004006C00F099068460184618B08460A386E
:10053000904276D2E08A062873D319E030BCFC07DB
:100540004CB9FC07C00000401080000029410000A9
:100550007671000058BFFC0748BEFC073803F2075D
:100560004003F2079C03F207D803F207770C000060
:100570001922D201904254D8228BFF23F5339A429C
:100580004FD8521C9300D2184243521C0A235210D7
:1005900059438A4245DC217F00290CD1617F002923
:1005A00009D1A17F002906D1E17F002903D12021B3
:1005B000095DC90635D0274620377978C906C90EA6
:1005C000491F0C292DD2A18A81422AD8E17C002919
:1005D00027D0421E082A01D9082000E0401E81428F
:1005E0001FD8684646F7F4FA00281AD1FE4D0622B5
:1005F000286221460AA85EF77FFDA8792E46803E34
:1006000000287DD06079800901280BD00AA80999BB
:100610004CF7ADFD010003D03820405C002870D0BD
:100620009BE008E1F06A807A012808D0042806D00F
:100630000AA84CF709FE286200284ED054E0686AE8
:1006400006220AA932305EF77BFD002806D00AA8F0
:100650004CF7FAFD2862002802D012E0686AF9E738
:1006600000210AA84CF706FE2862F16A897A01295E
:1006700005D18B071A6849068A430A431A60002885
:1006800011D0F16A286A0622253010315EF758FD34
:10069000002808D1286AF16A2030C07AC97B8842D4
:1006A00001D1286A1EE0D148D1490088C96880B2CA
:1006B00006225043081842F7CFF9014614A8062233
:1006C00002305EF719FD13AA00213C2042F791FC8D
:1006D0000121B06D47F7B8FEA9E011A90AA84CF7AF
:1006E000C9FD2862002838D00146253106220FA80E
:1006F0005EF702FD286A08AA2030C17A0FA801E03F
:1007000041E024E04CF716FC002812D0286A203083
:10071000C07A002809D16846B649008C4BF77DFBAA
:1007200008AA0121B3484CF705FC68460AA9008CC9
:100730000AE008AA012111A84CF7FCFB00280CD004
:10074000296A6846008C32314BF77DFB05E00A18B8
:10075000527D002A08D010286DDBF06A407A02280A
:1007600006D0032804D00EE0401C1028EFDBF4E78D
:100770006846008C052806D308AA0AA809994CF7F0
:10078000D9FB002857D00022694620464CF77BFC55
:10079000002850D1F06A407A02280BD0032809D0F3
:1007A0000023684602880AA809994CF78DFC0028A6
:1007B00002D02FE00123F4E7E18A68460181218B12
:1007C0004181618B81817878062241096846817573
:1007D0007878C106C90E6846417521460E305EF72D
:1007E0008BFC189800794006C10F68460175038894
:1007F000214602A8B26D47F7CDF90146B06502A8BF
:1008000042F745FC0020B065214668461C3100884F
:1008100046F731FA49F7B0FA734C2034207A0028B1
:1008200005D0002109205CF76EFC00202072002119
:1008300008465CF710FB19B0F0BDF8B56E4C0646E3
:1008400085000F4660594C21095C24290ED140696E
:100850001022791D2E305EF74FFC61592520403162
:10086000087300221146304654F71BFB60594C2197
:10087000095C0C291FD140691022791D2E305EF7CA
:100880003BFC60595F214069095C09072DD4014692
:100890002E3110221E305EF753FC00280CD0605918
:1008A000092140300173304655F718F801460022FF
:1008B000304653F775FEF8BD0421684601706A465C
:1008C0000521304654F716F8684601786020014348
:1008D00068460170304655F701F8014668460278CF
:1008E0000123304653F771FFF8BD304654F7F6FF49
:1008F000012809D0605907214030017300221146B8
:10090000304654F7CEFAF8BD615900204969C0312C
:10091000887160590421426930461E3253F7EAFF5C
:10092000605941694031897F002907D01A21403040
:1009300001730021304654F73EFBF8BD1B214030C7
:100940000173304654F78CFBF8BDF8B52A4C0546C8
:100950008600A0594C22125C192A11D140224D3038
:10096000491D5EF7C9FBA059402224494D305EF76E
:10097000E7FB002805D02149284620395BF74BFDCD
:10098000F8BD0B21684601706A460521284653F7D9
:10099000B1FF68460178602001436846017028462F
:1009A00054F79CFF0146684602780123284653F716
:1009B0000CFFF8BDFFB581B003980C46060A002570
:1009C0005CF75EFA002827D0132825D0142823D0FE
:1009D0000B48B700C0592030407BC00637D503987C
:1009E0005CF74EFA15280DE030BCFC0768B9FC072F
:1009F00060BBFC0750F5F1073CBEFC07FCBDFC07E3
:100A000078BBFC070CD0A07942F714F8304647F7C2
:100A1000AFF8032806D015E0A07942F70BF81FE0E5
:100A200002251DE03248C0592030407B400704D5E4
:100A30003D21304642F7FCFC04E03D2200213046D7
:100A400042F705FD3D21304646F7DAF808E020463A
:100A5000103828490181468120464EF7C3FD012503
:100A6000284645E524485222006864308188C37EC8
:100A70005143224A12688918FF225F32525AFF31CD
:100A8000120AD21A01310B8CD2B2DB0B09D00B8CBB
:100A90005B045B0C0B84002A03D18088184A012177
:100AA00011547047FFB51746140A81B0104A0298D6
:100AB000A100515840780026114D002907D0295D2A
:100AC000002905D0002803D1204643F715FF2E55F5
:100AD0003A46049B0299019844F79FFE08E50A48AC
:100AE000084901600949416070477047704700003C
:100AF00078BBFC070608000084BBFC074CB9FC0768
:100B0000C98BFC070459F007C0000840490C00BF1E
:100B10007FB5E4486B460188428889186A4611808F
:100B200001214C0022181546403DED8F065B52888E
:100B3000AD19AA18491CC9B21A530729F1D38189E2
:100B4000C089081881B2D981D888002821D0188995
:100B5000002820D0988800281FD0588900281ED04F
:100B6000988900281DD0588800281CD000291CD046
:100B7000188800280BD00720062254001C5B8C42EA
:100B800001D22146D0B2521E52B2002AF5DA04B088
:100B900070BD0320FBE70420F9E70220F7E70520FA
:100BA000F5E70620F3E70120F1E70720EFE7F0B5CE
:100BB00095B0EFF310801090012080F31088BA48B0
:100BC000816B4A07520F69460A800A92816B0122A3
:100BD000C908C9008163B5498B8869464B800224E6
:100BE000B24B00219980C16A09078B0F69468B803F
:100BF0000F93C16A0C2399430831C162052109078B
:100C000009880906CB0F6946CB800521090709939E
:100C100009888023194305231B071980A449898A61
:100C20004906CB0F69460B81A1490893898A402365
:100C300019439F4B9982016A09074B0F69464B8103
:100C40000C93036A0E218B4303629B4D99486860A5
:100C5000FF204030A8602888A0432880974841683A
:100C60000B071B0F69468B810B934168090909012A
:100C700008314160416849064B0F6946CB810D93AD
:100C8000416870239943603141608748403801686A
:100C90008904CB0F69460B820293036841140B430E
:100CA00003600168CB07DB0F69464B820E93016836
:100CB0001143016041688903CA0D69468A82039223
:100CC0004168CA05D20D6946CA82049281688903C7
:100CD000CA0D69460A8301928168CA05D20D694628
:100CE0004A8305924168764A11400322D20389184B
:100CF00041604168490A4902FF31413141608168E0
:100D00006F4A11400322D203891881608168490A21
:100D10004902FF3141318160642000F02DF9A8893A
:100D200069468007C00F8883A8892043A8810024D2
:100D3000604F288800260121084328800A2000F0FF
:100D40001BF9FF205F4941303A680A4200D0761C07
:100D5000401E3F1D0004000CF6D1A88A8004FCD17F
:100D60005149886B671CC208D2007807400F0243C4
:100D70008A630A2000F000F960004A49FCB20E5272
:100D8000082CD5D348480A99826BD208D2000A436E
:100D900082636946454A498891800F998A00C16AF1
:100DA0000C2399431143C1620999CA01052109071E
:100DB000098880239943114305221207118008995D
:100DC0008A013B49898A402399431143384A9182D9
:100DD0000C994A00016A0E23994311430162374876
:100DE0000B994268120912010A4342600D99426848
:100DF000090170239A430A434260029841032A483A
:100E00004038006801225203904308432649403984
:100E100008600E9809684908490001432248403893
:100E20000160039842022048403840682449084045
:100E300010431D4A403A506004985268520A5202C8
:100E400002431948403842600198174A4002403A2C
:100E500092680A400243144840388260124905985B
:100E600040398968490A490201430F484038816086
:100E70001098002800D0012080F3108815B0F0BD34
:100E800010B5114C2078002808D0FFF790FEFFF72E
:100E90003FFE0E4908700020207010BD02F00EFECB
:100EA0000120F9E70857FC078010004000120040BD
:100EB000203000500852FC07003500504020004010
:100EC000FF01FCFFC0C0C0C05C8DFC075A8DFC0751
:100ED00010B5FF22154901320A60BFF34F8FBFF3EF
:100EE0006F8F13490A6013490B6840241B0A1B02C9
:100EF00023430B601049898A0021C30700D03521A4
:100F0000830702D57D231B021943430702D57523AE
:100F10001B041943000702D53D2000060143064883
:100F20002038016301488038026010BD80E100E094
:100F300080E200E008E400E0A010004010B50620C8
:100F400000F01AF810BD10B5092000F015F810BD1A
:100F500010B5812000F010F810BD10B5044800F065
:100F60000BF810BD10B5034800F006F810BD0000E6
:100F7000010200000108000000280CD000BF00BFE3
:100F800000BF00BF00BF00BF00BF00BF00BF00BF69
:100F900000BF401EF0D170471CB5094800900948B9
:100FA000019005460126009C05E0E36807CC334329
:100FB0000C3C98471034AC42F7D3FFF7ADF8000073
:100FC000D451FC070452FC070148012101807047FD
:100FD0000E1500500A48011F0988CA0706D002886A
:100FE00007239A43F24B9B7A13430380490706D5A4
:100FF000018807229143EE4A527B0A4302807047E0
:10100000B8100040B0B50520000701883022114318
:101010000180038803210B430380204B1C88640755
:10102000FCD403889343038003888B430380E04C04
:10103000E38B4380238C9D1E194B5D8007251D800B
:1010400005881543058005880D4305801D886D07BB
:10105000FCD403889343038002888A430280428938
:10106000920702D042898A434281018980220A4341
:101070000281018A042291430182818A8907FCD579
:1010800041F74FF9A06B0749086007480168490715
:1010900000D500BE01684907FCD5B0BD083300503B
:1010A00000160050080200401000004080B50A20E1
:1010B00000F068F880BD80B50B2000F063F880BDBB
:1010C00080B50C2000F05EF880BD80B50D2000F0EA
:1010D00059F880BD80B50E2000F054F880BD0000A6
:1010E000FEB5019302920C460646012000213246CD
:1010F0005EF746F807460D46AD49486E2840096E32
:101100003940014300D100BE0198002803D0304689
:1011100000F014F802E0304600F022F8A449486ECE
:101120002840096E3940014300D100BE02980443B3
:10113000700001494452FEBD0630005010B504460F
:101140009B49086E496E224662F779F9C00700D1C3
:1011500000BE0120A0400149088010BD02300050AF
:1011600010B504469249086E496E224662F767F947
:10117000C00700D100BE0120A0400149088010BD79
:1011800004300050F0B503460A3B01210A469A405C
:1011900093B20B4D5C19661C5E400A4B1C880027FD
:1011A0002E4203D07F1C7608B6B2F9E79443BAB258
:1011B0000D46954025431D80814052480160F0BD99
:1011C000FEFF01000E140050F8B5044601273E0250
:1011D00005200507688DC00506D51B2003F044F8DF
:1011E0004A480188394301808036288840013040D0
:1011F000698A474A0A4002436A82216813480160AB
:1012000061684160A1688160E168C1602169016134
:1012100061694161A1698161E169C16104623E491D
:101220000A6842624A6882628A68C2624A690263E4
:10123000CA68426309698163334808210180A88A2A
:10124000C00600D4FEE700BEF8BDC0460090FC0713
:10125000024800882B481021016070472C13005071
:10126000F8B5044605200507288A04210143298290
:10127000288940210143298122480127076022480B
:10128000082101803E02688DC00506D51B2002F0B2
:10129000EBFF1E48018839430180803628884001D1
:1012A0003040698A1A4A0A4002436A822168194812
:1012B000016061684160A1688160E168C160216985
:1012C000016161694161A1698161E169C161046292
:1012D00011490A6842624A6882628A68C2624A693F
:1012E0000263CA68426309698163A88AC00600D4A0
:1012F000FEE700BE688A094908404018001D688260
:10130000F8BDC04680E200E000330050800000508D
:101310007FFE00005090FC0728ED00E0FC7F0000FD
:101320007047704770B5214CD74D224EA1880F20D1
:101330000840022809D0042804D00C2820D0012815
:10134000F4D132E002F0FCFFF0E72A8BA88B904248
:101350001DD2296B9042E9D2A288C0231340C02B32
:1013600003D13288920703D4E0E7228A9206DDD5C2
:10137000421CAA83085C221F10802A8BA88BE9E7F5
:1013800002F0DEFF2088012188432080CEE72088FC
:101390000221884320802088802188432080696B37
:1013A0000029C3D0288B8847C0E770BD04110050C6
:1013B000508DFC077C11005005210807028830235E
:1013C0009A430280028803239A430280828812058E
:1013D0000DD5184A13880B40052B08D1108804211D
:1013E0000143118010880121884310807047818853
:1013F000C90606D510498A88D20702D00A88120683
:1014000010D48088C0060CD50B488188890708D580
:101410000188C90505D5022181800188074A0A4053
:1014200002807047012088800888802290430880CD
:101430007047C0460002005000010050FFFE00004F
:101440005748018802220A43028001888907FCD498
:101450000121C181008A7047FEB5514C00212180D5
:101460000327FD012946903161804026A6805C2239
:101470004C498A5AA281A289324330239A43A281DD
:10148000494A1660BFF34F8FBFF36F8F002800D11A
:1014900081E0019702952288B2430578AB0113439E
:1014A0002380E78870229743437819013943E1800C
:1014B000002D05D1E1880725A9431B090B43E380D3
:1014C000C1784B1E9941890023880425AB430B4307
:1014D000238001790902A388DBB25918A180E18831
:1014E0001140324F40292DD162202E49085A002840
:1014F00000D131483149888001200003218801430F
:1015000021801920FFF738FD029A1046803021888B
:1015100001432180208830432080608828436080F8
:1015200060882749014061800F20400261880143A3
:10153000618040376088384010436080608801993E
:10154000884327E021881A4A0A402280817810299E
:1015500000D300BE6288174B1340490219436180D3
:101560006188019A914342790A4362808179002916
:10157000029A01D10A4600E08032218839401143A5
:101580002180C079082800D300BE403761883940E7
:101590008001084360802088012101432180FEBD35
:1015A00000150050CC8BFC0780E100E0FFFD00003F
:1015B000FFEF0000FFE10000407600001857FC0735
:1015C000FF1F000006480188064A114001235B0204
:1015D000C918018041881140C91841807047C04630
:1015E0000815005000FCFFFF70B53748092104249E
:1015F000182322465BF7FEF905461B202870FD26BE
:10160000304662F749F80021A982E96029616C60DF
:101610006E80687028465BF708FA70BD1FB51446E7
:10162000002202920192069A00921A46234661F71E
:101630005FFE04B010BD000010B5F848C17B134A2E
:10164000CCB20C236343D45CFF2C06D0D318491CC6
:10165000C1735B68002BF3D00DE0017C0C4ACCB267
:101660001C236343D45CFF2C08D0D318491C01749D
:10167000DB68002BF3D09847002010BD0021C17318
:101680000174012010BDC046508DFC07604DFC0761
:10169000F448FC0770B50C48092104240A232246AB
:1016A0005BF7A8F905461B2028701426304661F721
:1016B000F3FFFF21743129816C606E8068702846C9
:1016C0005BF7B3F970BDC0461B0D00001FB5144693
:1016D00001220292044A0192069A00921A46234677
:1016E00061F706FE04B010BDB047FC0770B5124D9F
:1016F0002C68002C19D11148092104222C235BF7F6
:1017000079F904462860172020840D48208000269F
:10171000668020460A3011215DF707FD2685E684A4
:101720006684E683A6832020E07620465BF77DF979
:101730000020286070BDC0466C8CFC07040D0000C2
:10174000030A000010B5154C206800281CD114486D
:101750000921042252235BF74DF902462B20002178
:101760001154226091720F48D08090800D2010801B
:10177000D172FF200830108110460B300C32162138
:10178000094B61F7C7FE20685BF74FF90020206026
:10179000042002215BF75FFB10BDC046688CFC078C
:1017A0000D0D00004C0400002451FC07F8B5009218
:1017B0000D468100104A56585418002E0AD10102D5
:1017C0000A310E4804271E233A465BF713F90646F2
:1017D00007702060B71C102138465DF7A6FC38461C
:1017E0002946009A5DF788FC0120707030465BF74F
:1017F0001CF900202060F8BDA08CFC07140E00002E
:10180000B0B5024665482430002423460A2B0BD08D
:101810000568002D02D0001D5B1CF7E701605C1C11
:10182000E0B2114600F05CF9E0B2B0BD1FB514465D
:101830000E220292044A0192069A00921A46234608
:1018400061F756FD04B010BDB847FC0710B501465E
:1018500001200A4A914210D3121D91420DD8029CD8
:10186000F231C8B28100064A5058002803D05118FE
:1018700000220A6080470020207010BD0E04000086
:10188000888CFC071FB5144607220292044A019275
:10189000069A00921A46234661F72AFD04B010BD4D
:1018A0004448FC0710B50C46A949884233D0384A51
:1018B00090421DD0374988423ED12078401E0928E9
:1018C0005AD88000DE490818416A364A914255D0FC
:1018D0003348814257D12E48042108230A465BF73A
:1018E00089F821780170616841605BF79EF84AE0F1
:1018F0002078411ECAB2092A3CD88900D04A511822
:101900004A6A274B9A423ED1CA6C24310A60616808
:1019100000F0E6F837E06268002A01D100BE626894
:101920001D48824201D300BE6268207818494018E1
:1019300004215BF79EFB26E0531C0121984225D32E
:101940000A32904222D8C1B2091F8900BC4A5218FB
:10195000516A002917D0124B994214D0114B994269
:1019600011D013462433C01E00241C60D464C0B2BE
:10197000884708E000BE06E000BE04E001462431CE
:1019800000220A60C264029800210170084610BD5E
:101990000304000002040000FDFF3F00C48DFC07AB
:1019A0002F43FC072D43FC07C9488178491C8170EF
:1019B0000178002900D0704767490023CB7018498F
:1019C0000A780B70012A01D0012100E00221022ACD
:1019D00000D1032101707047BD488178002904D0EF
:1019E000491E8170090600D070474178002904D053
:1019F000002242700322114003E001780029F3D055
:101A0000491E00220270481EC0B20128ECD852487C
:101A10000122C270024801707047C046508DFC0719
:101A2000B4BAFC07B0B50C460025202D04D040F711
:101A300066FF60556D1CF8E70020B0BD10B5044688
:101A40000548064970225DF757FB0548001B05490C
:101A500008801430488010BD70A0FC077C48FC074B
:101A6000B8A0FFFF78A0FC0710B507480188074A17
:101A70001368114C23405918116040885168214067
:101A80000818506010BDC046183000408CA0FC07FC
:101A900010B507480188074A1368074C23405918B6
:101AA00011604088516821400818506010BDC04640
:101AB0003830004098A0FC070000FFFF07481E21B7
:101AC0004180018803220A430280018804220A43DC
:101AD00002807F480121C1707047C0460016005047
:101AE00070B50C46054619490888000618480ED5F9
:101AF000184A126812040AD4174A1288D20706D16B
:101B00004019801C042122465BF7B3FA70BDEFF345
:101B10001083012282F310880988090603D40F4933
:101B20000E8816430E80002B02D082F3108802E04C
:101B3000002181F31088042108230A465AF75AFF2E
:101B4000446005705AF771FF70BDC0460800005030
:101B5000010400003000004054BAFC070833005074
:101B60007047000070B514460D4610465BF788F9C3
:101B700001282ED1287801020831AA791648002AB6
:101B80000CD089B2062322465AF734FF0646A878BD
:101B900060F74CFC3080A879307113E0AA8889B2D4
:101BA000921D93B222465AF725FF0646A87860F7A1
:101BB0003DFC002131713080AA887280701DE91DC2
:101BC0005DF79AFA30465AF730FF002120465BF75E
:101BD00042F9002070BDC046140C0000FD2801D061
:101BE0000020704700487047F448FC077047704772
:101BF00010B5044640793F280FD840F780FE20708A
:101C0000010EE170010CA170000A607040F777FED0
:101C10002071000AC0210143617110BD80B5FFF73A
:101C200091FD80BD4E49498C0180704780B54C497B
:101C30000A780270401C491C5DF75EFA80BDC04600
:101C4000C48DFC077D21C18000218180102141804D
:101C5000082101807047000070B504467A20604377
:101C6000ED4A16184D7835773046143008210A466B
:101C700061F776FB102D04D8B01C1022294661F7BD
:101C80006FFB40F73CFE70823078012101433170D8
:101C9000204600F09BFD317F0177718A4182F18AF5
:101CA000B28A738B358B058343838282C182B11CD8
:101CB000801C10225DF720FA204600F087FD5AF7BD
:101CC000B4FEA000F34908180021C16470BDC046ED
:101CD000508DFC0770B581000D4A54585518002CE2
:101CE00010D101020A310B4804221E235AF782FE4A
:101CF0000446012606702860801C074907225DF70C
:101D0000FBF9667020465AF790FE0020286070BDEF
:101D10009C8CFC07140E0000CC51FC0780B561F7C9
:101D2000CFFB002801D0FFF70DFD80BD10B50C469C
:101D3000017801290BD000290ED1428808490A7088
:101D40004B1C011DD2B218465DF7D6F902E040885F
:101D500003494884002000E04820207010BDC046A0
:101D6000C48DFC07E0B54A78032A14D87A44127966
:101D700052009744010A030708A104E006490091B4
:101D8000694605E0891C102203E00349019101A97D
:101D90000422FFF70BFD8CBD40E2010000010203AD
:101DA0000405060708090A0B0C0D0E0F0020888099
:101DB000488001200870704780B55FF7DDF880BD6E
:101DC000F8B56946C870020A8A70020C4A70000EA3
:101DD000087008465FF7B8F88FBD000080B5494825
:101DE00000210160FFF7B4F8444800781F21490141
:101DF000414A13688B43C006800DC018106080BD37
:101E000080B53F4802210170FFF798F880BDC046B9
:101E1000F8B51F460C46087808281CD8072500216D
:101E200000911AA6784400794000874419040C04F4
:101E300006060F0912001A4E12E00D25174E0FE08C
:101E4000062514A60CE00A2516A609E008251AA600
:101E500006E017A604E000BE0026012000903546EB
:101E6000AB1C184839465AF7C5FD0746207838702C
:101E70007D700098002804D1B81C31462A465DF7D1
:101E80003BF938465AF7D1FD0020F8BD52656E6522
:101E900073617300FFEEDDCCBBAA0000C650FC07E7
:101EA000B250FC07312E302E302E302D4C45000024
:101EB00001D2008005000100123456FFFE9ABCDEFC
:101EC000000000000314000080B50B48016889057C
:101ED000C90E0A4A11701F21490102688A43026033
:101EE0000748012101700748016803220A43026084
:101EF000FFF72EF880BDC0464C1200400452FC078C
:101F000006100040AC10004070B50C78A51E052DE1
:101F100027D81C0A7D442D796D00AF440233222559
:101F200044527A2060433C4A1518887878216854D6
:101F3000C0070ED00C20604385490E1831466D3124
:101F40002846713006225DF7D7F86C20305C772187
:101F500068540C2060437E490818732100224254C3
:101F600041E002F039FA3EE07A2565432A4C6019D7
:101F70003A30891C17225DF7BFF8605D04210143E8
:101F8000615530E07A206043234908187821002207
:101F900042540C2060436E49081873214254204675
:101FA00061F7EEFA1FE07A2565431B4E7019613028
:101FB000891C102422465DF79FF8705D2043705500
:101FC00011E07A206043144A15188B1C488A0028B7
:101FD0000BD028461E301C2219465DF78DF8287854
:101FE000022101432970002070BDA81C1C22194643
:101FF0005DF782F8287801210143297007A05EF778
:102000007DFE112008A4461EEDD0295C20465EF717
:1020100075FE3046F7E7C046A48CFC07200D0A2069
:102020004C544B3A203078002530327800000000C4
:1020300080B50A78072A24D8180A920001A39A5872
:102040009746C0466520FC078320FC078320FC07D9
:102050008320FC078720FC079120FC079120FC07C8
:102060008D20FC077A2141433F4A002353540C2121
:102070004143374A5118732201238B54FFF72AFE3C
:1020800006E000BE04E0FFF76DFE01E0FFF7E4FDAF
:10209000002080BD508DFC0710B50C78012C03D0BA
:1020A000092C09D04C7802E04C78432C02D0002C4B
:1020B00000D000BE02F090F9002010BDF8B51C461B
:1020C00010460D465AF7DCFE022828D1240A00D01B
:1020D00000BE0C2060431E490F186837BC70FF2CEF
:1020E00019D00126FE70042003215AF7B4FE288877
:1020F0003880687A3871781D0A35062229465CF7DF
:10210000FBFF7A206043184908187821415C20467B
:10211000324661F7E9F9204602F070F900E000BEAE
:102120000020F8BD10B51C4610465AF7A9FE03283A
:102130000AD1200A0C214143054840186A21FF2298
:10214000425202F09BF900E000BE002010BDC046E4
:10215000508DFC07180A7A224243034880180978F8
:102160007822815400207047A48CFC07002070471F
:10217000F0B589B01D461446087802282CD00128F5
:102180001FD000283AD101AE202130465CF7CDFFA8
:102190001D480778411C30463A465CF7ADFF3B4688
:1021A0000A331848294622465AF724FC0446478039
:1021B00000202070201D31463A465CF79DFF2046E6
:1021C0001AE01148468C0F480A23294622465AF73E
:1021D00011FC468001210EE00A480A2329462246C6
:1021E0005AF708FC7D2101810021C18010218180E6
:1021F00008214180022101705AF717FC002009B024
:10220000F0BDC0460B0E0000C48DFC0780B561F721
:1022100013F880BD80B560F7EFFF80BD80B561F732
:1022200026F880BD80B560F73AFF80BD80B560F7C5
:10223000A9FF80BD0020704780B560F723FF80BDF7
:1022400070B50C78172C0FD80125A5400D4E3542DE
:1022500001D0002070BD012C09D0032C04D1487896
:10226000002809D000BEF4E702F0B6F8F1E748789C
:10227000002804D000BEECE7FFF750FDE9E7FFF7C8
:1022800035FAE6E700F08E0010B510465AF7F8FD73
:10229000002801D000BE09E00548092104220124DC
:1022A00023465AF7A7FB04705AF7BFFB002010BD66
:1022B000020D000080B560F786FF80BD00207047EA
:1022C0000020704780B560F7C4FF80BDF0B589B0CD
:1022D000039316460C46FD205EF78AFF0290002805
:1022E00000D100BE08A900270F70208860F7ACF865
:1022F00005466088002800D000BE002D78D1FD2062
:10230000FFF76CFC002800D100BE0399090A009178
:1023100008A90A7814215143436859180B79022BF4
:1023200024D109680988394B99421FD100200590B2
:102330000490208860F723F8002800D100BE07A988
:10234000002204AB4EF710FE012040020799014025
:10235000480A21465FF7FEFFC5B2002D29D1E28869
:1023600008A80178009860F7D0F922E00196866904
:10237000002E3D4606D0A5886188A31D10462A463A
:10238000B047054605970497208804A94EF767FBD8
:10239000002D019E0DD108200499085E002807D465
:1023A0006288A1882088A31D4EF7C3FB054600E084
:1023B0000025002D1CD10298009F39465EF736FF9C
:1023C0000146A088801D83B2114832465AF712FB9D
:1023D0000546801DA288A11D5CF78EFE08A8007826
:1023E0006880A088A8802F7028465AF71EFB002519
:1023F00008480423039932465AF7FCFA857021886D
:1024000001805AF712FB002009B0F0BD022900003C
:102410000AFD0000160C0000F8B5204CFFF710F87C
:102420007E490A88120707D48A1E12884023134067
:1024300006D02246563205E0224660325E3406E07F
:1024400022465A32002B01D0543400E05834002682
:10245000A35F945F072292010D881540954204D036
:102460000988C905490F0622561A00960C4F784371
:10247000DD1929465CF7C6FD06467C432046294601
:102480005CF7D6FD311AB942084600D33846054AF2
:10249000914200D900200099C840F8BDCC8BFC07C0
:1024A000FFFF0000FEFF0100F0B587B005A9002284
:1024B000CA718A7103264E710A71CA7002228A702B
:1024C000487001250D700846FEF7C6FF644C608811
:1024D00008218843608020883C4901402180FFF723
:1024E00071F86088000700D500BE208804906088DD
:1024F00003900020FEF7B0FF608804210143618053
:102500006088334901406A02881860802088314918
:102510000140218002952D0260882843C02101439B
:102520006180208840210143218020892A49084078
:10253000801820816089084000928018608120887E
:102540008021014321802088A8432080FEF778FF66
:102550002188294321807702800940003E1AB0B2C9
:10256000850A0298800201903F2080020290FEF7C7
:1025700067FF002D00D000BE19492289029B1A4036
:10258000324322814009154A1040381A019A90427C
:1025900000D300BE62891A4002436281208808404D
:1025A0002080FEF74DFF81090F4A904202D8009823
:1025B000401A01E00B480818082800D300BE049810
:1025C00020800398608007B0F0BDC046FFEF000098
:1025D000FFE10000FFFD000000FCFFFFFE07000020
:1025E000FFFE000000FEFFFF3F8000000721890181
:1025F0000A4A13880B408B4201D1102103E0118855
:10260000C905490F0A31128803231340E1229200C1
:1026100053439A185043C84080B270470215005087
:10262000F8B50220FFF740FF0D4D288801273843F9
:102630002880FFF7F1FE04460A4E7084FFF7D6FFAC
:102640000246B08408A021465EF758FB2888B843AC
:10265000288064201249FFF7D3F87074F8BDC04693
:1026600000150050508DFC075B47504144435D20EE
:1026700052656769737465722056616C75653A209E
:102680002564207C2053656E736F7220566F6C74C6
:102690006167653A202564206D56200A0D00000010
:1026A0002126FC0770B5EFF31085012484F3108810
:1026B00005200607708DC00509D54F48447201F00A
:1026C000C9FD1149087011480088204048703088C1
:1026D0008021014331800E48016807229143016047
:1026E00041684907FCD53188090600D400BE094974
:1026F000016109494161002D02D084F3108870BD49
:10270000002080F3108870BD1857FC07800000502F
:102710000000F4070F009909090404A470B5174ECE
:10272000B06800F02DF83449CA6B0023CB6315184C
:10273000084C284621465CF765FC70610649414318
:10274000481901D0201A80B2306130680821014355
:10275000316070BD710200008FFDFFFF80B506483B
:102760000021016001F03EFD0120C00703490A6815
:1027700082430A6080BDC046A8B9FC073000004013
:1027800080B50246C00B09D01B48806C00210B4667
:102790005CF762FC8905800A401880BD1648806C91
:1027A0004243900A80BDC04680B5FFF7E9FF80BD77
:1027B00080B51149096C41430248081802495CF789
:1027C00021FC80BD20A1070040420F0010B501464A
:1027D0008000094A1418E06C002800D010BD4C3469
:1027E00009020A31054804221E235AF703F9FF2182
:1027F00008310180206010BD508DFC07140E0000D0
:1028000000B59BB0A349C8201390088000204880E1
:10281000A14908234B80A14C18901898002811DC7E
:1028200000201790179918980B2909DC3021414393
:10283000601817998900002242501798401CF0E751
:10284000401CE9E7159361690020C3430122002978
:102850001492154600D01D466A01F54F3E6E164390
:102860002A467D6E3E661092D60E00291F4600D184
:102870000F46790189192943ED4A5166616800299B
:10288000149F3A4600D01A461292D50F00291E46D0
:1028900000D10E4671004919E54D6A6E0A43296E52
:1028A0006A66129A52000A432A66616A00293A4609
:1028B00000D01A461192D50D00291E4600D10E46B1
:1028C00071024919DA4D6A6E0A43296E6A66119AD5
:1028D00052020A432A66A169002900D01F46BD0E94
:1028E00000291E4600D10E46B1014919D04D6A6E2D
:1028F0000A43296E6A66BA010A432A66E569002D11
:10290000149900D019464E0E002D1A4600D12A46C1
:10291000D2019219C64E756E1543326E7566CD01A1
:10292000154335663546129A6260119A6262109AB2
:102930006261A761E161E16A0029149F00D01F462E
:10294000FA022E6E16432A466D6E16667E0D00291B
:1029500000D10B46D90289192943B54D6966E76252
:102960006866286618901898002834DC00201790B4
:1029700017980B282CDC179818990B2828D830208A
:10298000189941436118179A92008958491C00D13F
:1029900000BE189941436118179A9200895800297E
:1029A00013D0189948432018179989004058C11727
:1029B000179A5CF7E5FB189A12015CF7E1FB6A6E67
:1029C0000A43296E6A66014329661798401CCEE7C0
:1029D0001898401CC6E7A34F388816AC2080208882
:1029E000C046C046208804211491C943084202D041
:1029F0000020388003E0B88901218843B881159B05
:102A0000B88B9949014007200890C0020818B88384
:102A1000964D288818432880E88D06229043E88543
:102A20000124A003B98B0143B98328889049014050
:102A30002980688802921043984368800520069098
:102A40000607718D8B4AFF32E88D10407D22D2003F
:102A50000F2311931B03C9050592039320D403216F
:102A600049020843E885E88D1843E885B88B159935
:102A70008843B883B88B04218843B88368887E492B
:102A800001406980E88D2043E885708D4007FCD5C2
:102A90001EE0C0460031005000330050208DFC077E
:102AA00010181830E885E88D74490140E0030818D3
:102AB000E885B88B15990843B883B88B1499884377
:102AC000B883E88DA043E885B88B40218843B8835C
:102AD00020020C90B88B032110910843B8832888FA
:102AE0002021084340220E92D24310402880388C87
:102AF0000F91084310403884F08A802107910843E1
:102B00001040F082308EFF21049188433086308F50
:102B1000149B18431821019188433087308FA021DE
:102B200001430A921140318755480380B0885549C6
:102B30000140B1801294200453490860FFF7B2FDB0
:102B4000524B18680899084018A90870087802289C
:102B500020D0708D0C990842069C13D001F07AFBAE
:102B60000A2802D80B2001F07FFB4048C08DC00727
:102B7000464B07D13D49C88D129A1043C885708DC8
:102B80004007FCD5186802210143A1431960586829
:102B90004007FCD53E480068C1B20C20AA29014676
:102BA00000D014993288824388183080C046C046CD
:102BB00038480068384909886823384C002209924F
:102BC0000B93E2521A4B1A465032918018651298B4
:102BD000C046C0463248001F00683249884200D0D3
:102BE0004FE1119805070420002100910D9503463F
:102BF0002B4A1118081FEC32904200D345E1149380
:102C000000681790179B2B4009200407179AA342CE
:102C10005BD1179B1C0AE3B21193D2B2531E162B41
:102C200000D9F3E003A75B00FB5A5B009F44C0465A
:102C3000508DFC0708010801EE000801EE003C0081
:102C4000B200EE00EE00EE00EE00EE00EE00EE0050
:102C5000EE00EE00C5009400DA008D00EE00E80002
:102C6000A800C04604030050FFC3000052000050FB
:102C7000FFBF000000F0FFFFFFF90000FF0F0000A2
:102C800000020050FFF7000080E200E00000F407BF
:102C9000D07FF807D47FF807D87FF807CC8BFC07E4
:102CA000D47EF807A5A5A5A5BF4D0B9FE85DC00084
:102CB0002818119A92005CF71FFAE85D0019E85590
:102CC000C0B2052877D300BE75E0900F10D01798DA
:102CD000B64988420CD8149B184608303146283132
:102CE000179A8A4226D1B2495958B24A11807EE7D2
:102CF0001798284008990907884205D10020C04646
:102D0000C0461498001D72E7179828401299C90709
:102D10008842149A0CD0179828400699490788428F
:102D200006D01798284010994907884200D097E0AC
:102D3000101D5CE7B11C179A8A4200D086E09C49BE
:102D400059586622984B995251E799481499085856
:102D50006221954A505273E0954A149B9958484312
:102D60009A58120C801A00B2C0085A238E4CE052B6
:102D7000501A8108904A11400818401C58212FE031
:102D80008B48149908586421874A5052000457D13F
:102D900000BE55E06927844DE85DC000281810305A
:102DA000119A92005CF7A8F9E85D0019E855C0B2E5
:102DB0000D2800D300BE0D9D42E07D4A149B99581A
:102DC00048439A58120C801A00B2C0085623764C19
:102DD000E052501A8108784A11400818401C5421CA
:102DE00060522DE0009CA00018AA1018119FBA0094
:102DF0005CF782F93C190094032C21D300BE1FE03C
:102E00006B48149908586849086519E01E2A17D1BB
:102E100011984008020613D00B684A680831002751
:102E20003C460834382C08D05F4DEF193F699F426B
:102E30002746F6D15C4B1B19DA60401E0D9DE9E771
:102E40001198800014990818001DD0E631462431ED
:102E5000179A8A420AD156495958564A5180C6E6AD
:102E60001798401C11D000BE1046C0E631462031F4
:102E7000179A8A4200D0BAE64D4959584D4A918076
:102E8000B5E66620255A129A38E05C201899464C1F
:102E900021520920199948430A0C801A00B2C0082F
:102EA0006023E052501A8108434A11400818401C20
:102EB0005E2160520B9AA05CC10701D000BEA05CED
:102EC0004008A0546920215CCA07129A01D000BEB4
:102ED000215C490821546420215A002901D1059917
:102EE00021526620255A002D08D134490968C9B2FB
:102EF000AA29079D00D06E252B490D523048C58365
:102F0000B08C9043B0840D201446FEF735F87089DC
:102F1000204302210B918843708170894006FCD5C3
:102F200075800598FEF728F870891099884370819C
:102F300070890006FCD57F20214908711F488069EF
:102F40002049C860EFF31085129A82F31088308808
:102F50000799084330801C490868089B984308601B
:102F600048684007FCD5194808611948486130880D
:102F7000079988433080708D0C990842099B0ED0C8
:102F80000F4843720F4C207801F06EF9099B129A9A
:102F900010496078002802D1C88D9043C885002D63
:102FA0001AD082F310881AE0CC8BFC074C420050F8
:102FB000D47EF807A000FC07FF3F0000D07FF80791
:102FC000508DFC071857FC070000F4070F00990903
:102FD000090404A452000050002080F31088E9483E
:102FE0000068E9498842069F00D0C4E0E748E84904
:102FF0005CF79BF808980102E6485CF796F8FDF745
:1030000075FDE548E5490160E548E6493022119241
:103010005CF772F8E4480025C5718571457105714A
:10302000C570857045703F210D910170DF48E0A1AA
:103030000E9C22465CF760F8ED480570ED48EE49BD
:103040000160EE48EE490160EE49EF480860EF4844
:103050000A210170EE4814950570EE48322109915D
:103060000170ED480760ED48129D0560EC4807606F
:10307000EC4802990160EC4808990160EB48159F03
:1030800007600C98801DEA490860EA490860EA4830
:10309000BE49016000F0C8FB3A4630891199884367
:1030A0003081308907990843308130893843308135
:1030B000308CA843308470890199884370813089AD
:1030C00020433081308A042188433082B08A8007CF
:1030D000FCD50399FF31F08C08400B210902014314
:1030E000F184F08C2843F0847089104310210891FA
:1030F00088437081708CA843708430890E9988430E
:103100003081CE483730AA07116801401192116012
:103110000D984002CA4A116881436803081810607C
:10312000C848401C116801431160964800689649E0
:1031300088423AD0C0480068C1498860C24AD06815
:103140009071010E5172010C1172000AD0710C982D
:10315000C030BE4C2246002817D0401E035D1778B1
:103160003D4610990D40B8494D19AD795D407D40FF
:103170001570521CEFE7B648B4497A02934200D961
:1031800034E71A585A501B1DF7E7AF4D2035AF49A9
:103190001C2228465DF744FF002800D000BE2846C8
:1031A0005DF7D2FE774878490160A34800683FF791
:1031B00051F8A84D14982871E870119A10680C996C
:1031C00008431060FEF77AFC129800F03FFCA24A18
:1031D0001078002802D00798507003E00020E870B3
:1031E0009E490870149C9466D46614679C4D162200
:1031F0002A70681C9B495BF77FFF6C84964D0427FF
:103200009949384659F7F5FD284668300499817088
:103210003846214659F71FFE60F76AFA28780028D9
:1032200005D0812068702846904D129C07E01299C5
:103230008848C17089480C46017028468B4D149906
:1032400081844184817401F005F8FFF787FA052035
:10325000FDF73EFE13982880854A159B53808548CC
:1032600085490818854940188008401E06900D9829
:1032700080020090E003109076490D973089000697
:1032800000D42FE11198006B3C46109F384227462E
:1032900000D027E10888C00700D023E15AF7ADF835
:1032A0000025284600F0D2FB6B48C07A042800D0E5
:1032B00012E1129800F0CAFB179517A804214AF7EB
:1032C0003DFC002800D107E112986D4908600868AC
:1032D0000028FCD11198C0695F4B996A884201D2DD
:1032E0009D622946411ACA09197B182A40D9C90783
:1032F00041D159498862634F388804907888039097
:10330000B8880290F888019019950D465E4818908B
:1033100018A8FEF7A1F80598173039890140A9824D
:1033200079890140E982FEF74DF938880B99084305
:10333000388038888007FCD41298F881388A42494E
:103340008988AA8A3B89009D2B4013433B81424ACE
:10335000D28A7B892B4013437B81401A05994143D4
:10336000002800DD94E0494A8918C017084091E020
:10337000C80700D1B0E03849C86A401CC86200F0F4
:1033800013FDA9E09CB8FC076587341200A0FC0778
:10339000AC14000000B9FC0760BAFC07384DFC070C
:1033A00000BAFC077CFCF107DAB9FC07B0BCFC07EB
:1033B0002000800000C000000000840000002822DF
:1033C000000000000000040000F7FFFF7F00000085
:1033D00030F0FF0F000000000004000000000000BB
:1033E00000000000000000000000000000000000DD
:1033F000FDB9FC0750B9FC07603FF20754B9FC0760
:10340000E04EFC0758B9FC07B04DFC07B0B9FC070B
:10341000B1B9FC07D9B9FC075CB9FC0760B9FC0776
:1034200064B9FC0768B9FC076CB9FC0770B9FC0704
:1034300048B9FC0744B9FC074CB9FC07C8FEFFFFBC
:1034400000020040FFFF1F001857FC07388EFC07E2
:1034500000B0FC0754BAFC07508DFC07B4BAFC0757
:10346000C48DFC072451FC079047FC070031005035
:1034700000330050F85000001001FC07030004F86E
:10348000FC00004000150050010400002BFDFFFF70
:10349000CD4808182746CD495BF7CAFD8409193481
:1034A000BD4D28797F280DD0201A41B2C91148405E
:1034B000401A40B20528C14806DBE86A401CE862B1
:1034C00000F072FC2C71BD48039941800299818003
:1034D0000199C180049901805DF722FCAC4DAD4A91
:1034E000159BB4491380AC48807C002809D1322058
:1034F000B749FEF785F9159BA64AA748129981742A
:10350000AC49538072B608790228149802D0A548B5
:103510000068806A18901089C00700D034E159F71C
:1035200038F8A449159B9B4A002800D12CE1C878A3
:10353000012800D0AFE0B08AC00700D096E008882C
:10354000002800D0A7E0A348806A002803D095484F
:103550000068806A189000F045FE964FB97818A868
:1035600059F70FFE394600288A4A159B0D9F00D156
:1035700091E011980069400600D58CE08D48817873
:1035800018A84AF7DBFA8B49159B824A002800D11C
:1035900081E00098FF308A4A118801400C9801436D
:1035A000118018980028119B06D0196A7E4A891844
:1035B000DA2901D8401E1890E148008CE24A1169CE
:1035C00008185061D86B844C20400843D863D86BEE
:1035D00082490840916989020143D963D86B7449D3
:1035E0000840516949050818D863189A7C488242F6
:1035F00000D300BED249886DC96D00235BF72CFD56
:103600000903000D4118D0488069821C8A4200D00D
:10361000481E684909794A1E914146F7A5F9714843
:10362000C06A80471099119A106B0842FCD0594A21
:103630000C995E4B18680842FCD0186807998843BB
:1036400018605089452804D846215181081ABC4980
:10365000C8633EF73AFE554A9068B94988631068D6
:103660000006FCD53089079988433081524801789B
:10367000308A38433082534A106838431060474AD2
:103680001089129B98431081708A012905D10899ED
:103690008843708233E030BF76E03946089F384374
:1036A0007082708A08437082FEF7FCFF129B708A5A
:1036B000384370823A4806990162EFF3108083F331
:1036C00010883188079A91433180002802D083F313
:1036D000108802E0002080F310880C99708D084259
:1036E0002E4A0D9F0CD00020EC4948720B2000F0B0
:1036F000BBFD129B294A9349C88D1843C8850C9974
:1037000000203083708D084207D18E4908880E9FB3
:1037100038430F9FB8430D9F0880108C0E990843C3
:103720000F9988431084B08C9843B0840D20FDF726
:1037300023FC7089129908430B9988437081708922
:103740004006FCD509987080B08AC0061149159AC8
:1037500000D50A8030BFB08AC00600D54A807949BA
:1037600008880F9A10430A9B184008800B49088C60
:1037700010431840088400F057F8159B054A11497A
:103780000868B84308600B4962B61398288075E54D
:103790000031005000330050508DFC0704030050EE
:1037A0000000F40758B9FC07C8FEFFFF0002004004
:1037B000FFFF1F0054BAFC07B4BAFC070015005005
:1037C0003830005010ED00E0D5020000AA050000DE
:1037D000F544FC0774BEFC0700FCFFFFFF03E0FF9D
:1037E00040420F0058BFFC0710B569210D48415CED
:1037F000143000228A4206D20368041F2468236022
:103800000830521CF6E710BD10B568210548415C30
:1038100000228A4204D218C81C600030521CF8E70B
:1038200010BDC046CC8BFC07F8B5434DE88CC005F5
:10383000424E1AD54248407A012803D100F00AFDD1
:103840001B2812D83F4C2088C00400D4B08AFF2027
:103850001C303D4908801B2000F006FDE08D012151
:103860000143E185E88C4007FCD5384838A118228F
:103870005BF742FC3CA03F491CC81CC1FDF72FF977
:103880003D483E490160EFF31080012484F3108825
:10389000298840220A432A80002802D084F3108815
:1038A00002E0002080F310883548018835498A8974
:1038B00080231A438A81344A0B25158008220A8006
:1038C00000268E808A899A438A8103228A81848392
:1038D000068486841A484663047215021D22204617
:1038E00029462346FDF7FCFB0520042229463346E2
:1038F000FDF7F6FB144EB078002806D1092000220F
:1039000029462346FDF7ECFBB47006200F22002663
:103910001E4F31463346B847072017222946334603
:10392000B8470B20182229463346B8470349088870
:1039300020430880F8BDC046040000500C0300502E
:10394000508DFC07520000501857FC07200008401B
:10395000F99DF00700000000E3A1F107000000005E
:103960004FA4F107000000000D05FC073B08FC0711
:103970004B09FC07C000FC070000084007001000CE
:103980007C11005000110050C0110050E110FC07E4
:103990000549884200D000BE04480188044A11400D
:1039A0008918091D01807047111111111200005072
:1039B000FC7F0000F8B504460026234F302E0FD0C0
:1039C000BD19E88AFD2801D1064969605DF796FCBA
:1039D000002803D082682846214690471836EDE734
:1039E000F8BDC046B04CFC07B0B50025164C002809
:1039F00026D1012D26D8FF20E082002020606060C3
:103A0000A060E060206110202843C0B2A08221465F
:103A100059F7EFF918346D1CEBE7E08A5DF76EFC9F
:103A2000002802D04168204688470020E08160607D
:103A3000A060FF20E082207D59F735FA18346D1C14
:103A4000012DEAD9B0BDC046388CFC07B0B5D04DC9
:103A5000E978012921D11249002803D008884007BC
:103A6000FCD402E00888400717D40023EB70C88814
:103A70008988000444181F204006492122465FF728
:103A8000EFFCA865E96564214143080C28640548FA
:103A90006043800B401C4008A864B0BD508DFC07FB
:103AA000001600501111010010B5F24C08202070D2
:103AB0001120FDF761FA0320607010BDFEB5624869
:103AC00003250570614C20461438016814220A430E
:103AD0006B218A430260A06A5D49C8610020C0432F
:103AE000A06220683F21884320602068594908402F
:103AF00020606068584908400121019189020291C3
:103B0000401860606068402101433020814361605B
:103B1000A069524908400B2149064018A061A069DC
:103B20004F49084069024018A061A069182101436B
:103B300027208143A161432020714A4880474A4899
:103B400080474A48804740480570009548480668C5
:103B50004848804748488047206848490840F10560
:103B6000401820603B4E403620683040490C4018D9
:103B70002060412727716068374908400299401842
:103B800060603848804738488047384880472E482A
:103B900005703748056837488047374880472068B0
:103BA00036490840E9054018206020683040490C3B
:103BB0004018206027716068274908400299401822
:103BC00060602848804728488047284880471E482A
:103BD00000990170264800682168284A1140C205F2
:103BE0008918216021683140254D0540A801081839
:103BF00020606068019988436060154EF069A0629A
:103C000020681C2101432320814321602068114941
:103C100008402060A0691149084007218906401822
:103C2000A061A0690E4908400F21C9014018A06198
:103C3000A0691E21014321208143A1610D488047D5
:103C40000D4880477587FEBD0510004018300040C4
:103C50001857FC07FF7FFFFFFFF9FFFFFFFFFFC0C3
:103C60003FF0FFFF011EFC07C91EFC075B0FFC07AE
:103C700088300040DD1DFC07470FFC07FFFF7F0079
:103C8000FF01000070470000F0B58BB0302200212A
:103C900081541F221204344B1D6895430124620491
:103CA000AA181A60324B334D4561334D334E344FB1
:103CB000344AC261066243622C4A8262C562324A59
:103CC00007604260E004C74A1368834313602829F1
:103CD00003D001A84154491CF9E72C480068403042
:103CE00001A928225BF708FAC24DAC73FFF7DCFE8E
:103CF000FFF78AFDFFF778FD00F07EF900F054FB36
:103D000000F06AF8FFF7DAFE2C73224800880721DA
:103D100001406973FDF7B4F8FDF7A6FEFDF7B8FEA4
:103D20001D490B881D4804681D4A1440E3180360B0
:103D30001C4B1C88856915402C1984615B88C469FB
:103D40001440E318C3614B8A046A1440E318036209
:103D5000898A436A134059184162A448022181703C
:103D6000002101800BB0F0BD74000040D53DFC0780
:103D7000D13DFC07BD3EFC07A13EFC072113FC071B
:103D8000793EFC077B3EFC07853CFC074CB9FC07F1
:103D9000508DFC07B81000401030004088A0FC0790
:103DA0000000FFFF6430004080B5FFF77DFEFFF7A5
:103DB0001BFD00F021F900F0F7FAFDF761F8FDF7BF
:103DC00053FE8A48022181700021018080BDC046D7
:103DD00000207047704700000E4908880E4A0240D4
:103DE00001204302D2180A8041057E4A13688B43A2
:103DF0001360810700224A671F2212044B6F93430E
:103E00004004181848670868E022024310208243E3
:103E10000A60704738300050FFFC000080B51F205A
:103E2000000401218A07536F834348041818506720
:103E300010680721884310600D48018808220A4352
:103E40000280FFF731FEFFF7DFFCFFF7CDFC00F04B
:103E5000D3F800F0A9FAFFF7BFFFFDF719FE63489A
:103E600002218170002101800520FDF731F880BD1D
:103E70000800005004100040704780B5E62800D3C9
:103E8000E620282800D82820F9214A0042437D2036
:103E9000C10010465BF7B6F87F38C0B280BD0000A5
:103EA0000548016807220A430260012080044D4949
:103EB0000A6882430A60704730000040022902D03D
:103EC000012900D000BE002802D0FF2804D000BE87
:103ED000022901D10C207047D848807B002800D0EF
:103EE00009207047F8B53F480168C90703D0016849
:103EF00002220A43026001240168490203D5A10598
:103F000002680A43026027026502374900950846A5
:103F100008380668002E63D0300606D58020086079
:103F200049F7B5FCFDF7CAFD2F49B00704D50220BB
:103F3000086045F7AAFB2C49300714D50820086013
:103F4000FCF790FD3D4627460024204645F756FBEA
:103F500025490420B94AD0720220244A9070148066
:103F60003C462F46009D3E4204D00F60012045F79D
:103F700045FB1D492E4203D00D6049F7F1FC1A495B
:103F8000700604D54020086045F733FB1649F0065B
:103F900004D51020086043F7EFFE134970070FD5D2
:103FA0000420086012490888A043088059F78CFA59
:103FB0003EF746FBFDF782FD0B490020F64AD07222
:103FC000F00707D00C6059F79BFA49F760FC0649E7
:103FD000F148C472B0069AD52020086000BE96E76A
:103FE000F8BDC04600020040180000400410004028
:103FF00008330050508DFC07FCB57F2000025A4A60
:10400000516981430B20000208185061106880B28A
:104010005649401810609069554C044001235803DC
:10402000009020189061032001900002146B04435B
:104030001463908F102404439487908818439080D1
:10404000E2484C4A02604C4A104610384B4CA58B53
:10405000054015204301E8185030A0836069484DA1
:104060000540484828186061A069474D054009206F
:1040700040022818A0612068444D05404448281893
:1040800020606068434D0540434828186060A06880
:10409000424D054042482818A060E068414D054067
:1040A00041482818E060F348807B002802D1C120F5
:1040B000400100E03D483E4D2860052080023D4F14
:1040C0003880401DB880388C55260643AA20864388
:1040D0003E84FF266C363046C9303885364908465E
:1040E0000E30B88535483886B986C01D38873448C3
:1040F0002085A06B3349014033480818A063334C36
:104100002680208F10401F462037C0192087304856
:10411000018811408919D531018081881140C91861
:10412000818001891140C91901812136A680294861
:1041300001881140C91860310180818A19220A431F
:1041400006218A438282A88F2349014000980818DB
:10415000A88722480168019A114304229143016013
:104160001F486866FCBDC0462030004000008888BB
:10417000FF00FEFF59055C071FFCFFFF0420004005
:104180000000E0FF09581A00FEE1FFFFE0E0000038
:104190000809294900000303696A686C031FFFFFCF
:1041A00070600000E0E0E0E00B0A0A082018000957
:1041B0000010004028130040260A000051080000AB
:1041C000070F00002F64E0FE101A060100120040E5
:1041D0004412004088120040FF9F00008010004001
:1041E00050015001F8B5642013490E5ADD4F3C6C64
:1041F000304660431249401812495AF703FF0546FA
:1042000038843C3666430E4830180E495AF7FAFE99
:10421000001D0D4908612818C01D88610B4A1278DD
:10422000022A01D111308861FEF7AAFA0849401824
:1042300080B259F773F9F8BDCC8BFC07508DFC07A1
:1042400020A1070040420F001857FC07B4BAFC0732
:10425000E20400000D480188890918220A400088FC
:104260008004400F8018704708490A88084B1340A3
:10427000F822024092011A430A800A88054B134033
:104280004007800C181808807047C0465400005042
:10429000FFF90000FFC70000F8B505464078652823
:1042A00001D300BE6878204E31884F1C78436421CA
:1042B0005AF7A8FE0446A878652801D300BEA8785E
:1042C000784364215AF79EFE29784B1E052B29D886
:1042D00031460E31B21C9B0001A5EB589F46C046EB
:1042E0001F43FC07F942FC070743FC070F43FC0789
:1042F000FF42FC071743FC07321D103605E031462C
:1043000016310A360AE0B21D1236314607E0314650
:104310001431083602E0314618310C36324610802E
:1043200000190880F8BDC046083400507047704737
:10433000024801884906FCD57047C0461411005058
:1043400016480188012291430180704710B5854BC2
:1043500000249C8318635A631983DC490820086091
:10436000BFF34F8FBFF36F8F0C490A8802241443A9
:104370000C800A88802414430C80197A4A1E9141CB
:10438000C907FF221206064B1C6894436118196086
:104390000449086010BDC046508DFC070411005050
:1043A00000E400E000E100E018B508480168009171
:1043B0000099074A009B1A40FF2424040C40D9B2FC
:1043C0000919044BC9181143016018BD8000004051
:1043D00000FF00FF0A000A00B0B50C4606498842FB
:1043E00009D1481C022519462B4658F703FBA18822
:1043F000018058F71AFBB0BD0D0C0000FEB50C2172
:104400004143584C60186A21405CFF2801D1FDF7F8
:1044100099F964201849FDF7F3F96074344A10885B
:10442000032101431180314E30880827B843308082
:10443000308804218843308030461A38008002A832
:1044400000218170322242700125057001ACA170FB
:104450001921617002212170FFF71EFF2046FFF72E
:104460001BFF234908883843088030882843308060
:10447000FEBDC046508DFC072126FC07F8B5FDF7B0
:1044800061F93848467C701E09281BD8B0001449D1
:104490004718386A002817D0124CA04214D0203791
:1044A00011483018401C0425294658F72CFE3C6062
:1044B00008230D4829462A4658F79CFA067058F7F3
:1044C000B4FA02E000BE00E000BE08480188012204
:1044D0009143018006480188082291430180F8BD7C
:1044E000C48DFC072D43FC07020400002234005059
:1044F00004000050F8B50520FDF7D6FF184D2888B8
:10450000012630432880FDF787FF0446154F788445
:10451000FEF76CF80246B88413A021465CF7EEFB68
:10452000786E70023A6E0240BB8C1D491D4CA3424E
:1045300005D8002A00D100BE48801CA104E0002A52
:1045400000D100BE088018A119A05CF7D7FB28880D
:10455000B043288032202049FDF752F9F8BDC0460B
:1045600000150050508DFC075B5556505D2052657C
:104570006769737465722056616C75653A202564AD
:10458000207C204261747465727920566F6C74616E
:1045900067653A202564206D56200A0D0000000052
:1045A000023000506B0700004E4F00005945530089
:1045B0005B5556505D2053797374656D20756E643C
:1045C0006572766F6C74616765207374617475735E
:1045D0003A202573200A0D00F544FC0702E008C8C4
:1045E000121F08C1002AFAD170477047002001E06D
:1045F00001C1121F002AFBD170470000034880F35D
:10460000098800F025F8FBF783FDC046745FFC07BE
:1046100004207146084203D0EFF309800A49084795
:10462000EFF30880084908477047042071460842A4
:1046300003D0EFF3098005490847EFF308800349E9
:1046400008477047FEE700006112FC07C911FC072C
:104650001A498888072290438880052000078A89A4
:10466000D2070DD0098800290AD115490A88028588
:104670004A88828489880184418A124A0A40428297
:10468000114906220A800121CA03104B1A60BFF3A8
:104690004F8FBFF36F8F02221A60BFF34F8FBFF3AC
:1046A0006F8F1960BFF34F8FBFF36F8F4189042263
:1046B000914341810021018062B67047040300509C
:1046C000A000FC077FFE00000034005080E100E005
:1046D00017B967984C664C01963331B19159001562
:1046E0002368EC521E6244749A1BD18BAB75B66E74
:1046F0009EE7BA08B9A948ABA1AC031C2E0D296CE2
:1047000020EE8D0CE1F04A0CB325DC536A68862D4F
:1047100028D5E1C1E1C54729B55765C3BA47159EFC
:104720004F43313C939242E6A876FA3BEFB4875A66
:104730008C09E0D1815442408E4FD2B377E32A777F
:1047400020EE8D0CE1F04A0CB325DC536A68862C10
:104750004F43313C939242E6A876FA3BEFB4875937
:1047600017B967984C664C01963331B191590014D2
:104770002368EC521E6244749A1BD18BAB75B66DE4
:1047800028D5E1C1E1C54729B55765C3BA47159D8D
:1047900000000000A047FC07708CFC07040001002B
:1047A000A847FC0701000000FFFF0000A932F20744
:1047B00002140000111EFC07010D00008922FC07F5
:1047C000000D00004122FC07000E00009920FC07AC
:1047D000010E0000BD20FC07030E00002521FC0790
:1047E0000A0E00007121FC070C0E00002D22FC07B0
:1047F0001C0D0000B522FC07100D00003922FC073B
:104800000F0E00001522FC072C0E00000D22FC07E5
:10481000120C0000C522FC07080E00001D22FC0738
:104820001B0E00002522FC072D18FC07A518FC070D
:104830004D18FC078518FC07CD16FC071D16FC0754
:10484000F8000000130E00003120FC07150E0000D8
:10485000091FFC07170E00006D21FC07190E000050
:104860005521FC07150D00003522FC07210D000025
:10487000C122FC07220D0000BD22FC0708000490A5
:104880000000000000000000030005D08B0035F0A0
:1048900010005CF0000010B0000018B000001AB06A
:1048A000030051F0000038B000003AB0000064B0DE
:1048B000000066B0000022B0000024B0010005D066
:1048C000000000000A00008008030490000004F0CB
:1048D000030006D0000000000A00008008030490D6
:1048E000000004F0030006D00000000003280028A8
:1048F00002290129FD0000002C49FC072D000000C1
:10490000E915FC07000000000000000000000000A6
:10491000FF00000000000000000000000000000098
:10492000000000000000000000000000EE48FC074E
:10493000100000000100000010001000054DFC07F1
:10494000EC48FC070200000001000000000000002D
:10495000000000000047FC071000000008000200F3
:104960000100000000000000F248FC070200000007
:10497000010000000D000D001451FC07EC48FC077D
:104980000200000001000000000000000000000024
:104990002047FC0710000000088000000180000094
:1049A00000000000F248FC070200000001000000C7
:1049B00009000900F250FC07EC48FC070200000067
:1049C000010000000000000000000000D046FC07CD
:1049D00010000000010200000200000000000000C2
:1049E000F048FC070200000009000200020000007D
:1049F00000000000F248FC07020000000100000077
:104A00000B000B00A650FC07EC48FC07020000005E
:104A1000010000000000000000000000E046FC076C
:104A20001000000001000000020000000000000073
:104A3000F248FC0702000000010000000B000B0020
:104A4000BA50FC07EC48FC0702000000010000001F
:104A50000000000000000000F046FC07100000000D
:104A6000010200000100000000000000F048FC0707
:104A70000200000009000200020000000000000027
:104A8000F248FC0702000000010000000C000C00CE
:104A9000FC50FC07EC48FC0702000000010000008D
:104AA00000000000000000001047FC07100000009C
:104AB000410000001400000000000000F048FC0766
:104AC00002000000090002000200000000000000D7
:104AD000F248FC0702000000010000000C000C007E
:104AE000D450FC07EC48FC07020000000100000065
:104AF00000000000000000003047FC07100000002C
:104B0000090202003200000000000000F048FC072B
:104B10000200000009000200020000000000000086
:104B2000F248FC0702000000010000000A000A0031
:104B30000951FC07EE48FC071000000001000000CE
:104B400010001000154DFC07EC48FC0702000000A7
:104B50000100000000000000000000004047FC07CA
:104B600010000000080002000180000000000000AA
:104B7000F248FC07020000000100000008000800E5
:104B8000E950FC07EC48FC070200000001000000AF
:104B900000000000000000005047FC07100000006B
:104BA000088000000100000000000000F248FC073F
:104BB0000200000001000000110011008350FC07FA
:104BC000EE48FC071000000001000000100010007B
:104BD000254DFC07EC48FC07020000000100000026
:104BE00000000000000000006047FC07100000000B
:104BF000010200000200000000000000F048FC0775
:104C00000200000009000200020000000000000095
:104C1000F248FC0702000000010000001000100034
:104C20009550FC07EC48FC07020000000100000062
:104C300000000000000000007047FC0710000000AA
:104C4000010000000200000000000000F248FC0724
:104C5000020000000100000007000700E150FC070F
:104C6000EC48FC070200000001000000000000000A
:104C7000000000008047FC07100000004100000019
:104C80000200000000000000F048FC0702000000E5
:104C9000090002000200000000000000F248FC07CA
:104CA0000200000001000000120012007050FC071A
:104CB000B84CFC0709000000130C00004B29F20758
:104CC000150C0000CD22FC07170C0000572BF20733
:104CD000000C00002328F20706FD00005728F20709
:104CE00003FD00003728F20708FD0000B328F20793
:104CF0000EFD00000F29F20705FD0000651BFC07F3
:104D0000001A212D03595A08E4862A9E8FE911BC06
:104D10007C98434218595A08E4862A9E8FE911BCB0
:104D20007C7C464218595A08E4862A9E08E911BC40
:104D30007CD047421800000001000001B509FC07C3
:104D400001000002A50AFC070000000000000000AE
:104D5000F4011700F4352348F40108C4140A0000D4
:104D6000140000009516FC0700000000FF00000082
:104D7000000000000000000014000000ED14F20725
:104D8000FD0000002126F207FF00000000000000E7
:104D9000ED16FC073916FC073C51FC07D943FC070C
:104DA0002848FC07B88DFC07A48CFC07718CFC0715
:104DB00005000000745FFC07000400004492FC073B
:104DC000AC020000388EFC0700040000FC94FC07D5
:104DD000700500002003000000A60E000400000083
:104DE000D2000000320000003C0000000100000082
:104DF00001000000020000000200000004000000AA
:104E00000300000006000000000000000200000097
:104E1000020000000000000000000000030000008D
:104E2000030000000500000005000000060000006F
:104E30000A0000000A000000C8000000B80B0000D3
:104E400002000000B80B0000B80B000010000000CA
:104E5000D4010000CC010000700200006A000000D4
:104E60000400000001000000200000000A00000013
:104E700001000000E20400008A020000DC050000DE
:104E8000AF0000005C50FC079C4EFC07D04EFC07B6
:104E90006450FC07904DFC07AC4EFC07A8B8FC071B
:104EA000A0B8FC07B8B8FC07F8B8FC077257FC07B5
:104EB000C08BFC07C18BFC07C48BFC07C88BFC07AD
:104EC0004D43FC073143FC07D919FC07A919FC071E
:104ED000004DFC07044DFC072C49FC07DD1BFC07BB
:104EE000893CFC071D3EFC0793DEF007F1DEF0076E
:104EF000F9DEF00749DFF00761DFF00777DFF00741
:104F000099DFF00719E3F007BDE5F007FDE3F007CF
:104F10001DE4F0073DE4F0077BE4F0078BE4F007C5
:104F2000F5F9F007B1F7F007CFF7F007EBF7F00767
:104F300005F8F00719F8F00797F8F007AFF8F00751
:104F4000DFCDF10767D0F107DBB9F007CD0DF20730
:104F5000B10EF207AD0EF207A90EF2078D21F00790
:104F60009139FC071D27FC075D27FC07B127FC07CB
:104F7000A927FC07B57EF007837DF0072501FC0714
:104F8000599EF107634CF107E939FC07D110F2078C
:104F9000B539FC07B111F2074112F2077912F20795
:104FA00000000000ED1BFC07EF1BFC07B9C6F00773
:104FB000D592F107B301FC075F9DF1075F9CF107F4
:104FC000C504FC07EB72F107B922F1076B04F10786
:104FD000611BFC072BA4F007F1D2F0075FBDF007BF
:104FE000D5BDF00785BEF007DB2DF007752EF00765
:104FF0001581F007DF7FF0070937F0070000000098
:10500000B91DFC07C11DFC07251AFC07F3C3F107F6
:1050100075C4F10703C5F1073D1AFC070000000045
:105020000000000000000000000000000000000080
:105030000000000000000000000000000000000070
:105040000000000000000000000000000000000060
:10505000000000000000000000000000504DFC07B0
:10506000A08DFC07784DFC07388CFC07020000007F
:1050700052656164206D652028696E64696361749E
:105080006529005772697465206D6520286E6F2050
:10509000727370290052656164206D6520286E6FFF
:1050A0007469667929004144432056616C75652016
:1050B000310044413134353331004144432056619D
:1050C0006C7565203200765F362E302E32342E31EC
:1050D00034363400496E64696361746561626C657D
:1050E0000052656164206D65005772697465206DBA
:1050F00065004C45442053746174650042757474B6
:105100006F6E205374617465004C6F6E672056613A
:105110006C756500436F6E74726F6C20506F696EB2
:105120007400000046554B554F4B412D474C55439D
:105130004F53452D53454E534F520000FD43FC073E
:105140007D44FC0700000000000000001D1DFC075E
:105150000000000000000000000000001D1CFC0713
:105160000000000000000000000000002D1CFC07F3
:10517000251CFC07451CFC072D1DFC07000000003A
:10518000AD1DFC07F11BFC07000000000000000043
:1051900000000000D51CFC07651DFC070000000096
:1051A00000000000591CFC07000000000000000087
:1051B00000000000000000000000000000000000EF
:1051C00000000000000000000000000003000010CC
:1051D000000100000852FC070852FC076C060000A2
:1051E000EC45FC070852FC077458FC070007000058
:1051F000EC45FC07C08BFC07C08BFC077802000065
:08520000EC45FC070E00000064
:0400000507FC0111E2
:00000001FF
